:10000000E01F001081030000B9030000BD030000E1
:1000100000000000000000000000000000000000E0
:10002000000000000000000000000000C10300000C
:100030000000000000000000C5030000F90A0000F5
:10004000CD030000D1030000D5030000D903000058
:10005000DD030000E1030000E5030000E903000008
:10006000ED030000F1030000F5030000F9030000B8
:10007000FD03000001040000050400000904000065
:100080000D04000011040000150400001904000014
:100090001D040000210400002504000029040000C4
:1000A0002D04000031040000350400003904000074
:1000B0003D04000041040000450400004904000024
:0402FC00FFFFFFFF02
:10030000402292029A1A92467047C046174B002B21
:1003100000D1134B9D46FFF7F3FF00218B460F469C
:100320001348144A121A03F0FDFC0E4B002B00D0A8
:1003300098470D4B002B00D0984700200021040067
:100340000D000D48002802D00C4800E000BF03F06B
:1003500035FA2000290000F0E1FB03F01BFAC0464B
:10036000000008000000000000000000E01F001076
:1003700064000010400200100000000000000000B7
:1003800072B6074880470749074A084B9B1A03DDA6
:10039000043BC858D050FBDC62B6054880470000DB
:1003A00019110000F042000000000010640000106D
:1003B0000D03000025480047254800472548004711
:1003C000254800472548004725480047254800475D
:1003D000254800472548004725480047254800474D
:1003E000254800472548004725480047254800473D
:1003F000254800472548004725480047254800472D
:10040000254800472548004725480047254800471C
:10041000254800472548004725480047254800470C
:1004200025480047254800472548004725480047FC
:1004300025480047254800472548004725480047EC
:10044000254800472548004725480047B5030000D8
:10045000B9030000BD030000C1030000C503000094
:10046000F90A0000B5030000B5030000B503000061
:10047000B5030000B5030000B5030000B50300009C
:10048000952A00007D2A0000A9180000B50300008D
:10049000B5030000B5030000B5030000B50300007C
:1004A000B5030000B5030000B5030000B50300006C
:1004B000B5030000B5030000AD2A0000B50300003D
:1004C000B5030000B5030000B5030000B50300004C
:1004D000B5030000B5030000B5030000B50300003C
:1004E000B503000002B4714649084900095C49009F
:1004F0008E4402BC7047C04603B4714649084000B0
:100500004900095E49008E4403BC7047002243083D
:100510008B4274D303098B425FD3030A8B4244D3CB
:10052000030B8B4228D3030C8B420DD3FF2209020D
:1005300012BA030C8B4202D31212090265D0030BCC
:100540008B4219D300E0090AC30B8B4201D3CB03C2
:10055000C01A5241830B8B4201D38B03C01A524104
:10056000430B8B4201D34B03C01A5241030B8B4206
:1005700001D30B03C01A5241C30A8B4201D3CB02F1
:10058000C01A5241830A8B4201D38B02C01A5241D6
:10059000430A8B4201D34B02C01A5241030A8B42D9
:1005A00001D30B02C01A5241CDD2C3098B4201D3F1
:1005B000CB01C01A524183098B4201D38B01C01A6F
:1005C000524143098B4201D34B01C01A52410309E6
:1005D0008B4201D30B01C01A5241C3088B4201D395
:1005E000CB00C01A524183088B4201D38B00C01A42
:1005F000524143088B4201D34B00C01A5241411A69
:1006000000D20146524110467047FFE701B5002075
:1006100000F0F0F802BDC0460029F7D076E7704739
:1006200003460B437FD4002243088B4274D3030953
:100630008B425FD3030A8B4244D3030B8B4228D3F4
:10064000030C8B420DD3FF22090212BA030C8B421A
:1006500002D31212090265D0030B8B4219D300E0BA
:10066000090AC30B8B4201D3CB03C01A5241830B3F
:100670008B4201D38B03C01A5241430B8B4201D3EF
:100680004B03C01A5241030B8B4201D30B03C01A18
:100690005241C30A8B4201D3CB02C01A5241830A92
:1006A0008B4201D38B02C01A5241430A8B4201D3C1
:1006B0004B02C01A5241030A8B4201D30B02C01AEB
:1006C0005241CDD2C3098B4201D3CB01C01A524152
:1006D00083098B4201D38B01C01A524143098B42DB
:1006E00001D34B01C01A524103098B4201D30B01C4
:1006F000C01A5241C3088B4201D3CB00C01A5241E9
:1007000083088B4201D38B00C01A524143088B42AD
:1007100001D34B00C01A5241411A00D20146524146
:10072000104670475DE0CA0F00D04942031000D365
:100730004042534000229C4603098B422DD3030ABA
:100740008B4212D3FC22890112BA030A8B420CD3CA
:10075000890192118B4208D3890192118B4204D3F3
:1007600089013AD0921100E08909C3098B4201D373
:10077000CB01C01A524183098B4201D38B01C01AAD
:10078000524143098B4201D34B01C01A5241030924
:100790008B4201D30B01C01A5241C3088B4201D3D3
:1007A000CB00C01A524183088B4201D38B00C01A80
:1007B0005241D9D243088B4201D34B00C01A524157
:1007C000411A00D20146634652415B10104601D3E4
:1007D0004042002B00D54942704763465B1000D36E
:1007E000404201B5002000F005F802BD0029F8D014
:1007F00016E770477047C046002B15D1002A13D169
:10080000002906DB01DC002806D00020C043410897
:1008100002E080210906002007B4024801A1401827
:10082000029003BDD1FFFFFF03B4684601B50298F3
:1008300002F042FA019B9E4602B00CBC7047C046D3
:10084000002B11D1002A0FD1002900D1002802D09D
:100850000021C943080007B4024802A140180290D1
:1008600003BDC04691FFFFFF03B4684601B502987F
:1008700002F056F9019B9E4602B00CBC7047C04680
:100880001C2101231B04984201D3000C10391B0AC0
:10089000984201D3000A08391B09984201D3000984
:1008A000043902A2105C40187047C04604030202DB
:1008B00001010101000000000000000010B5002946
:1008C00003D1FFF7DDFF203002E00800FFF7D8FF7B
:1008D00010BDC0460448054B10B5834203D0044BFD
:1008E000002B00D0984710BD640000106400001079
:1008F0000000000006480749091A8B10C90FC918E3
:1009000010B5491003D0044B002B00D0984710BD00
:1009100064000010640000100000000010B5074CD7
:100920002378002B09D1FFF7D5FF054B002B02D010
:10093000044800E000BF0123237010BD64000010D4
:1009400000000000C4420000054B10B5002B03D08E
:100950000449054800E000BFFFF7CCFF10BDC046CA
:100960000000000068000010C44200000422034B95
:1009700099681142FCD0D8617047C04600400640DB
:10098000074B10B5C01802F0D5F902F03DFD054A3D
:10099000054B02F011FA02F07FFD02F0ABF910BD39
:1009A00001F8FFFF4310316F1F03B93F10B502F08C
:1009B00007FD0022034B02F0FFF902F0C5FCC83826
:1009C00010BDC0460000B93F10B502F0F9FC00228E
:1009D000034B02F0F1F902F0B7FC00B210BDC046C3
:1009E0000000993FF0B501270026144C87B001A9FB
:1009F000050020008E80019700F0D0FB104B2000F6
:100A000003A905930397049600F024FC8023A268B1
:100A10001B061343A3608023A268DB041343A36077
:100A20002A000021054800F081FC0028F8D02900A8
:100A3000024800F055FC07B0F0BDC04600C00140C0
:100A4000010000018E23F7B50125022100261A4C72
:100A50009B00E2586846AA43E250E258174F8A4387
:100A6000E250174B1E606B461E71164B009301F04F
:100A7000FFF8C020800001F0E7F90323FF223B606C
:100A8000A36F93432B43A36700F0FCFA03233B605F
:100A90002300C822E4331E6004341D605A60E36FF3
:100AA0007F352B43E3672E210748AE3A01F028FA41
:100AB000E36FAB43E367F7BD00800440E080044090
:100AC000408004400087930300C000408023074A11
:100AD000DB01D16F0B43D3670822054B1A60054B2E
:100AE000053A1A6202321A607047C0460480044018
:100AF0009480044000400640034B1A68002A02D04C
:100B00001A68013A1A60704788000010024B18609A
:100B10001A68002AFCD1704788000010802270B546
:100B20008024514BD201D86F64040243DA67DA6F34
:100B30004E492243DA678022D86F52000243DA67B7
:100B40008E22102092008B588AB083438B5000F085
:100B5000B7F8FFF777FFFFF7B9FFFA21444B454A93
:100B600089001A60444B1868FFF7D0FC0138A04296
:100B70003CD2C021414A0906506041480025036A21
:100B80001B021B0A0B4303620723956003201360BB
:100B900001F040F83B4C206003A800F06FFC03A973
:100BA000394800F0F9FB6A4681239572374D5B00A6
:100BB00013810195236802A9012200933248344B26
:100BC00000F034FD334800F02DFA334800F02AFAE3
:100BD000324800F027FA032001F01CF801003048E9
:100BE00000F00CFB002802D12E4801E0FEE72E4861
:100BF00000F018FA06A8FFF7F5FE2C4800F012FAEC
:100C00008023274ADB0491680B439360002124482A
:100C100006AA00F08BFB0028F8D0069A0899244811
:100C200000F000FA069EB0B202F0CAFB0022214B8F
:100C300002F0C2F802F088FBC4B23000FFF7B6FE43
:100C4000060021001C4800F0EDF931001B4800F0BF
:100C5000E9F9220002212B680B4800F01BFC6420FC
:100C6000FFF754FFCCE7C0460480044000800440F6
:100C7000900000106D0900000400001010E000E07A
:100C800000ED00E0800000100040005084000010E3
:100C9000A08601003C4100005A4100007441000060
:100CA00000C00140AB41000088410000D04100007D
:100CB000F74100000000993F11420000324200005D
:100CC000F8B58023154CDB02E26F10271343802216
:100CD000E367E36F124E134D1343E3672800776415
:100CE0000022012101F00CF92800376104220021C3
:100CF00001F006F900238021F36328000122890115
:100D000001F00DF9776528001B22212101F0F8F888
:100D10008022E36F9343E367F8BDC046048004403C
:100D20000040044000C0004070470000030010B5C0
:100D30000800002B01D0984710BD044A1368002B0F
:100D4000FAD0591C11601870F6E7C0468C000010EC
:100D500010B5034B01001868FFF7E8FF10BDC0464F
:100D600090000010F0B50F00160091B00190397896
:100D7000002900D13BE1252905D001370198FFF773
:100D8000D5FF3400CBE07978302916D10591B978B8
:100D9000FB1C002200922A291BD000220A2002926A
:100DA0000A00303A1F00092A1CD8029A42435218FE
:100DB000303A197802920133F2E72D2903D020222C
:100DC000BB1C0592E5E72022B9780592FB1C1E3A70
:100DD000E0E704CE002A02DA02215242009119789B
:100DE00002925F1C2E2972D139782A290DD0002554
:100DF0000A207B1C0A00303A1F00092A08D8454304
:100E00006D18303D19780133F4E720CE7978023738
:100E10006C2905D10423009A39781A4300920137CE
:100E2000002900D1E3E07829A8D86E2952D8632997
:100E30006FD060D8582900D1AFE062299ED1009BC5
:100E40005B0700D4BEE03400022508CC06930723DC
:100E5000782900D12723DBB2079300230393069858
:100E60002900FFF7D9FB069ACBB20690092902D9CF
:100E70000799CB18DBB2039903984E1C303308A9AD
:100E80004354AA4204D3202E00D0A5E01F2303938D
:100E90000122009B134204D02D2308AA9355039EE0
:100EA0000236009B35009B0700D49CE0013E08AB56
:100EB000F15C0198FFF73AFF002EF7D1029BAB429D
:100EC0002DD920210198FFF731FF0135F6E70125E3
:100ED0006D429DE708006F38092800D94EE7FFF7FB
:100EE0000BFB63004DFF4DFF4DFF20004DFF6A00DF
:100EF0004DFF4DFF5C00642900D03FE7340008CC73
:100F00000A25002BA2DA012200985B4210430090D0
:100F10009CE7340002CC0198C9B2FFF707FF260016
:100F200025E7340008CC0393002B01D1314B039308
:100F3000002D03DB049BAB4200D904950226009BE5
:100F400033401E00049B01330093002E13D0039BFB
:100F50005E19039B1978002901D0B34216D1029B78
:100F6000049A9342DBD920210198FFF7DFFE049B0E
:100F700001330493F3E7049B029A9342E7D2059965
:100F80000198FFF7D3FE009B0493DBE7039B0198D6
:100F900001330393FFF7CAFEDBE7009B5B0715D520
:100FA0003400102508CC51E7009B5B0710D53400B6
:100FB000082508CC4AE7009B341D5B070AD50A25A3
:100FC000336843E70225340008CC3FE71025FAE7F1
:100FD0000825F8E70A25F6E7039640E70599019802
:100FE000FFF7A4FE0135029BAB42F7D85EE711B0D4
:100FF000F0BDC046F641000070B505000C00217838
:10100000002900D170BD28000134FFF78FFEF6E7FC
:1010100010B5034B01001868FFF7EEFF10BDC04686
:10102000900000100FB407B5054B04AA02CA186857
:101030000192FFF797FE03B008BC04B01847C04602
:10104000900000100EB403B503AA02CA0192FFF784
:1010500089FE02B008BC03B0184700000EB417B5F3
:10106000074C05AA02CA206000200192FFF77AFE11
:10107000002322682360137017BC08BC03B0184714
:101080008C00001010B51E4C0020636ADB051B0F9E
:10109000013B0E2B02D81B4A9B0098580322616A21
:1010A000236F1340022B11D0934216D0012B24D171
:1010B000206C10400338431E9841134B40421840A7
:1010C000A16FFFF723FA114C206010BD1F231940B8
:1010D00001314900FFF71AFAF2E7A268206C1F21DC
:1010E0001840033843425841094B40421840064BD0
:1010F0000A40C01801325043E2E70348E0E7C04627
:101100000080044054420000001BB700040000109F
:1011100000E548FF7047000010B5044B044A936097
:10112000044B054A1A60FFF7F5FF10BD00000000F0
:1011300000ED00E004000010001BB700431E70B576
:101140005B184D420C002B40984201D9002070BD25
:1011500005225242521A9A42F8D3081DC01802F0D2
:101160005BFB0028F2D0033423181D40034A2B1FD9
:10117000281A58801A802800E9E7C0463930000054
:10118000031F054A198810B5914203D15B88C01A24
:1011900002F04CFB10BDC0463930000080230E4ADF
:1011A00010B5D46F5B042343D367002343660A79E9
:1011B0000B68DBB2002A02D08022D2001343202227
:1011C0000360C36E9343C3664B79C46E5B011340E7
:1011D0002343C36610BDC0460480044010B50822F6
:1011E000002102F09FFD10BD024A0349D36F0B405E
:1011F000D367704704800440FFFFFFFEF8B504008A
:10120000FF27256823680800BB4323600E49FFF7CA
:101210007DF92668013838403043802620609620CA
:1012200023680A4AF60513402360236840003343CD
:101230002360074900F042FB236800202560334209
:1012400000D10120F8BDC04620A10700FFFBFFFF31
:1012500080C3C901E0224B68D2011B0313400A6816
:101260001205120D13430A7A012A02D18022D202FA
:1012700013434A7A002A02D0802212031343CA7A07
:10128000012A02D18022D20513438A7A002A02D091
:1012900080225205134383607047E0224B68D201DD
:1012A0001B0313400A681205120D13430A7A012A20
:1012B00002D18022D20213434A7A002A02D080222D
:1012C00012031343CA7A012A02D18022D2051343A2
:1012D0008A7A002A02D0802252051343C3607047E5
:1012E0000322006903041B0D0B60030C13400B71F8
:1012F000830C13404B7183001B0F8B604300DB0F8B
:10130000C00F0B7370470322406903041B0D0B6071
:10131000030C13400B71830C13404B7183001B0FA4
:101320008B604300DB0FC00F0B73704708318900DF
:101330000858032103041B0D1360030C0B401371A9
:10134000830C0B40537183001B0F93604300DB0F32
:10135000C00F137370470000F7B5002501270B4E2F
:101360000B4B34681B68234001933C4205D0094A6B
:10137000AB00D358002B00D09847640802D0013549
:10138000082DF2D1019B3360F7BDC046F4400050F8
:10139000F0400050A80000108023284A70B50D00CE
:1013A000D16F5B000B430400D367082000F09CFD65
:1013B00078210620AB782A78DB000B406978490059
:1013C0000140F0200B43297A4001490201401343B8
:1013D0000B432360EB7869791B0149010B4304211E
:1013E0000B436360082361680B436360002A0FD1DD
:1013F0002B79AA791B055205134380226168D2021A
:101400000B4313436360802362681B0313436360D1
:10141000EB79202223650024094B21001C60094B35
:1014200009481C60094B1C60094B1C6002F07AFCE7
:10143000084B094A20001A6070BDC0460480044071
:10144000A4000010A0000010A80000109C000010D4
:101450009800001094000010591300004268044BDB
:1014600004491343044A4360D36F0B40D36770476A
:1014700004000400FFFEFFFF0480044010B50822B2
:1014800004000021013002F04DFC012323700E33D3
:10149000237210BDF7B504000800A030C00020186A
:1014A00040680F270190C120C326DD006519800028
:1014B0002858B60038404030AD5980000059666861
:1014C0003D400B3F37436760632A1AD90127019ECD
:1014D000DB193A00DE408A40236D3E420FD01343B1
:1014E00023650230AD0065192B00FC335860802362
:1014F00004229B00E850636893436360F7BD934305
:10150000EEE70023190001F0DDFA64220023FFF763
:1015100097F9E7E7F7B5040040481500066808AA00
:10152000012012780193072E1DD88B040F009B0F0A
:10153000022B19D1F022019B92009B011340320033
:101540006032D2000B43A21853600122344B0020BA
:101550001B689A4033006033DB001A51099B2F4A05
:101560001E6001361660FEBD0921D940014205D03A
:10157000019B9901F0239B0019400F4301239A42DC
:1015800019D1236810001342EDD126490A68072AB1
:10159000E9D89300E3181800ADB2FE3045808020F2
:1015A000800017431D5233006033DB00E318013223
:1015B0005F600A60C9E7022A1FD1226818001A4238
:1015C000D1D119490A68072ACDD83B001027134307
:1015D0001F439300E3181800FE3040882D04284371
:1015E000AC461D00FC356860802080001D5A6046B6
:1015F0000543802080001D50D5E71800042AB2D191
:1016000022681A42AFD007490A68072AABD893006C
:10161000E3181800FC3017434560EAE7A400001007
:10162000A00000109C00001098000010F0B51D00F4
:10163000002387B004930593544B0E001B680400ED
:10164000023341680292082B02D9012007B0F0BD95
:101650004909C9B20C980131FEF758FF029B012BD2
:1016600008D162680F33134363606900FEF74EFFD1
:10167000050006E0029B002BF7D12900FEF746FF8C
:10168000451EB278632A43D9AB1C039304278021FB
:1016900004AB2A0001934901002320000097FFF7C3
:1016A00039FF802105AB0500019320000023039A38
:1016B00000974901FFF72EFF2843C6D101221100F0
:1016C000049D6B46A94003911100A7681B7B3B4317
:1016D000A3600D9B17001D60059D3378A9400D0088
:1016E00071789F408C46DE0091422ED10299284AA3
:1016F000002918D1236DA619BB432365A024E4005B
:10170000335903990B433351B3582B43B3509DE7DF
:1017100000232800190001F0D5F964220023FFF707
:101720008FF80390B2E7216DA61939432165B158AE
:101730005B002943B15003219940626D8A436146A1
:1017400099400B001343636580E7029900290BD190
:10175000236DA6193B4323650D4B0399F2581143A2
:10176000A022F150D200CFE7216DA619B943A027DE
:101770002165FF00F1595B00294303259D409A40F4
:10178000F151616DA9430A4362655FE7A40000104F
:1017900004050000064B10B51C680123C022A340BD
:1017A000C9004018920081580B43835010BDC046B9
:1017B000A0000010044A01201368072B02D81B1850
:1017C000002013607047C046A0000010014B18684D
:1017D0007047C046A000001070B501249440094E27
:1017E000CB00C3189D5922002543A0249D51E4003D
:1017F0001D5949002A431A5103238B40826D13431C
:10180000836570BD04050000F7B50400009201294E
:1018100001D004291DD11E4D01202968072917D8A0
:1018200080278E00A619BF00F25B4C34944602005C
:101830009A4013006246884013439BB2F3532388B7
:1018400003439BB22380009B196001312960002073
:10185000FEBD104E012031680729F9D880278D0080
:101860006519BF00EA5B019202009A4013040A4A1C
:1018700088401340019A00041343EB5123004C337A
:101880001B881843009BE064196001313160DEE77A
:101890009C0000109800001000F0FF0F014B920018
:1018A00099507047A800001010B5024B02481B6801
:1018B000984710BD94000010004000500A0010B579
:1018C00000280BD00023190001F0FCF80023044A83
:1018D000FEF7B6FF001C01380028FCD110BDC04641
:1018E00000093D004023044A10B5D16F0A200B4384
:1018F000D36700F0F9FA10BD0480044070B54024AD
:10190000104DEE6F3443EC67012494402200802494
:101910001E788D00A401002E04D145192B59934344
:101920002B5170BD5B78002B09D18A231B01C9188C
:1019300089000A504019035913430351F1E78823E2
:10194000F4E7C04604800440EFF3108172B607202C
:10195000064A136883431360054A033813698343B7
:10196000136130BF81F310887047C0460000024009
:1019700000ED00E010B5EFF3108172B607230C4CB8
:1019800022689A43063B13438C222360094C920041
:10199000A35883430420A350074B1A6902431A61DA
:1019A00030BF1A6982431A6181F3108810BDC046A6
:1019B000000002400080044000ED00E010B5EFF3AD
:1019C000108172B607230C4C22689A43053B1343DF
:1019D0008C222360094C9200A35883430420A35017
:1019E000074B1A6902431A6130BF1A6982431A61B0
:1019F00081F3108810BDC046000002400080044002
:101A000000ED00E0EFF3108172B60F230848026882
:101A10009A430C3B134303600420064B1A690243AC
:101A20001A6130BF1A6982431A6181F310887047C6
:101A30000000024000ED00E030B50E4A172811D931
:101A4000050001238121183DAB40890054582343F0
:101A50005350002805DB1F2318401E3B8340064AD5
:101A6000136030BD012385218340890054582343EE
:101A70005350F0E70080044000E100E010B500287A
:101A800009DB1F220123024093400B4AD367BFF3B7
:101A90004F8FBFF36F8F094B172808D98124A400FB
:101AA0001A591838012181408A431A5110BD8524E2
:101AB000A4001A59F6E7C04604E100E000800440A3
:101AC00003688B43036003680B4303600368194298
:101AD000FCD0704700487047001BB7008E23044AB3
:101AE0009B00D35800209B0601D4024B1868704716
:101AF00000800440D00000100A4B10B5186C03237E
:101B00001840012807D0984208D043425841064B5C
:101B10004042184010BDFFF7E1FFFBE7034B186898
:101B2000F8E7C04600800440001BB700D00000105A
:101B300010B50D4C0020236F032B06D81800FEF7BC
:101B4000D1FC10020508FFF7D7FF10BD074B18683E
:101B5000FBE7FFF7D1FF1F22A3681340013358436F
:101B6000F3E70348F1E7C04600800440CC000010D2
:101B7000001BB7000F4B10B51C680F4B00201B68F3
:101B8000E4B2032B06D81800FEF7ACFC12020C0FCF
:101B9000FFF7A4FF002C03D02100FEF7B7FC0400E0
:101BA000200010BD054B1868F4E7FFF7C1FFF1E70F
:101BB0000348EFE7E8800440E0800440CC000010D8
:101BC000001BB70010B5FFF7B3FF0A4BFF241A68DC
:101BD0001300234022420BD0074A010E1268000274
:101BE00022400132FF325A430023FEF729FE030050
:101BF000180010BD94800440F480044010B5FFF735
:101C0000E1FF10BD10B5FFF7DDFF10BD10B5FFF708
:101C1000D9FF10BD10B5072820D8FEF763FC060ECB
:101C20001F0411161F140E4810BDFFF781FF0D4B46
:101C3000996FC9B2FEF76AFCF6E7FFF779FFF3E7A1
:101C4000094B1868F0E7094BFBE7FFF755FF1F2228
:101C5000044B9B68134001335843E5E70020E3E75A
:101C6000001BB70000800440D0000010CC00001022
:101C70008E22802370B51F4C9200A15806000B43A2
:101C80000321A350236C226C8B43134302791A481F
:101C900013432364FFF714FFFFF72EFF366801009C
:101CA00005003000FEF732FC144A0023964208D8A3
:101CB000134A0133964204D80023124AB2425B41D0
:101CC00002331F26A168421E32406036B1430A43E8
:101CD0005B0113438E228021A3609200A3588B43A3
:101CE000A3500123E2681A42FCD06843064B1860F7
:101CF00070BDC0460080044044800440802FA6048C
:101D0000C0175302E08B2901C80000101821074AB0
:101D100010B5D36A064C8B43D362E02205495200CA
:101D20008B5823408B50044B186010BD004004407A
:101D3000FFFDFFFF00C00040D00000101821104A36
:101D400010B5936B04008B439363E02240200D4950
:101D500052008B5883438B500B4BC03A196AFF3AA1
:101D60000A438E211A6289005A5820388243DA3099
:101D70005A5040000549FFF7A1FD054B1C6010BDFE
:101D80000040044000C000400080044080C3C901FE
:101D9000D00000101821154B10B55A6B04008A436F
:101DA0005A639A6BC0208A439A63E022104952001A
:101DB0008B5883438B500F49BD380B6A0A6A8343A3
:101DC00013430D4A1D30A242924152425200134326
:101DD0008E220B6292008B588343DA308B50400086
:101DE0000649FFF76BFD064B1C6010BD0040044028
:101DF00000C0004000800440C0E1E40080C3C9018D
:101E0000D000001070B5F0250D4CC20C636A6D0057
:101E10005B0A2A405B021A43C23D4B08FF3D013B6F
:101E20002B4013438E2263629200A3582135AB43AB
:101E30000002A350000AFEF769FB024B186070BD58
:101E400000800440CC00001010B503240949020AA8
:101E50000B6F23409A420BD0C0B2002808D10B6F01
:101E60002240A34313430B6703480121FFF728FED9
:101E700010BDC0460080044074800440F8B50400E2
:101E8000FFF756FE114B06001B685C43211E1BD05A
:101E90000021A04218D32100FEF738FB00210128C1
:101EA00012D80B0022000D003400FF27A41A9D4118
:101EB000074829020760200E01432002FEF7C0FCFC
:101EC0000121044B384018600800F8BD948004409C
:101ED000F0800440F480044010B501210148FFF770
:101EE000EFFD10BDE480044001228240034B59689D
:101EF0009143596059680A435A6070470080044012
:101F0000032310B5FF240B40DB009C409A40890856
:101F1000890040180168A1430A43026010BD002AED
:101F200007D0002904DBE022520083588B43835002
:101F300070470029FCDBE0235B00C2581143C1500D
:101F4000F6E7890093B24018120D801803607047BD
:101F50000300012258681042FCD050225A6070479A
:101F600070B5040008780022C31F012B02D88A68CC
:101F700053425A41102563682B420CD0524A656087
:101F800000230D6B0B705133E360002D2CD020002B
:101F90004B6BA84728E040252B4202D04B4A656096
:101FA000EEE7DD0700D481E01B075B0FDD1E012D8E
:101FB00006D8002A00D07DE00423454A2362DFE7EB
:101FC0000138072800D97DE0FEF78CFA213A4B5101
:101FD0007C0469728B8B0A695B00002A05D0A362BE
:101FE00001230B700223236270BD8A7F8868002A58
:101FF00005D1A36207230028F3D0053BF1E70122B6
:102000001343A36207230028EBD0033BE9E7022B2D
:1020100058D10A69486A801A0818007D013AA062FE
:10202000012020620A61002ADED18A68002A05D0D8
:102030008A7F824200D104330B70D5E70723FBE788
:10204000022B3FD1CB685A1CCA601B78A3620123C4
:1020500023628B68013B8B60002B15D107330B701B
:1020600012E0012B2ED1A26A23620333E4E7012B95
:1020700028D1CA68A06A551CCD6010708A68013AE0
:102080008A60002A04D023624B6801334B60ABE7BF
:1020900004238A691A4200D123620823DFE704235C
:1020A0008A691A4204D12362DB18C5E7094A67E747
:1020B000002265E70638022804D8FEF71DFA8BFFD8
:1020C000F0FFF9FF044A5BE7CD190000D0190000CA
:1020D000CA190000C8190000D11900008B6A70B538
:1020E0000A7115000C008A68002B1CD02A421AD0F5
:1020F000CA6A9847631D6169A269D87F00280BD11D
:102100002069002801D0002904D1E168002903D00A
:10211000002A01D00122DA77023DFD232A001A406D
:102120001D4200D1E26170BD036810B5DB0703D525
:10213000024B1B68984710BD014BFAE7D80000100E
:10214000D4000010F8B5802746683F028B6905006F
:102150000C004B693E4203D04022FFF7BFFF6F6087
:10216000F30541D57605B60F37D16B6CDAB26271E3
:10217000DB071DD563692269002A01D0002B04D139
:10218000022221002800FFF7A9FF63692269002AC3
:1021900001D0002B07D1022301222B64210028004B
:1021A000FFF79CFF20E00322A31DDA770123F3E76A
:1021B000A369E268002A01D0002B04D10422210087
:1021C0002800FFF78BFFA269E16802230029E3D012
:1021D000002AE1D0A21DD377E8E7A31DDA7FD3B2AE
:1021E000022A02D0032B29D0F8BD012E44D1A369C5
:1021F000E268002A01D0002B04D10422210028002B
:10220000FFF76CFFA369E268002A0FD0002B0DD006
:102210006A6CE3681A70A369013BA361E368013348
:10222000E360E3690133E36101232B646369A2691D
:102230001343D9D1621DD3772022AFE70223022EA8
:102240001AD163692269002A01D0002B04D102222D
:1022500021002800FFF742FF63692269002AE5D0C8
:10226000002BE3D023691B786B646369013B6361D6
:10227000236901332361D4E72B64B5E7094A0300DE
:10228000002093420CD0084A0130934208D0074AFC
:102290000130934204D0064A9818431E98410330F7
:1022A0007047C04600000540004005400000074060
:1022B00000C0F8BF10B50B2204000021013001F06E
:1022C00031FD01232370014B636010BDA086010026
:1022D0001E22036810B513400360FFF7CFFF044AC6
:1022E0000449105C01228240CB6F9343CB6710BD41
:1022F0009C420000048004400A23F0B5534389B097
:1023000006934B005B420793122309244B4303932C
:102310002300002607000D004B430592029301960F
:10232000009603990698FEF7F1F8431D18000A215C
:102330000493FEF7EBF880235B02984200D9180063
:10234000029B059A43435B00D31AB34201D3002E8C
:1023500002D11E0001900094002B0FD0A022049BFC
:10236000120393420AD2079A039B94466344039351
:10237000029B013C5B1B0293012CD2D17021019B7B
:10238000013B9BB27B61009B023B1A010A40693909
:102390000B4013437B6209B0F0BD0000F8B5012685
:1023A0000D0017000400FFF769FF32000F4BD96FD3
:1023B0009C460F4B1B5C9A40130062460B43D3674D
:1023C0000C4B185CFFF790FD2B781E22002B09D0D8
:1023D000236813401E4326603A0069682000FFF717
:1023E0008BFFF8BD236813402360F5E704800440A9
:1023F0009C4200009842000070B5160005000C00D9
:10240000FFF7A6FD054A904207D0012300201E4099
:1024100064003443DB18AC622B6270BDD31900003A
:1024200010B50400FFF794FD034A904202D0042344
:102430000020236210BDC046D3190000F7B5040088
:102440000D001026402701938B180093009B20005D
:10245000AB4215D1FFF77CFD50230421019A0340C4
:102460000A40134303D120002162FFF771FDC30628
:102470000AD4402203001340104209D1180004E09E
:10248000FFF766FD304201D00C48FEBD384201D056
:102490000B48FAE70007400F032809D0042809D0A9
:1024A000022809D12B78A36201232362ED18CDE71E
:1024B0000448EAE70448E8E70448E6E7CD190000E5
:1024C000D0190000D2190000CA190000D11900006B
:1024D000F7B5050014000E000193002A09D0072764
:1024E0002800FFF735FD5023184207D00400C3062B
:1024F00022D4124B6006C01718400BE043083B4043
:10250000012B08D00120033B98428041072318404B
:102510000B4BC018FEBDAA6A013C3270002C02D0E1
:102520002B620136DCE70423019A1A42DED128002F
:102530002B62FFF70DFDD9E70248EBE7D019000049
:10254000CA190000CD190000F0B50F6801233A0048
:1025500006000D0085B01A401F420ED0AB79002B4B
:102560003CD00024012B30D16A69A2422DD03B001F
:1025700030002969FFF7ACFF39E0CB6800930B7995
:102580000193009B002B27D00199FFF735FF041E14
:1025900015D1009BAA68013B03A9002B18DA04237C
:1025A0003000009AFFF74AFF041E08D1AA79012AD9
:1025B000D4D130000199FFF71FFF041ECED00D4B80
:1025C0009C4202D13000FFF72BFF200005B0F0BD88
:1025D000CA54120A013BE0E78A79EAE76A691C00FB
:1025E000002AF2D03B0030002969FFF727FF0400E2
:1025F000E5E7C046CA190000F8B50C000500170051
:102600000021382220001E0001F08CFB2800FFF77B
:1026100035FE0B4B8200D4500A4B0B4A27631A60DD
:1026200051236663EB60094B1B56002B06DB1F2210
:1026300013401E3A9A401300054A1360F8BDC04685
:10264000DC000010D8000010611F00009442000060
:1026500000E100E0F0B50D7804009446002D3AD179
:102660005123C3600B0010001833C4C8C4C3C4C8CE
:10267000C4C3886ACB6AC86088694D608B600D618D
:10268000C00712D5002B0CD08B7F002B0BD0012B59
:102690001FD1023300200B70502363600133A3600D
:1026A000F0BD0723F6E70223F4E7486A00280AD0C2
:1026B00004280ED863460A009D68DB681432013B8B
:1026C000002B02DA08610623E4E7D5542D0A013B0A
:1026D000F6E70248E0E70248E2E7C046CB1900000F
:1026E000C81900000420002A04D00B78002B02D166
:1026F0001360023070474B6800201360FAE70B78D4
:1027000070B504000D00002B0DD05123C360FFF7FE
:102710001FFC0007400F04D0042320002362FFF7B2
:1027200017FC00232B70002070BD0000F7B5812638
:1027300009683602C66001934F1D0400F87F0A61E4
:10274000431E98410A4B40421840019B00254B61B3
:102750000623089ACD6013438D61CD618B60012300
:10276000FB77DB18236063686360A660FEBDC0462C
:10277000C8190000F7B5812609683602C6600193C2
:102780004F1D0400F87F0025431E98410A4B40422C
:102790001840019B0D614D61CA608B610623089A48
:1027A000CD6113438B600123FB77DB1823606368E3
:1027B0006360A660FEBDC046C819000010B5FF24C6
:1027C0005200224012311A4389000A5010BD000005
:1027D0001FB58023054A5B04029201A90C220193D4
:1027E000039301F00FF805B000BDC04600010001E1
:1027F000F7B501270C0001920500FFF73FFD3E00F1
:10280000204B214A1B5CD16F9E4033000B43D367A2
:102810001E4B185CFFF768FBA37A0420032B2FD80C
:10282000FA211B4A89000198D65CFDF76FFE194911
:102830007043FDF76BFE2378FF22BB40686161782F
:1028400013400B43AB64A378E178BB4013400B43C8
:10285000EB6423796179BB4013400B432B65A3796B
:10286000E179BB4013400B436B65637A0020BB40AA
:102870001340227A3A401343AB65E37ABB402B60A6
:10288000FEBDC0469C420000048004409842000007
:102890009042000040420F00002310B50360FFF794
:1028A000EDFC044A0449105C01228240CB6F934343
:1028B000CB6710BD9C42000004800440F0B50223A9
:1028C00080240360640043682342FCD0174DAB4270
:1028D00001D11648F0BD5C05A40F05D0022C0CD028
:1028E000002303600120F5E70123802403646400D2
:1028F00043682342FCD0AB42EBD0002A14D080279F
:10290000032401267F005B0A2340022BE8D10B78C9
:10291000013A436401310664002A05D043683B4212
:10292000FCD0AB42EFD1D4E70020D3E7D3190000AD
:10293000F0B5022380240360640043682342FCD086
:10294000174DAB4201D11648F0BD5C05A40F05D070
:10295000012C0CD0002303600120F5E70123802423
:102960000364640043682342FCD0AB42EBD0002AEE
:1029700013D08026032476005B0A2340012BE9D183
:10298000476C013A0F7003640131002A05D0436897
:102990003342FCD0AB42EFD1D5E70020D4E7C046AC
:1029A000D3190000F8B505000C001700081D2C22F3
:1029B00000211E0001F0B6F92800FFF75FFC00229D
:1029C000A31DA762E662DA770A4B8200D4500A4B55
:1029D0000A4A24601A6081231B02EB60084B1B56D5
:1029E000002B06DB1F2213401E3A9A401300054AB3
:1029F0001360F8BDDC000010D40000104521000079
:102A00009442000000E100E0F0B5812500242D0291
:102A1000C5604E1D0300F07F0C614C61CC608C6181
:102A2000CC61063414430122471EB8418C60F27712
:102A300092181A60034F5A68404238405A609D60AD
:102A4000F0BDC046C81900000420002A06D04B1D66
:102A5000DB7FD8B2002B02D1106006207047CB6913
:102A600000201360FAE781231B02C36000234A1D84
:102A70000360D3774B618B617047000010B5034B47
:102A800003481968FFF750FB10BDC046DC0000107A
:102A90000000054010B5034B03485968FFF744FB9D
:102AA00010BDC046DC0000100040054010B5034BCF
:102AB00003489968FFF738FB10BDC046DC000010E2
:102AC00000000740F0B5CE469946030C9C4613041F
:102AD00047461B0C1D000E0061460404240C80B503
:102AE0000700100C4B436543414360432C0CC01856
:102AF00024188C46A34203D980235B029846C44421
:102B0000494679435643230C2D042D0C89196344FF
:102B100024046019C918C0BCB946B046F0BDC0460F
:102B2000F0B557464E464546DE46E0B504000D007A
:102B30009246994683B08B4230D82DD049465046B4
:102B4000FDF7BCFE290006002000FDF7B7FE331A92
:102B50009846203B34D49B4653465A4693404246BF
:102B60001F00534693401E00AF423BD8AF4200D1F6
:102B700079E05B46A41BBD41002B00DA76E0002221
:102B800000230092019301235A46934001930123AD
:102B900042469340009329E08242CFD9002200238D
:102BA000009201930C9B002B01D01C605D6000988B
:102BB000019903B0F0BCBB46B246A946A046F0BDA1
:102BC00042469B4620239B1A5246DA404146130058
:102BD0004A468A40170042461F43534693401E0010
:102BE000AF42C3D900220023009201934346002B39
:102BF000D8D0FB0772081A4346467B080EE0AB426A
:102C000001D1A2420CD8A41A9D41012024196D4182
:102C10000021013E24184D41002E06D0AB42EED9D2
:102C2000013E24196D41002EF8D1009801995B46B0
:102C300000196941002B24DB2B005A464446D3403F
:102C40002A00E2401C005B461500002B2ADB260010
:102C50009E40330026004746BE403200801A99410C
:102C6000009001919EE7A342BCD882E74246202310
:102C700000219B1A0022009101920122DA40019268
:102C800085E7424620239B1A2A0046469A402300A5
:102C9000F340444613432A00E2401C005B46150003
:102CA000002BD4DA42462F002023260097409B1A9F
:102CB000DE403B003343CDE7F8B5CE46474680B50E
:102CC0009146984604000D0000F072FC07000E00CB
:102CD00002000B0048464146FFF7F4FE241A8D41DE
:102CE000089B380031001C605D60C0BCB946B0462E
:102CF000F8BDC04641024200C30F490A0020120E2F
:102D00007E2A03DD9D2A02DD094A9818704780203B
:102D100000040143952A07DC9620821AD1404842DC
:102D2000002BF3D10800F1E7963A9140F7E7C0464F
:102D3000FFFFFF7F70B5041E0ED0FDF7A1FD9E239F
:102D400001001B1A962B0CDC08282FD008398C4068
:102D50006402640AD8B201E000200024C0052043C8
:102D600070BD992B16DC421F052800D0944022002C
:102D700010480240650709D00F252C40042C05D0CF
:102D80000432540102D59F2302405B1A9201540A77
:102D9000D8B2E3E7020020001B3290400200501E30
:102DA00082410520401AC4401443E0E764029620A3
:102DB000640AD3E7FFFFFFFBF0B55746DE464E46F9
:102DC0004546E0B51F000B031B0B16009A46CA0FC1
:102DD0004B000400934687B05B0D00D1D5E0BB4AA1
:102DE000934200D1F8E05146420FC9000A438021C6
:102DF00009041143C2009146B54A8A469D18002332
:102E0000984602933C037B00FA0F3000240B5B0DC5
:102E1000009200D196E0AD4A934231D0720FE400A7
:102E20002243802424041443A94AF00094466344B6
:102E30005B195A1C0192424600260A2A42DC5A4675
:102E400000994A4093464246022A32DC013A012A5E
:102E500000D949E1022E00D1CAE0012E3DD1002364
:102E60000024002210005A461B052343D2071343B7
:102E7000190007B0F0BCBB46B246A946A046F0BD5B
:102E8000924B2643EB18002E00D1BBE003224146B3
:102E900011435A46884600994A40802109018C46D0
:102EA00029006144019141460A2900DD33E293463D
:102EB0000326424601279740A6213A00C9000A404E
:102EC0000F4231D0029E022E00D135E2032E00D1F6
:102ED000D2E154464846012EC1D0019A7D4B94461A
:102EE0006344002B00DCC0E0420709D00F220240FF
:102EF000042A05D0021D824280414042241810005D
:102F0000E20106D5744B019A1C4080239446DB00F5
:102F10006344724A93426BDC6207C00864025B053B
:102F20000243240B5B0D9DE7902189000F4263D182
:102F300088223A4200D1D7E0009BA2469B468146B8
:102F40000296BFE72300334300D17FE0002C00D17D
:102F5000ADE12000FDF794FC020003000B3A1D20B8
:102F60001900821A30000839D0408C4004433000E8
:102F700088405B4AEB1A944663445A1C01924246CD
:102F800000260A2A00DC5AE79CE753460343994689
:102F900054D05346002B00D177E15046FDF770FC2A
:102FA0000B235B429C4602008444110050460839C2
:102FB00088401D23804660461B1A2000D84003002D
:102FC000404603439A4623008B4099460023444DD4
:102FD0009846AD1A029315E752460243914626D110
:102FE00000221D000223924608329046029309E710
:102FF00000240022354B35E7002380249B46240320
:10300000324B2FE70222414611438022120194469F
:103010002A006244884601920A2900DD52E75A4696
:103020000020009904004A40934602260BE70C2238
:103030001D000323814690460293E3E600239A464F
:1030400004339846033B00250293DBE642460133F6
:103050001A432B0090465A1C01924246002400203D
:1030600001260A2A00DCEAE62CE70122D21A382AD5
:1030700000DDF4E61F2A00DC2AE11F214942CB1AB9
:103080002100D9400B00202A05D0164A019D944604
:103090006544AC402043421E904118430723190069
:1030A0000024014003420CD00F230340042B00D125
:1030B00040E1031D8342A441180064426107640299
:1030C000240BC20800230A43CCE6C046FF070000D9
:1030D00001FCFFFFFF030000FFFFFFFEFE070000F3
:1030E0000DFCFFFF3E04000049464A460904090C56
:1030F0000D00160C020C0004000C4543AC46050004
:103100007543A84615000F007543009202952A00EA
:10311000009D6F4365462D0CA94647444F44B84572
:1031200005D91500802252029046454402953D0C77
:10313000039565462D043F042D0CAC463D006544C7
:103140000495250C2404240CAC4625007543A846A0
:1031500065460F006943414489466743390C494439
:103160006E43884503D980225202904646440D0C96
:10317000A846350045440595039D3F04A8463F0CED
:103180000904C91988444546039555462E04360C52
:103190002F0C35004543784381463800A8462D0C56
:1031A000AA46009A504372434A445244914503D977
:1031B00080256D02A9464844150CA94645462D04B4
:1031C0002D0CA84665467D43120448449044A94608
:1031D0003200654662436E437C43170C3619BF19B3
:1031E000BC4203D980246402A446E144029C039EAD
:1031F000A446059D66448E428941AC4612043C04B7
:10320000120CA2186244494254184644A44646454A
:10321000A44182466442A046AA4292418C4589411B
:10322000E244D044494252420A43A045A441824567
:103230008941644249420C4341463F0CD21912195C
:10324000CC0D049970020843411E884141464A440E
:10325000F60D52023043490214430843D20135D5DA
:103260000122430802401343E0071843640834E690
:10327000009BA2469B4681468024534624031C4360
:1032800024034A462E4B240BECE5FDF7F9FA1523EF
:103290009C4684440200634620321C2B00DC84E6FA
:1032A000002399462300083883409A468EE6FDF7AE
:1032B000E7FA02000300153220331C2A00DC4EE638
:1032C00002003400083A0020944052E6019304E6DC
:1032D0001C4B21009C460300019DD3406544A9403E
:1032E00019430300AB40581E834119430800D440E2
:1032F0004B0709D00F230B40042B05D00B1D8B422D
:103300008041404224181800230200D4D6E601234D
:1033100000240022A6E50F29AAD1802352461B03D0
:103320001A42A9D01C42A7D11C43009B02009B4615
:10333000034B97E50024C1E60024014B220091E5F0
:10334000FF0700001E0400000B00020070B5164DC0
:103350000C0382B04900002000920193240B490D18
:10336000DE0FA94204DD1148814203DD104BF01845
:1033700002B070BD8020400320430E4C641A1F2C05
:1033800008DD0D4B5B1AD84003005842002EEFD1E8
:103390001800EDE7094B009A9C46030061448B40FE
:1033A000E2401343F1E7C046FE0300001D040000A5
:1033B000FFFFFF7F3304000013040000EDFBFFFF5D
:1033C00010B5041E10D0FDF75BFA0E4B1B1A5B05FF
:1033D0005B0D0A280FDC0B222100121AD140153098
:1033E0000A038440120B01E0002300221B05134353
:1033F0002000190010BD22000B3882401203002467
:10340000120BF3E71E04000070B542024300C40F24
:10341000FE201B0E591C550A08420CD0E0218900E1
:103420008C466D07120B63441B051343E4072343CB
:103430002800190070BD002B14D1002D1BD02800CE
:10344000FDF71EFA0A281CDC0B232A001B1ADA409F
:10345000030015339D400E4B12031B1A5B05120B24
:103460005B0DE1E7002D09D0130B802212031A43F4
:103470006D07084BD8E700230022D5E70022054B53
:10348000D2E703002A000B3B9A400025E3E7C04641
:1034900089030000FF070000F0B54B000F035B0D30
:1034A0003F4C450F83B07F0A5E1C2F430090019173
:1034B000CA0FC50026420BD03A495C18FE2C13DD1A
:1034C000FF200023C0051843D207104303B0F0BD0E
:1034D000002B02D100200023F4E73D43F0D08023ED
:1034E000DB03FF203B43EDE7002C14DD009BFF00D6
:1034F0009B01581E8341690F3B430B43590741D041
:103500000F211940042947D00433590142D5013411
:103510000023E0B2D6E721001731DBDB80211E203B
:1035200009043943001B1F281BDD02267642341B89
:103530000E00E6403400202804D01B488446634433
:1035400099400D436B1E9D4125436B071DD00F21F4
:1035500000242940EB0804291BD15B025B0AE0B27E
:10356000B0E7124C1C192B00A540C340A140681EB7
:10357000854129430B4300245907C1D19B010020F9
:103580005B0A9FE7DB08E0B29CE7AD0100206B0A15
:1035900098E72B1DDB08E0E79B015B0AE0B291E7AF
:1035A000FE07000080FCFFFFA2FCFFFF82FCFFFF84
:1035B000F0B5D6464F464646C0B504000D00100093
:1035C000190082B0002D00DA87E0002B0BDB16001B
:1035D0001F00AB4219D90020002102B0E0BCBA465E
:1035E000B146A846F0BD002746428F41AF4204D8FD
:1035F00000D082E0A64200D87FE0002000218FE0CA
:10360000002746428F419F42E5D8AF4200D198E063
:103610000023994639003000FDF750F98046290013
:103620002000FDF74BF943461B1A9846203B00D576
:103630007CE0310099409A460B00310040468140C1
:103640000A00AB425FD85CD05146A41A9D410029C4
:1036500000DA93E0002100200126009001915146FC
:103660008E400196414601268E4041460096002933
:1036700050D0D90756080E435F0841460122002367
:103680000CE0AF4201D1A6420AD8A41BBD412419C7
:103690006D410139A4185D41002906D0AF42F0D92F
:1036A000013924196D410029F8D100980199534638
:1036B00000196941002B48DB2E002C00DE404346F8
:1036C000DC405346002B50DB34009C402300444632
:1036D000A6403200801A99411EE000236242AB41AD
:1036E00014001D0000298BDB06000F00994200D951
:1036F00071E702D1904200D96DE701235B42994600
:1037000088E7A142A0D90021002000900191414604
:103710000029AED1009801994B46002B00D15CE7FF
:1037200003000C0000215842A14156E742463800F0
:103730009A462023310090409B1AD94003000B4346
:103740007BE7A64200D863E745E7424620239B1A61
:103750002A009A40260013004246D6402C001E4301
:103760004346DC405346002BAEDA42462023350068
:1037700094409B1ADD4023002B43A8E741462026B6
:103780000127761A00200021F7400090019101974F
:1037900068E7C046074B10B50400002B02D000219B
:1037A00000E000BF044B1B68002B00D098472000AE
:1037B00000F0B0FC000000002C02001070B50026E4
:1037C0000C4C0D4D641BA410A64209D1002600F03C
:1037D0007BFD0A4C0A4D641BA410A64205D170BDA6
:1037E000B300EB5898470136EEE7B300EB58984723
:1037F0000136F2E7E8420000E8420000EC42000037
:10380000E8420000002310B59A4200D110BDCC5C04
:10381000C4540133F8E7000010B5034B01001868E9
:1038200000F030F810BDC0461400001010B5034B76
:103830000100186800F07EFA10BDC04614000010A8
:1038400070B50F4E0D0031680400002902D100F060
:1038500027FA30602900200000F022FA431C03D12F
:1038600001256D42280070BD0323C51C9D43A8425D
:10387000F8D0291A200000F013FA0130F2D1EFE756
:10388000EC000010F7B50322CB1C9343083305006E
:103890001F000C2B34D20C27B94233D8280000F07B
:1038A000EFF9374E33681C00002C2FD13900280067
:1038B000FFF7C6FF0400431C5FD134680094009BEF
:1038C000002B4AD1002C52D023682800E31800991D
:1038D000019300F0E5F9019B834248D12368280059
:1038E000FF1A3900FFF7ACFF013040D02368DB1925
:1038F000236033685A68002A33D1009B336019E093
:10390000002BC9DA0C232B600020FEBD2168C91BE7
:1039100020D40B290AD9E2192760A34204D13260CE
:1039200063681160536005E05A60F9E76268A3427A
:103930000ED13260280000F0ABF9200007220B30D6
:10394000231D9043C21A9842DFD01B1AA350DCE714
:103950005A60EFE723006468A6E7009C6368009361
:10396000ADE71A005B68A342FBD10023DAE70C2322
:1039700028002B6000F08CF9C6E70760DAE7C04644
:10398000F0000010002310B5040003604360836062
:1039900081814366C281036143618361190008220A
:1039A0005C3000F0BFF90B4B246263620A4BA362E8
:1039B0000A4BE3620A4B23630A4B9C4205D00A4B35
:1039C0009C4202D0094B9C4203D12000583000F0A9
:1039D000FCF910BDE53B0000113C0000493C000033
:1039E000753C0000F40000105C010010C4010010E0
:1039F00010B5034A0349044800F078F910BDC046E9
:103A000008000010E13F00001800001041680B4B57
:103A100010B50400994201D000F0E2FAA168084B09
:103A2000994202D0200000F0DBFAE168054B994290
:103A300002D0200000F0D4FA10BDC046F4000010FF
:103A40005C010010C40100104B6E10B5DB0705D4FB
:103A50008B899B0502D4886D00F0BBF9002010BD56
:103A60004B6E10B5DB0705D48B899B0502D4886D9E
:103A700000F0B5F9002010BD10B5094B094A04212A
:103A80001A6009480022FFF77DFF0122092107483B
:103A9000FFF778FF022212210548FFF773FF10BDE0
:103AA0002C020010F1390000F40000105C0100103D
:103AB000C401001010B5024800F08BF910BDC046DB
:103AC0003702001010B5024800F089F910BDC04659
:103AD00037020010F8B50700FFF7ECFF244B1B6816
:103AE000002B01D1FFF7C8FF224EB4687368013B79
:103AF0000FD53568002D38D1D62138004900FFF7A1
:103B0000C1FE041E26D13060FFF7DCFF0C233B60B2
:103B10001CE00C22A55E002D1AD12000164B583057
:103B2000E360656600F051F9FFF7CCFF2000082242
:103B300029002560A560656025616561A5615C302F
:103B400000F0F0F86563A563A564E5642000F8BDA6
:103B50006834CCE70423D022056043600C30290090
:103B6000A060520000F0DEF834603668BDE7C04661
:103B70002C020010080000100100FFFF10B5040027
:103B8000FFF798FF236A002B02D0FFF79BFF10BDC1
:103B9000044B2362044B1B68002BF6D1FFF76CFF2C
:103BA000F3E7C0460D3A00002C02001010B5FFF7F5
:103BB00081FF0020024A034900F098F810BDC0467A
:103BC00008000010493A000010B5044A04490020DA
:103BD00000F08CF8FFF776FF10BDC046080000101B
:103BE000613A000070B50C000E25495F00F050FAF4
:103BF000002803DB636D1B18636570BDA389024A4F
:103C00001340A381F9E7C046FFEFFFFF0020704794
:103C1000F8B51F008B8905000C001600DB0505D5E3
:103C20000E23C95E0022022300F01EFAA389054A72
:103C300028001340A38132000E23E15E3B0000F018
:103C400041F8F8BDFFEFFFFF70B50C000E25495F8E
:103C500000F00AFAA389421C03D1054A1340A3814C
:103C600070BD802252011343A3816065F8E7C0460E
:103C7000FFEFFFFF10B50E23C95E00F0B1F810BDD5
:103C800010B5024800F0A5F810BDC046340200107F
:103C900010B5024800F0A3F810BDC0463402001071
:103CA000002370B5064D040008002B6000F01CFADC
:103CB000431C03D12B68002B00D0236070BDC0468D
:103CC0003802001070B50400080011001A0000232B
:103CD000054D2B6000F016FA431C03D12B68002B16
:103CE00000D0236070BDC04638020010F7B5140044
:103CF000002600900191A5686768013F04D52468FB
:103D0000002CF8D13000FEBDAB89012B08D90E2262
:103D1000AB5E013304D029000098019B984706430D
:103D20006835EAE703008218934200D170471970A2
:103D30000133F9E770B505000C1E10D0043C236870
:103D4000002B00DAE4182800FFF79AFF1D4A1368D9
:103D5000002B05D1636014602800FFF799FF70BD48
:103D6000A34208D9206821188B42F3D119685B68F7
:103D700009182160EEE71A005B68002B01D0A3420E
:103D8000F9D911685018A0420BD1206809185018B1
:103D900011608342E0D118685B684118116053607C
:103DA000DAE7A04202D90C232B60D5E7206821185E
:103DB0008B4203D119685B68091821606360546005
:103DC000CAE7C046F0000010704770477047704760
:103DD0007047704701207047012070477047704757
:103DE000002370B5064D040008002B6000F064F954
:103DF000431C03D12B68002B00D0236070BDC0464C
:103E0000380200102E4B70B51B68040083424FD05F
:103E1000C369002B17D0DB68002B0DD00025E369A8
:103E2000DB685959002944D10435802DF7D1E36965
:103E30002000D968FFF77EFFE3691968002902D0E6
:103E40002000FFF777FF6169002902D02000FFF70B
:103E500071FFE169002902D02000FFF76BFF216BA1
:103E6000002902D02000FFF765FF616B002902D016
:103E70002000FFF75FFFA16B002902D02000FFF7B1
:103E800059FFA16C002902D02000FFF753FF616C9D
:103E9000002902D02000FFF74DFFE16A002902D07F
:103EA0002000FFF747FF236A002B01D0200098472E
:103EB00070BD0E682000FFF73DFF3100B2E7C0463D
:103EC00014000010F7B50C228B5E05000C001A07D9
:103ED00061D44A68002A02DC0A6C002A42DDE76AE3
:103EE000002F3FD0002280202E682A601A00400157
:103EF000216A0240034227D0626DA3895B0706D581
:103F00006368D21A636B002B01D0236CD21A002392
:103F10002800E76A216AB847431C25D00023636064
:103F200023692360A389DB0400D56065616B2E6083
:103F3000002917D023004433994202D02800FFF70C
:103F4000F9FE002363630DE001232800B847020057
:103F5000431CD2D12B68002BCFD01D2B01D0162BA8
:103F600031D12E60002035E02B680C21625E002BE1
:103F700008D01D2B01D0162B0AD1002363602369C2
:103F80002360D3E7636023692360D204CDD4CDE7F7
:103F9000402313431BE00E69002EE3D00F680E6030
:103FA000BA1B019200229B0700D14A69A260019BC3
:103FB000002BD7DDA36A32001F002800019B216A75
:103FC000B847002807DC4023A28913431BB2012015
:103FD000A3814042FEBD019B36181B1A0193E6E700
:103FE0000B6970B505000C00002B02D100252800DC
:103FF00070BD002804D0036A002B01D1FFF7BEFD7D
:104000000C22A35E002BF1D0626ED20704D49B0574
:1040100002D4A06DFFF7DDFE28002100FFF752FF5C
:10402000636E0500DB07E2D4A3899B05DFD4A06D96
:10403000FFF7D5FEDBE70000010010B5002805D131
:10404000054A06490648FFF751FE10BD054B1868A2
:10405000FFF7C6FFF9E7C04608000010E13F000087
:10406000180000101400001070B5040008001100C2
:104070001A000023054D2B6000F026F8431C03D1E5
:104080002B68002B00D0236070BDC04638020010A2
:1040900070B50400080011001A000023054D2B60C4
:1040A00000F01AF8431C03D12B68002B00D02360CA
:1040B00070BDC0463802001058220120014B40421A
:1040C0001A6070473802001058220120014B40420C
:1040D0001A6070473802001058220120014B4042FC
:1040E0001A60704738020010044A03001068002864
:1040F00002D0C318136070470148FAE73C02001071
:104100004002001058220120014B40421A607047C3
:1041100038020010FEE7C0463D400B4010402640EC
:1041200035400340064014400E400D4025401240EB
:1041300028400240184009400A4000000D0A0D0ABC
:104140000A0A4558504552494D454E542035202DB8
:10415000205041525420320D0A007E7E7E7E7E7EAB
:104160007E7E7E7E7E7E7E7E7E7E7E7E7E7E7E7E6F
:104170000A0A0A002320496E697469616C697A61D0
:1041800074696F6E0D0A0A0009202A5B494E464F7A
:104190005D3A204144432043616C696272617469F5
:1041A0006F6E20446F6E652E0D0A0009202A5B4950
:1041B0004E464F5D3A204144432043616C69627230
:1041C0006174696F6E204661696C65642E0D0A002A
:1041D00009202A5B494E464F5D3A20414443204323
:1041E0006F6E66696775726174696F6E20446F6E79
:1041F000652E0D0A0A0A005B494E464F5D3A204182
:104200004443204368202564202D3E2025640D0A68
:10421000005B494E464F5D3A2050574D204475741F
:10422000792050657263656E74202D3E2025640DE3
:104230000A005B494E464F5D3A20436F6E74726FC1
:104240006C6C657220496E707574202D3E2025645B
:104250000D0A0000C027090090051000C05C150081
:10426000F0B31A00200B2000009F2400E032290048
:10427000C0C62D0050973100E06735007038390016
:1042800000093D004016400080234300C030460036
:10429000FA64320A08071516060E0F1005151617D0
:1042A0003D400B401040264035400340064014403E
:1042B0000E400D4025401240284002401840094061
:1042C0000A40000000000000F8B5C046F8BC08BC79
:1042D0009E467047F8B5C046F8BC08BC9E4670477D
:0842E00020C0FF7F0100000077
:0442E8004909000080
:0442EC001D090000A8
:1042F00000000000001BB7000000000003000000E9
:10430000F40000101800001000000000F40000107D
:104310005C010010C401001000000000000000005B
:10432000000000000000000000000000000000008D
:10433000000000000000000000000000000000007D
:10434000000000000000000000000000000000006D
:044350000000000069
:040000030000038175
:00000001FF
