:10000000E01F0010351E00006D1E0000711E000074
:1000100000000000000000000000000000000000E0
:10002000000000000000000000000000751E00003D
:100030000000000000000000791E000081030000A5
:10004000811E0000851E0000891E00008D1E00001C
:10005000911E0000951E0000991E00009D1E0000CC
:10006000A11E0000A51E0000A91E0000AD1E00007C
:10007000B11E0000B51E0000B91E0000BD1E00002C
:10008000C11E0000C51E0000C91E0000CD1E0000DC
:10009000D11E0000D51E0000D91E0000DD1E00008C
:1000A000E11E0000E51E0000E91E0000ED1E00003C
:1000B000F11E0000F51E0000F91E0000FD1E0000EC
:0402FC00FFFFFFFF02
:10030000402292029A1A92467047C046174B002B21
:1003100000D1134B9D46FFF7F3FF00218B460F469C
:100320001348144A121A04F0D3FC0E4B002B00D0D1
:1003300098470D4B002B00D0984700200021040067
:100340000D000D48002802D00C4800E000BF04F06A
:1003500015FA2000290002F09DF804F0FBF9C046D0
:10036000000008000000000000000000E01F001076
:10037000740000106C02001000000000000000007B
:10038000034B1A68002A02D01A68013A1A607047B3
:1003900074000010024B18601A68002AFCD17047E4
:1003A0007400001070B50026144C86B001A9050039
:1003B00020008E80019600F093FE01230393104BE2
:1003C000200003A90593049600F0E6FE8023A268AE
:1003D0001B061343A3608023A268DB041343A360BE
:1003E0002A000021054800F043FF0028F8D029002A
:1003F000024800F017FF06B070BDC04600C00140C3
:1004000001000001962310B55B00041C984201D343
:10041000064B1C880421064BDA880A43DA80054A19
:100420009C52DA888A43DA8010BDC046CC52000064
:1004300000400050060200008022164BD2021968CC
:1004400015480A431A602022D9880A432C21DA80F1
:10045000124AFF319952124A3B399952C021083A47
:10046000FF3A89005A500431585004315A50C3227F
:100470000C4992009950A2220121D20099500A4AB7
:1004800049189950DA8802318A43DA809A888A4377
:100490009A807047004000501010000002020000D7
:1004A0000602000011100000140500008E23F7B5AD
:1004B0000125022100261A4C9B00E2586846AA43F7
:1004C000E250E258174F8A43E250174B1E606B46CA
:1004D0001E71164B009300F093FCC020800000F0CA
:1004E0007BFD0323FF223B60A36F93432B43A36752
:1004F00000F020FA03233B602300C822E4331E608F
:1005000004341D605A60E36F7F352B43E3672E216F
:100510000748AE3A00F0BCFDE36FAB43E367F7BDBD
:1005200000800440E0800440408004400087930342
:1005300000C000400422034B99681142FCD0D861EE
:100540007047C046004006408023074ADB01D16F58
:100550000B43D3670822054B1A60054B053A1A6214
:1005600002321A607047C046048004409480044000
:10057000004006407047030010B50800002B01D072
:10058000984710BD034A1368002BFAD0591C11601C
:100590001870F6E7A400001010B5034B010058686E
:1005A000FFF7E9FF10BDC046A4000010F0B50F0032
:1005B000160091B001903978002900D13BE125293E
:1005C00005D001370198FFF7D6FF3400CBE07978EA
:1005D000302916D10591B978FB1C002200922A29F6
:1005E0001BD000220A2002920A00303A1F00092A7A
:1005F0001CD8029A42435218303A197802920133B9
:10060000F2E72D2903D02022BB1C0592E5E720222A
:10061000B9780592FB1C1E3AE0E704CE002A02DA04
:10062000022152420091197802925F1C2E2972D148
:1006300039782A290DD000250A207B1C0A00303A7F
:100640001F00092A08D845436D18303D1978013339
:10065000F4E720CE797802376C2905D10423009A7B
:1006600039781A4300920137002900D1E3E0782954
:10067000A8D86E2952D863296FD060D8582900D1E4
:10068000AFE062299ED1009B5B0700D4BEE034003E
:10069000022508CC06930723782900D12723DBB253
:1006A0000793002303930698290001F00FFD069A93
:1006B000CBB20690092902D90799CB18DBB203996E
:1006C00003984E1C303308A94354AA4204D3202E69
:1006D00000D0A5E01F2303930122009B134204D006
:1006E0002D2308AA9355039E0236009B35009B07D5
:1006F00000D49CE0013E08ABF15C0198FFF73BFFA2
:10070000002EF7D1029BAB422DD920210198FFF793
:1007100032FF0135F6E701256D429DE708006F388D
:10072000092800D94EE701F041FC63004DFF4DFF61
:100730004DFF20004DFF6A004DFF4DFF5C00642916
:1007400000D03FE7340008CC0A25002BA2DA0122B2
:1007500000985B42104300909CE7340002CC019863
:10076000C9B2FFF708FF260025E7340008CC039341
:10077000002B01D1314B0393002D03DB049BAB42D3
:1007800000D904950226009B33401E00049B0133D0
:100790000093002E13D0039B5E19039B1978002948
:1007A00001D0B34216D1029B049A9342DBD9202197
:1007B0000198FFF7E0FE049B01330493F3E7049BE9
:1007C000029A9342E7D205990198FFF7D4FE009B65
:1007D0000493DBE7039B019801330393FFF7CBFE00
:1007E000DBE7009B5B0715D53400102508CC51E7EB
:1007F000009B5B0710D53400082508CC4AE7009B16
:10080000341D5B070AD50A25336843E70225340007
:1008100008CC3FE71025FAE70825F8E70A25F6E7B0
:10082000039640E705990198FFF7A5FE0135029B65
:10083000AB42F7D85EE711B0F0BDC0461D520000D4
:1008400070B505000C002178002900D170BD28008A
:100850000134FFF790FEF6E710B5034B010058682E
:10086000FFF7EEFF10BDC046A40000100FB407B59F
:10087000054B04AA02CA58680192FFF797FE03B01D
:1008800008BC04B01847C046A40000100EB403B55D
:1008900003AA02CA0192FFF789FE02B008BC03B0A6
:1008A00018470EB417B5084C05AA02CA20600020EC
:1008B0000192FFF77BFE002322682360137017BCB0
:1008C00008BC03B01847C046A4000010F8B5802348
:1008D000154CDB02E26F102713438022E367E36FBE
:1008E000124E134D1343E367280077640022012161
:1008F00000F0CEFB280037610422002100F0C8FB85
:10090000002380212800F3630122890100F0CFFB3E
:100910003023280073651B22212100F0B9FB8022BF
:10092000E36F9343E367F8BD048004400040044054
:1009300000C0004010B51E4C0020636ADB051B0F91
:10094000013B0E2B02D81B4A9B0098580322616A78
:10095000236F1340022B11D0934216D0012B24D1C8
:10096000206C10400338431E9841134B40421840FE
:10097000A16F01F025FB114C206010BD1F23194011
:100980000131490001F01CFBF2E7A268206C1F2135
:100990001840033843425841094B40421840064B27
:1009A0000A40C01801325043E2E70348E0E7C0467E
:1009B00000800440C4500000001BB700100000106D
:1009C00000E548FF704710B5044B054A9360054B9E
:1009D000054A1A60FFF7F6FF10BDC0460000000090
:1009E00000ED00E010000010001BB700431E70B5C2
:1009F0005B184D420C002B40984201D9002070BD7D
:100A000005225242521A9A42F8D3081DC01803F028
:100A1000D9FE0028F2D0033423181D40034A2B1FAF
:100A2000281A58801A802800E9E7C04639300000AB
:100A3000031F054A198810B5914203D15B88C01A7B
:100A400003F0CAFE10BDC046393000000A0010B5E0
:100A500000280BD00023190001F09CFE0023044A5B
:100A600001F082FC001C01380028FCD110BDC046FA
:100A700000093D004023044A10B5D16F0A200B4302
:100A8000D36700F0F9FA10BD0480044070B540242B
:100A9000104DEE6F3443EC67012494402200802413
:100AA0001E788D00A401002E04D145192B599343C3
:100AB0002B5170BD5B78002B09D18A231B01C9180B
:100AC00089000A504019035913430351F1E7882361
:100AD000F4E7C04604800440EFF3108172B60720AB
:100AE000064A136883431360054A03381369834336
:100AF000136130BF81F310887047C0460000024088
:100B000000ED00E010B5EFF3108172B607230C4C36
:100B100022689A43063B13438C222360094C9200BF
:100B2000A35883430420A350074B1A6902431A6158
:100B300030BF1A6982431A6181F3108810BDC04624
:100B4000000002400080044000ED00E010B5EFF32B
:100B5000108172B607230C4C22689A43053B13435D
:100B60008C222360094C9200A35883430420A35095
:100B7000074B1A6902431A6130BF1A6982431A612E
:100B800081F3108810BDC046000002400080044080
:100B900000ED00E0EFF3108172B60F230848026801
:100BA0009A430C3B134303600420064B1A6902432B
:100BB0001A6130BF1A6982431A6181F31088704745
:100BC0000000024000ED00E030B50E4A172811D9B0
:100BD000050001238121183DAB408900545823436F
:100BE0005350002805DB1F2318401E3B8340064A54
:100BF000136030BD0123852183408900545823436D
:100C00005350F0E70080044000E100E010B50028F8
:100C100009DB1F220123024093400B4AD367BFF335
:100C20004F8FBFF36F8F094B172808D98124A40079
:100C30001A591838012181408A431A5110BD852460
:100C4000A4001A59F6E7C04604E100E00080044021
:100C500003688B43036003680B4303600368194216
:100C6000FCD0704700487047001BB7008E23044A31
:100C70009B00D35800209B0601D4024B1868704794
:100C800000800440AC0000100A4B10B5186C032320
:100C90001840012807D0984208D043425841064BDB
:100CA0004042184010BDFFF7E1FFFBE7034B186817
:100CB000F8E7C04600800440001BB700AC000010FD
:100CC00010B50D4C0020236F032B06D8180001F03F
:100CD00063F910020508FFF7D7FF10BD074B5868EE
:100CE000FBE7FFF7D1FF1F22A368134001335843EE
:100CF000F3E70348F1E7C04600800440AC00001071
:100D0000001BB7000F4B10B51C680F4B00201B6871
:100D1000E4B2032B06D8180001F03EF912020C0FC2
:100D2000FFF7A4FF002C03D0210001F049F90400D3
:100D3000200010BD054B5868F4E7FFF7C1FFF1E74D
:100D40000348EFE7E8800440E0800440AC00001076
:100D5000001BB70010B5FFF7B3FF0A4BFF241A685A
:100D60001300234022420BD0074A010E12680002F2
:100D700022400132FF325A43002301F0F5FA03000A
:100D8000180010BD94800440F480044010B5FFF7B3
:100D9000E1FF10BD10B5FFF7DDFF10BD10B5FFF787
:100DA000D9FF10BD10B5072821D801F0F5F8060EBF
:100DB0002004111720140F4810BDFFF781FF0E4BC0
:100DC000996FC9B201F0FCF8F6E7FFF779FFF3E796
:100DD0000A4B1868F0E7094B5868EDE7FFF754FF36
:100DE0001F22054B9B68134001335843E4E7002062
:100DF000E2E7C046001BB70000800440AC000010D2
:100E00008E22802370B51F4C9200A15806000B4320
:100E10000321A350236C226C8B43134302791A489D
:100E200013432364FFF714FFFFF72EFF366801001A
:100E30000500300001F0C4F8144A0023964208D897
:100E4000134A0133964204D80023124AB2425B414E
:100E500002331F26A168421E32406036B1430A4366
:100E60005B0113438E228021A3609200A3588B4321
:100E7000A3500123E2681A42FCD06843064B9860F5
:100E800070BDC0460080044044800440802FA6040A
:100E9000C0175302E08B2901AC0000101821074A4B
:100EA00010B5D36A064C8B43D362E0220549520049
:100EB0008B5823408B50044B186010BD00400440F9
:100EC000FFFDFFFF00C00040AC0000101821104AD9
:100ED00010B5936B04008B439363E02240200D49CF
:100EE00052008B5883438B500B4BC03A196AFF3A20
:100EF0000A438E211A6289005A5820388243DA3018
:100F00005A5040000549FFF7A1FD054B1C6010BD7C
:100F10000040044000C000400080044080C3C9017C
:100F2000AC0000101821154B10B55A6B04008A4311
:100F30005A639A6BC0208A439A63E0221049520098
:100F40008B5883438B500F49BD380B6A0A6A834321
:100F500013430D4A1D30A2429241524252001343A4
:100F60008E220B6292008B588343DA308B50400004
:100F70000649FFF76BFD064B1C6010BD00400440A6
:100F800000C0004000800440C0E1E40080C3C9010B
:100F9000AC00001070B5F0250D4CC20C636A6D00FA
:100FA0005B0A2A405B021A43C23D4B08FF3D013BEE
:100FB0002B4013438E2263629200A3582135AB432A
:100FC0000002A350000A00F0FBFF024B586070BD06
:100FD00000800440AC00001010B503240949020A47
:100FE0000B6F23409A420BD0C0B2002808D10B6F80
:100FF0002240A34313430B6703480121FFF728FE58
:1010000010BDC0460080044074800440F8B5040060
:10101000FFF756FE114B06001B685C43211E1BD0D8
:101020000021A04218D3210000F0CAFF00210128AE
:1010300012D80B0022000D003400FF27A41A9D4196
:10104000074829020760200E0143200201F08CF9B5
:101050000121044B384018600800F8BD948004401A
:10106000F0800440F480044010B501210148FFF7EE
:10107000EFFD10BDE480044001228240034B59681B
:101080009143596059680A435A6070470080044090
:10109000032310B5FF240B40DB009C409A408908D5
:1010A000890040180168A1430A43026010BD002A6C
:1010B00007D0002904DBE022520083588B43835081
:1010C00070470029FCDBE0235B00C2581143C1508C
:1010D000F6E7890093B24018120D8018036070473C
:1010E00080230E4A10B5D46F5B042343D3670023DB
:1010F00043660A790B68DBB2002A02D08022D20054
:10110000134320220360C36E9343C3664B79C46EBE
:101110005B0113402343C36610BDC04604800440F6
:1011200010B50822002103F0D3FD10BD024A034987
:10113000D36F0B40D367704704800440FFFFFFFE6E
:10114000F8B50400FF27256823680800BB43236027
:101150000E4900F035FF26680138384030438026BC
:101160002060962023680A4AF6051340236023680E
:101170004000334323600749FFF768FC23680020E1
:101180002560334200D10120F8BDC04620A10700F0
:10119000FFFBFFFF80C3C901E0224B68D2011B03A4
:1011A00013400A681205120D13430A7A012A02D16C
:1011B0008022D20213434A7A002A02D080221203EC
:1011C0001343CA7A012A02D18022D20513438A7AB4
:1011D000002A02D080225205134383607047E02228
:1011E0004B68D2011B0313400A681205120D13430A
:1011F0000A7A012A02D18022D20213434A7A002AB3
:1012000002D0802212031343CA7A012A02D180221B
:10121000D20513438A7A002A02D080225205134352
:10122000C36070470322006903041B0D0B60030CAD
:1012300013400B71830C13404B7183001B0F8B60A9
:101240004300DB0FC00F0B73704703224069030498
:101250001B0D0B60030C13400B71830C13404B717F
:1012600083001B0F8B604300DB0FC00F0B737047B5
:10127000083189000858032103041B0D1360030C77
:101280000B401371830C0B40537183001B0F936051
:101290004300DB0FC00F13737047C046F7B500253E
:1012A00001270B4E0B4B34681B68234001933C42D3
:1012B00005D0094BAA00D358002B00D098476408EA
:1012C00002D00135082DF2D1019B3360F7BDC04635
:1012D000F4400050F0400050B80000108023264A2F
:1012E00070B50D00D16F5B000B430400D36708207D
:1012F000FFF7C2FE78210620AB782A78DB000B408E
:10130000697849000140F0200B43297A40014902E5
:10131000014013430B432360EB7869791B014901BA
:101320000B4304210B436360082361680B43636034
:10133000002A0FD12B79AA791B055205134380226D
:101340006168D2020B4313436360802362681B030E
:1013500013436360EB7900252365084C29002022A4
:10136000200025626562A562E56203F0B1FC044BD2
:101370002800236370BDC04604800440B8000010FC
:101380009D1200004268044B04491343044A436021
:10139000D36F0B40D367704704000400FFFEFFFFCC
:1013A0000480044010B5082204000021013003F03D
:1013B0008FFC012323700E33237210BDF7B5040098
:1013C0000800A030C000201840680F270190C120FD
:1013D000C326DD00651980002858B600384040302B
:1013E000AD598000005966683D400B3F3743676048
:1013F000632A1AD90127019EDB193A00DE408A4090
:10140000236D3E420FD0134323650230AD006519B2
:101410002B00FC335860802304229B00E850636853
:1014200093436360F7BD9343EEE70023190001F097
:10143000B1F96422002300F097FFE7E7F7B5040055
:1014400045481500066A08AA012012780193072E64
:101450001CD88B040F009B0F022B18D1F022019B8C
:1014600092009B01134032006032D2000B43A2185D
:1014700053600122384900204B6A9A4033006033A0
:10148000DB001A51099B1E6001360E62FEBD092168
:10149000D940014205D0019B9901F0239B001940DE
:1014A0000F4301239A4219D1236810001342EDD152
:1014B00029498A6A072AE9D89300E3181800ADB2CF
:1014C000FE3045808020800017431D52330060337A
:1014D000DB00E31801325F608A62CAE7022A26D184
:1014E000226818001A42D1D11B49CA6A072ACDD8EE
:1014F0003B00102713431F439300E3181800FE30EE
:1015000040882D042843AC461D00FC3568608020CF
:1015100080001D5A60460543802080001D50330026
:101520006033DB00E31801325F60CA62A1E7180094
:10153000042AABD122681A42A8D007498A6A072A2E
:10154000A4D89300E3181800FC3045608020800088
:1015500017431D50BAE7C046B8000010F0B51D0093
:10156000002387B004930593544B0E001B6A0400BC
:10157000023341680292082B02D9012007B0F0BD66
:101580004909C9B20C98013100F01AFD029B012BE8
:1015900008D162680F3313436360690000F010FDE7
:1015A000050006E0029B002BF7D1290000F008FDA2
:1015B000451EB278632A43D9AB1C039304278021CC
:1015C00004AB2A0001934901002320000097FFF794
:1015D00035FF802105AB0500019320000023039A0D
:1015E00000974901FFF72AFF2843C6D101221100C5
:1015F000049D6B46A94003911100A7681B7B3B43E8
:10160000A3600D9B17001D60059D3378A9400D0058
:1016100071789F408C46DE0091422ED10299284A73
:10162000002918D1236DA619BB432365A024E4002B
:10163000335903990B433351B3582B43B3509DE7B0
:1016400000232800190001F0A5F86422002300F00F
:101650008BFE0390B2E7216DA61939432165B1587D
:101660005B002943B15003219940626D8A43614672
:1016700099400B001343636580E7029900290BD161
:10168000236DA6193B4323650D4B0399F258114373
:10169000A022F150D200CFE7216DA619B943A027AF
:1016A0002165FF00F1595B00294303259D409A40C5
:1016B000F151616DA9430A4362655FE7B80000100C
:1016C00004050000064B10B55C6A0123C022A3404C
:1016D000C9004018920081580B43835010BDC0468A
:1016E000B8000010044A0120536A072B02D81B18C7
:1016F000002053627047C046B8000010014B586A82
:101700007047C046B800001070B501249440094EDF
:10171000CB00C3189D5922002543A0249D51E4000D
:101720001D5949002A431A5103238B40826D1343EC
:10173000836570BD04050000F7B50400204D0092DC
:10174000012901D004291CD1A96A0120072917D831
:1017500080278E00A619BF00F25B4C34944602002D
:101760009A4013006246884013439BB2F353238888
:1017700003439BB22380009B19600131A9620020C2
:10178000FEBDE96A01200729FAD880278E00A61934
:10179000BF00F25B019202009A401304094A88409C
:1017A0001340019A00041343F35123004C331B8868
:1017B0001843009BE06419600131E962DFE7C0462D
:1017C000B800001000F0FF0F014B920099507047D5
:1017D000B800001010B5024B02481B6B984710BDB3
:1017E000B800001000400050074A03000020934258
:1017F00008D0064A0130934204D0054A9818431E87
:10180000984102307047C0460040064000800640C4
:101810000040F9BF30B5448C018C0300A5B28AB2F8
:10182000081B8C4202D9DB69D218501B30BD8022C4
:10183000F0B50B6905000C0085B05200002B02D1F9
:101840008B69002B2BD06368AE6802936B69DBB2A7
:10185000019316425CD1F3073AD52369002B59D086
:10186000E368019A1A702369013B2361E36801333D
:10187000E3602369002B2BD1A369002B02D1022343
:10188000FF332B61230002222D331A70676A002F69
:101890001ED021002800A36A384AB84718E04968DA
:1018A000866802914169164212D0CAB2019203932E
:1018B0008023AA685B00676A1343AB60002F04D0E3
:1018C00021002800A36A2E4AB847039B002BC2D1EF
:1018D000029B002B1AD00422164217D023681B78D3
:1018E000EB616368013B63602368013323606368D5
:1018F000002B0BD12A6122002C321370666A002E55
:1019000004D021002800A36A1E4AB04705B0F0BDEC
:101910000123CCE7A369002BDAD02000FFF77AFF80
:10192000E369013B984207D1676A002F04D0210088
:101930002800A36A144AB8472000FFF76BFFE2694A
:10194000531E984205D1638C013393420DD100237D
:101950006384238CA2690199D154238CE2690133F9
:10196000934206D100232384B2E7638C01339BB2F8
:10197000EEE7238C01339BB2F5E7C0464716000023
:1019800049160000461600004A160000CB610023ED
:101990000B844B840223FF338A61C36070470B00C2
:1019A0002D331B78022B02D10223FF330361002366
:1019B0000B848B61CB614B847047082310B5826820
:1019C0001A42FCD001240368A3430360FFF70CFF15
:1019D0000349044A095CD36F8C40A343D36710BD0D
:1019E000005100000480044010B50C2204000021C6
:1019F000043003F06DF996239B0123600123E37209
:101A000010BDF0B5036887B005000C0001921B05FE
:101A100007D5100000F0D4FA01382862002007B082
:101A2000F0BD0A2301270F26019A7F4253430593F5
:101A30000B010093039602970099059800F0C0FAF5
:101A4000A02305381B03984213D20A2100F0B8FAEC
:101A5000731C411C59430490019800F0B1FA231AF9
:101A6000844200D2031B029A934202D2049F03963F
:101A70000293009B013E1B1B0093072EDCD18023A9
:101A80005B029F4203D2039BAB622F62C6E7014811
:101A9000C5E7C0464F160000F8B501260D0004004A
:101AA0001700FFF7A1FE3749CB6F31009C46364B3C
:101AB0001A5C033391400A0061460A433149185CBD
:101AC000CA67FFF7D9FA8020AB79297A2A7B4902C5
:101AD000DB030B4300019102014030200B43697A84
:101AE0009203090101400B43A97A1030890101409A
:101AF0000B43E97A3438890001400B438021C90146
:101B00000A4013436A7B8021824049010A40134303
:101B100029681E432660002906D1EB79002B0BD1E2
:101B200063681A4A13400BE03A002000FFF769FF90
:101B30000028F2D016481FE0802362685B00134340
:101B400063606B79002B0FD001232268134340227E
:101B500023606368934363602B79002B08D00123D3
:101B600022681343236006E0402362681343F2E7D0
:101B700063685B0601D40020F8BD0122236893430B
:101B8000F0E7C0460480044000510000FFFEFFFF64
:101B90004F160000042310B58A18914205D108237E
:101BA00082681A42FCD0002010BD84681C42FCD020
:101BB0000C780131C461F0E7F7B58B1801938023ED
:101BC000802680271B0201259C467600BF01019BD1
:101BD000994201D100201BE083682B42FCD082682F
:101BE00083681343836032421CD1140063463C4037
:101BF0001340520405D4002C0BD1002B0ED00A4800
:101C000006E0002C05D15A4253415800064BC0183B
:101C1000FEBD5A425341044A9818F9E743690B70D4
:101C20000131D4E70148F3E74B1600004E160000DF
:101C3000F8B50C001E001700FFF7D6FD3022050096
:101C40000021200003F044F8230002222D331A70F3
:101C50000022013B1A700A4BAA00D450094A67625D
:101C6000DA60094BA6625B57002B06DB1F2213408C
:101C70001E3A9A401300054A13600020F8BDC04682
:101C8000EC0000102F1800000651000000E100E0F9
:101C90000B0010B52C331C78012C0ED01468526840
:101CA0000C608A604A6001221A700423C360436892
:101CB0003F3293434360002010BD0148FCE7C0461B
:101CC000441600000423036142683C33134343601D
:101CD00000234B602C310B7070470B002C331B78AA
:101CE0000620002B04D048688B681B1A0020136064
:101CF0007047F7B517000A0001932D3213780600DC
:101D00000C00032B53D08B697D68002B44D001233A
:101D100003610800FFF77EFD0090002808D0A8426C
:101D200000D90095009BED1A0023009A93420DD133
:101D3000002D1ED10123656AF360002D26D1019B81
:101D4000002B01D0009A1A600020FEBD608CA269B1
:101D5000591C125C3868C254638CE06901338342B9
:101D600003D1002363840B00DFE7638C01339BB254
:101D7000F8E73B68009A9B18E3607B682561636124
:101D800003232D342370023BF360D8E72100300099
:101D9000A36A084AA847D2E739686561E160032170
:101DA000256111700222FF32C2600093C7E702482A
:101DB000CBE7C04647160000451600008B69002B94
:101DC00002D10223FF33036100230B612D31023363
:101DD0000B7070470B002D331B780620022B04D0AC
:101DE00008694B691B1A00201360704710B5034B3C
:101DF0000348DA681968904710BDC046EC0000102F
:101E00000040064010B5034B0348DA685968904714
:101E100010BDC046EC0000100080064010B5034B1A
:101E20000348DA689968904710BDC046EC0000107E
:101E300000C0064072B6074880470749074A084B6A
:101E40009B1A03DD043BC858D050FBDC62B6054842
:101E500080470000C70900009C53000000000010EC
:101E6000740000100D030000254800472548004776
:101E70002548004725480047254800472548004792
:101E80002548004725480047254800472548004782
:101E90002548004725480047254800472548004772
:101EA0002548004725480047254800472548004762
:101EB0002548004725480047254800472548004752
:101EC0002548004725480047254800472548004742
:101ED0002548004725480047254800472548004732
:101EE0002548004725480047254800472548004722
:101EF0002548004725480047254800472548004712
:101F0000691E00006D1E0000711E0000751E00009D
:101F1000791E000081030000691E0000691E000098
:101F2000691E0000ED1D0000051E00001D1E0000C2
:101F3000691E0000691E0000691E0000D517000020
:101F4000691E0000691E0000691E0000691E000075
:101F5000691E0000691E0000691E0000691E000065
:101F6000691E0000691E0000691E0000691E000055
:101F7000691E0000691E0000691E0000691E000045
:101F8000691E0000691E0000691E0000691E000035
:101F9000691E0000691E000002B47146490849002C
:101FA000095C49008E4402BC7047C04603B47146C8
:101FB000490840004900095E49008E4403BC70474F
:101FC000002243088B4274D303098B425FD3030A78
:101FD0008B4244D3030B8B4228D3030C8B420DD38B
:101FE000FF22090212BA030C8B4202D31212090219
:101FF00065D0030B8B4219D300E0090AC30B8B4257
:1020000001D3CB03C01A5241830B8B4201D38B0304
:10201000C01A5241430B8B4201D34B03C01A5241A9
:10202000030B8B4201D30B03C01A5241C30A8B42EC
:1020300001D3CB02C01A5241830A8B4201D38B02D7
:10204000C01A5241430A8B4201D34B02C01A52417B
:10205000030A8B4201D30B02C01A5241CDD2C309ED
:102060008B4201D3CB01C01A524183098B4201D369
:102070008B01C01A524143098B4201D34B01C01A54
:10208000524103098B4201D30B01C01A5241C308CC
:102090008B4201D3CB00C01A524183088B4201D33B
:1020A0008B00C01A524143088B4201D34B00C01A27
:1020B0005241411A00D20146524110467047FFE793
:1020C00001B5002000F0F0F802BDC0460029F7D0AD
:1020D00076E7704703460B437FD4002243088B42C8
:1020E00074D303098B425FD3030A8B4244D3030B9F
:1020F0008B4228D3030C8B420DD3FF22090212BA64
:10210000030C8B4202D31212090265D0030B8B42DF
:1021100019D300E0090AC30B8B4201D3CB03C01AC9
:102120005241830B8B4201D38B03C01A5241430BA4
:102130008B4201D34B03C01A5241030B8B4201D394
:102140000B03C01A5241C30A8B4201D3CB02C01AFF
:102150005241830A8B4201D38B02C01A5241430A77
:102160008B4201D34B02C01A5241030A8B4201D366
:102170000B02C01A5241CDD2C3098B4201D3CB010D
:10218000C01A524183098B4201D38B01C01A5241BC
:1021900043098B4201D34B01C01A524103098B42C0
:1021A00001D30B01C01A5241C3088B4201D3CB00AB
:1021B000C01A524183088B4201D38B00C01A52418E
:1021C00043088B4201D34B00C01A5241411A00D23E
:1021D00001465241104670475DE0CA0F00D04942A7
:1021E000031000D34042534000229C4603098B4217
:1021F0002DD3030A8B4212D3FC22890112BA030A9F
:102200008B420CD3890192118B4208D38901921120
:102210008B4204D389013AD0921100E08909C309A5
:102220008B4201D3CB01C01A524183098B4201D3A7
:102230008B01C01A524143098B4201D34B01C01A92
:10224000524103098B4201D30B01C01A5241C3080A
:102250008B4201D3CB00C01A524183088B4201D379
:102260008B00C01A5241D9D243088B4201D34B0094
:10227000C01A5241411A00D20146634652415B10D6
:10228000104601D34042002B00D5494270476346B7
:102290005B1000D3404201B5002000F005F802BDFC
:1022A0000029F8D016E770477047C04684460800FA
:1022B0006146FFE71FB500F0BFFE002801D40021F2
:1022C000C8421FBD10B500F03FFE4042013010BDB6
:1022D00010B500F0B1FE002801DB002010BD012088
:1022E00010BDC04610B500F0A7FE002801DD00209B
:1022F00010BD012010BDC04610B500F04DFE0028F5
:1023000001DC002010BD012010BDC04610B500F05A
:1023100043FE002801DA002010BD012010BDC04698
:10232000002B15D1002A13D1002906DB01DC00287F
:1023300006D00020C043410802E0802109060020A9
:1023400007B4024801A14018029003BD5DFFFFFFE2
:1023500003B4684601B5029800F02EFB019B9E462F
:1023600002B00CBC7047C046002B11D1002A0FD11F
:10237000002900D1002802D00021C943080007B479
:10238000024802A14018029003BDC0461DFFFFFF96
:1023900003B4684601B5029800F042FA019B9E46DC
:1023A00002B00CBC7047C0461C2101231B0498429C
:1023B00001D3000C10391B0A984201D3000A0839D6
:1023C0001B09984201D30009043902A2105C40188D
:1023D0007047C04604030202010101010000000031
:1023E0000000000010B5002903D1FFF7DDFF203009
:1023F00002E00800FFF7D8FF10BDC0460448054BB7
:1024000010B5834203D0044B002B00D0984710BD79
:102410007400001074000010000000000648074916
:10242000091A8B10C90FC91810B5491003D0044BF5
:10243000002B00D0984710BD7400001074000010ED
:102440000000000010B5074C2378002B09D1FFF7DE
:10245000D5FF054B002B02D0044800E000BF01234C
:10246000237010BDFC00001000000000705300003D
:10247000054B10B5002B03D00449054800E000BF10
:10248000FFF7CCFF10BDC0460000000000010010A7
:1024900070530000F0B58BB0FEF718FAFEF706F89F
:1024A000FEF752F89B4B9C4A9C481A60FEF7DEF9F7
:1024B0009B48FEF7DBF99B48FEF7D8F99A48FEF7F0
:1024C000D5F98023994C5B00E26F80251343E367C5
:1024D000FDF7B2FF8E221021E36F6D04944E2B4363
:1024E000E3679200B3588B43FA21B350914B8900B4
:1024F0001868FFF765FD0138A84200D3FEE0C0214F
:102500008D4A090650608D48036A1B021B0A0B4363
:10251000036200239360073313600320FEF742FC3D
:1025200001008748FEF70CFE06A8FDF73BFF854C2F
:10253000A388C72B01D90023A380A388632B00D9CC
:10254000DDE00023A36080237D4ADB0491680B4318
:10255000936000217A4806AAFEF78AFE0028F8D088
:10256000069B00936B460020185E774BC01801F065
:10257000B3F801F029FF754A754B01F05DFC01F0DD
:102580006BFF704D011CE860A86800F0E1FE714F20
:1025900028613968061C00F09DFDAB6968610193F4
:1025A0007B6801990490301C029300F0D1FE0299DF
:1025B00000F0AAFBB96800F08DFDF968E8610590AC
:1025C000029800F087FD01F0FFFE0290039101994F
:1025D000301C00F00FFA01F0F7FE00225E4B01F014
:1025E0002BFC02000B000298039901F025FC060069
:1025F000286A0F0001F0E8FE02000B0030003900ED
:1026000001F0B6F801F028FF0599051C049800F0C8
:10261000F1F9291C00F0EEF95049061CFFF758FEAD
:10262000002873D14E49301CFFF766FE00286FD199
:102630004B496562A662301C00F0DCF9494900F0A4
:1026400049FD00F0D5F8009A0899A0854648FEF7A4
:102650000DF94649A06800F03DFD01F01DF801B2FA
:102660004348FEF703F94149E06800F033FD01F00B
:1026700013F801B23F48FEF7F9F83C49206900F031
:1026800029FD01F009F801B23B48FEF7EFF8A06A16
:1026900001F002F801B23948FEF7E8F8A18D384898
:1026A000FEF7E4F83749606900F014FD00F0F4FF2C
:1026B00001B23548FEF7DAF83249606A00F00AFDE7
:1026C00000F0EAFF01B23148FEF7D0F82D49E06989
:1026D00000F000FD00F0E0FF01B22D48FEF7C6F863
:1026E000A08DFDF78FFE23690A20A361636A236230
:1026F000A3880133A380FDF74DFE18E7FEE7643B96
:10270000632B00D91FE7FE239B051BE7134E8FE7C2
:10271000134E8DE7A800001035050000965100000B
:1027200030510000555100007351000004800440F6
:10273000008004401000001010E000E000ED00E018
:1027400000C001407400001001F8FFFF51FA42C8B8
:1027500079FF4F3F000000100000E03F0000C8C1BB
:102760000000C8410000C0409B5100000000C8426A
:10277000B5510000D8510000FB5100001E5200006E
:102780003452000000002041535200007D520000EE
:10279000A3520000F0B5CE469946030C9C461304A4
:1027A00047461B0C1D000E0061460404240C80B536
:1027B0000700100C4B436543414360432C0CC01889
:1027C00024188C46A34203D980235B029846C44454
:1027D000494679435643230C2D042D0C8919634433
:1027E00024046019C918C0BCB946B046F0BDC04643
:1027F0009E2110B5C905041CFFF788FD002803D1F0
:10280000201C00F049FF10BD9E21201CC90500F0CE
:102810009FFD00F041FF80231B069C466044F2E7C9
:10282000F0B557464E464546DE46E0B504000D007D
:102830009246994683B08B4230D82DD049465046B7
:10284000FFF7D0FD290006002000FFF7CBFD331A6B
:102850009846203B34D49B4653465A4693404246C2
:102860001F00534693401E00AF423BD8AF4200D1F9
:1028700079E05B46A41BBD41002B00DA76E0002224
:1028800000230092019301235A46934001930123B0
:1028900042469340009329E08242CFD90022002390
:1028A000009201930C9B002B01D01C605D6000988E
:1028B000019903B0F0BCBB46B246A946A046F0BDA4
:1028C00042469B4620239B1A5246DA40414613005B
:1028D0004A468A40170042461F43534693401E0013
:1028E000AF42C3D900220023009201934346002B3C
:1028F000D8D0FB0772081A4346467B080EE0AB426D
:1029000001D1A2420CD8A41A9D41012024196D4185
:102910000021013E24184D41002E06D0AB42EED9D5
:10292000013E24196D41002EF8D1009801995B46B3
:1029300000196941002B24DB2B005A464446D34042
:102940002A00E2401C005B461500002B2ADB260013
:102950009E40330026004746BE403200801A99410F
:10296000009001919EE7A342BCD882E74246202313
:1029700000219B1A0022009101920122DA4001926B
:1029800085E7424620239B1A2A0046469A402300A8
:10299000F340444613432A00E2401C005B46150006
:1029A000002BD4DA42462F002023260097409B1AA2
:1029B000DE403B003343CDE7F8B5CE46474680B511
:1029C0009146984604000D0001F0D2FD07000E006C
:1029D00002000B0048464146FFF7DCFE241A8D41F9
:1029E000089B380031001C605D60C0BCB946B04631
:1029F000F8BDC046F8B5CE46474643025A0A4E02D5
:102A00004500C40F480091462D0E720A000E9446F0
:102A100080B59B09C90FB6092A1A8C4221D0002A19
:102A20000DDD00282DD1002E00D18DE0511E012A90
:102A300000D11DE1FF2A00D1ABE00A0027E0002A07
:102A40004DD0421B002D00D0CCE0002B00D179E00E
:102A5000541E012A00D128E1FF2A00D197E022006C
:102A6000C5E0002A00DC96E000284FD0FF2D00D101
:102A70008FE08021C9040E431B2A51DD2A00013357
:102A800018E0FF2D00D184E08021C9040E4301210C
:102A90001B2A08DC31002020D140821A96403200E7
:102AA000501E824111435B1A5A0159D407212A0052
:102AB000194049D00F211940042900D0043359018D
:102AC00042D5501CFE2A3AD09B01C0B25B0AC00519
:102AD0001843E4072043C0BCB946B046F8BDFE2009
:102AE00080466F1C38004746074200D08EE0002D1C
:102AF00000D0B4E0002B00D1DBE0002E6CD0981B9E
:102B0000450100D4F7E00C00F31A3DE0002E1BD085
:102B1000511E012A00D182E0FF2A3AD00A00ABE719
:102B200031002020D140821A96403200501E82414E
:102B30000A439B185A01B9D56A1CFE2D75D1FF2096
:102B40000023C4E70C003300DB08FF2A46D1002B2A
:102B5000F5D08022D20313435B02FF205B0AB6E765
:102B60009F01BF093800FFF71FFC053887408542E9
:102B700024DC3B002021421B0132D3408A1A9740BB
:102B80007A1E974100223B43590793D197E70C00E7
:102B90003300DB08DBE7002A14D0421B002D4BD1A9
:102BA000002BD0D0511E012A00D19EE0FF2AEFD089
:102BB0000A001B2A5FDD0200731C7BE7504B2A1AB8
:102BC0003B40E1E7FE216A1C11423BD1002D5DD163
:102BD000002B7FD0002E7FD10022DB085B025B0A36
:102BE000D0B274E7FF28D2D08024E4042343012428
:102BF0001B2A07DC1C002025D440AA1A93405A1E29
:102C000093411C43331B05000C004DE79F1B7A01C9
:102C100022D4002FA6D100240020002357E79B19BF
:102C200001250132590100D440E7012135481940FE
:102C30005B0803400B43A7E7FF28A9D08021C90404
:102C40000B43B6E7FF2A00D179E79B195B085907C8
:102C500000D02FE7DB08C1E70C00F71A82E7002B52
:102C60002CD1002E93D180230024FF20DB032EE7FC
:102C700001259B1B18E719002025D140AA1A934073
:102C80005A1E93410B4305009B1953E7002B00D1BB
:102C90007EE7002E00D17CE78022D203914502D34B
:102CA000944500D23300DB0853E70C00F31A0135DA
:102CB000FAE6002EAFD00C0033008DE7002E00D1D5
:102CC00067E78022D2039145EDD39445EBD20C0007
:102CD0003300E8E733007FE79B1900225901B9D59B
:102CE000074A1340DB08012278E79B1901320135BE
:102CF00059019AD4DAE6031E8DD0DB086EE7C04690
:102D0000FFFFFFFBFFFFFF7DF0B54F464646D6466F
:102D10004402C0B547000E1C640A3F0EC50F002FC9
:102D20003CD0FF2F42D00023802299469A46E400EF
:102D3000D20414437F3F73025B0A984673001B0E54
:102D4000F60F002B1BD0FF2B13D042468021D20060
:102D5000C9041143884600207F3B2900FF1A4B46D7
:102D60007140C9B20F2B00D9B5E0744A9B00D3580B
:102D70009F464346002B3FD1FF3F023303E04346CB
:102D8000002B2DD1012329004A467140C9B21A43B4
:102D90000E2A38D86A48920082589746002C13D1E0
:102DA00004239946033B00279A46C4E7002C05D12B
:102DB00008239946063BFF279A46BCE70C23994611
:102DC000093BFF279A46B6E72000FFF7EDFA762782
:102DD000431F9C4000237F4299469A463F1AAAE728
:102DE0004046FFF7E1FA4246431F9A4076235B4292
:102DF0001B1A90460020B0E703234A461A43914627
:102E00000320FC33A9E70D00FF200022C005ED07D9
:102E100010432843E0BCBA46B146A846F0BD0D00B9
:102E200000200022F2E75346022BEDD0032B33D0D3
:102E3000A046012B05D100200022E7E7350003283A
:102E40007AD03B007F33002B2DDD4246520707D05E
:102E50000F2241460A40042A02D004229446E0444C
:102E60004246120105D54246364B1A403B00904679
:102E70008033FE2BC8DC42469201520AD8B2C5E725
:102E800080220025FF20D203C0E78022D203144213
:102E900002D04346134249D08022D2032243520239
:102EA000FF20520AB2E70122D31A1B2BC3DC424691
:102EB000DA4043469E37BB40591E8B411A435307A5
:102EC00004D00F231340042B00D00432530129D522
:102ED000012000229AE7424663015501AB4215D218
:102EE0001B200022013F01261C0052005B00002C29
:102EF00001DB9D4201D85B1B324301380028F3D12E
:102F0000581E8341134398460D009AE71A20012268
:102F10005B1BE8E7023B5A4253415B42350000220B
:102F2000D8B273E792010020520A6FE71A435202A7
:102F30003500FF20520A69E74446ADE7D052000051
:102F400010530000FFFFFFF770B542004E024C0027
:102F500045026D0A120EC30F760A240EC90FFF2A0E
:102F600010D0FF2C0CD00120A2420AD1B54208D1CA
:102F70008B420FD0002A04D12800431E984100E064
:102F8000012070BD0120FF2CFBD13543F9D14B400E
:102F90001800F6E70020F4E730B5420044024D0285
:102FA000C30F4800640A120E6D0A000EC90FFF2AF3
:102FB00019D0FF280BD0002A1ED100280BD1002DDC
:102FC00027D0002C34D100292FD0080030BD002D8F
:102FD00028D1002A01D1002CF5D08B4207D1002B3B
:102FE00023D01800F2E7002C1CD1FF2814D0581E63
:102FF000022318400138E9E70028F8D08B42F6D1C7
:103000008242F4DCEBDBAC42F1D80020AC42DDD2F2
:10301000E5E7002CDAD0EAE7002D03D18B42E6D1B8
:103020000020D3E702204042D0E701204042CDE714
:103030008B42E8D0DBE7C04630B5420044024D0287
:10304000C30F4800640A120E6D0A000EC90FFF2A52
:103050001AD0FF280ED0002A1ED100280ED1002D34
:103060002AD0002C0CD08B421DD0581E02231840B1
:10307000013810E0002D0DD1002A20D1002C1ED1E6
:10308000002923D0080006E0002C03D1FF28ECD152
:10309000002D17D0022030BD0028E6D08B42E4D1AD
:1030A0008242E2DC04DBAC42DFD80020AC42F2D248
:1030B000002B0BD01800EEE7002CECD0D5E78B42AC
:1030C000D3D1F5E700208B42E5D0CEE70120404286
:1030D000E1E7C046F0B54F464646D64643025B0A96
:1030E0004500C0B599460F1C2D0EC60F002D00D10E
:1030F00088E0FF2D00D18DE08022DB00D2041A434E
:103100000023914698469A467F3D7C027B00640AE4
:103110001B0EFF0F002B68D0FF2B21D08022E40074
:10312000D204144342467F3B5B1900215D1C0A2AEE
:103130002EDC7E404246022A23DC013A012A00D9D5
:10314000BDE002296ED001292CD100200022C0054B
:10315000F60710433043E0BCBA46B146A846F0BD7E
:103160002B00FF33002C65D003224146114332006F
:10317000013588467A40FF350A2900DDD8E016007F
:103180000321404601228240A620C000024220D0F6
:103190005346022B46D0032B00D1BBE051464C4690
:1031A0000129D2D02B007F33002B70DD620704D0C1
:1031B0000F222240042A00D00434220103D5634B9D
:1031C0001C402B008033FE2B2CDCA201520AD8B20B
:1031D000BDE790208000024227D1B938FF38104265
:1031E0006DD03E00A1468A46D2E7002C41D1012392
:1031F00042461A4390462B00424601215D1C0A2A92
:1032000097DDC5E7002B26D104239846033B002514
:103210009A467AE7002B18D108239846063BFF25EB
:103220009A4672E7FF20002291E780220026FF20C5
:10323000D2038CE741460222013511438846FF350F
:103240000A29A5DC02217E4074E70C239846093B3D
:10325000FF259A4659E71800FFF7A6F84A46431F8C
:1032600076259A4000236D42914698469A462D1A3B
:103270004BE72000FFF798F84246431F9C402B1A6B
:10328000763B00215D1C0A2A00DC52E780E7012220
:10329000D31A1B2B00DD58E79E352200AC40DA40E4
:1032A000631E9C412243530704D00F231340042B79
:1032B00000D00432530137D50120002247E7210C0A
:1032C0004A462404240C2700100C1204120C444318
:1032D0005743484351433A0C09195218944203D9B1
:1032E000802149028C4660443F0411043F0CC919F7
:1032F0008C01671EBC41120C890E12180C439201FE
:10330000144312010ED5012362081C40144349E7FF
:103310003E00A14680224B46D2031A435202FF20B0
:10332000520A14E71D003DE792010020520A0EE701
:103330000F29EDD180224B46D2031342EAD014422A
:10334000E8D13E00FF20224301E7C046FFFFFFF720
:10335000F8B54746CE464E0243024500720AC40FF6
:10336000480080B594465F0A2D0E9B09000EC90FD8
:10337000B609FF2824D0012251402A1A8C420FD0CE
:10338000002A00DC6AE1002835D1002E00D1A2E03D
:10339000511E012A00D124E1FF2A21D00A002FE08A
:1033A000002A00DC67E100285ED0FF2D18D08021C4
:1033B000C9040E431B2A00DC76E02A00013332E008
:1033C0002A00FF3A9146002E42D08C4255D04A4600
:1033D000002A00D19CE0002D00D177E00C003300E2
:1033E000DB08002B00D16EE08022D20313435B0286
:1033F000FF205B0A24E0FF2DF2D08021C9040E4398
:1034000001211B2A08DC31002020D140821A96407D
:103410003200501E824111435B1A5A0160D40721C9
:103420002A00194057D00F211940042900D0043335
:10343000590150D5501CFE2A45D09B01C0B25B0AF1
:10344000C0051843E4072043C0BCB946B046F8BDE8
:10345000012251408C42BAD14A46002A10D0002D98
:1034600000D198E00023BBE7002E34D0511E012A82
:103470006ED0FF2AB4D00A009CE7002A00D088E072
:10348000FE206A1C104200D092E0002D00D0A4E083
:10349000002B00D1CBE0002E00D0CAE00022DB08D8
:1034A0005B025B0AD0B2CBE731002020D140821A08
:1034B00096403200501E82410A439B185A01AED5F5
:1034C0006A1CFE2D4AD1FF200023B9E7FF22002B02
:1034D0004BD10C003300DB08FF2A00D181E7DFE786
:1034E0009F01BF093800FEF75FFF0538874085421E
:1034F00021DC3B002021421B0132D3408A1A974035
:103500007A1E974100223B43590700D08BE78FE793
:10351000FE206A1C104212D1002D52D1002B7CD00B
:10352000002EBBD09A1B500100D48BE00124002256
:10353000F31A0C40E8E7564B2A1A3B40E4E79F1B7E
:103540007A0146D4002FCDD100240020002377E754
:103550009B1901250132590100D460E701214D4832
:1035600019405B0803400B43CEE7571E012A5AD08F
:103570000C00FF2A33D001221B2F07DC2021C91B9E
:103580001A008B40FA40591E8B411A430500B31AAA
:1035900043E7002D23D1FF22002B9BD0511E012A8F
:1035A000D6D0FF2A1BD01B292CDD0200731C3AE762
:1035B000FF2A88D09B195B08590700D033E7DB0846
:1035C0006EE7002B10D1002E43D0012433000C40B5
:1035D00006E70124F71A0C4084E7002B04D13300DE
:1035E000FEE601259B1B18E7002E00D1F8E680229D
:1035F000D203974204D3944502D2012433000C40F5
:10360000DB08F1E61A002025CA40691A8B40591ED2
:103610008B41134305009B1950E7002E94D00124E1
:1036200033000C403AE70C000125F31AF5E63300AD
:1036300034E79B1900225901C1D5154A1340DB0814
:1036400001222DE7002A00D17EE713000022DB08CB
:1036500026E780230024FF20DB03F1E6002A00D1C7
:1036600056E7471B3A00002D00D130E78022D204F4
:103670000C0013437FE7002A00D101E7411B002D16
:1036800001D10A0088E78022D20413438BE7C046A9
:10369000FFFFFFFBFFFFFF7D41024200C30F490A0E
:1036A0000020120E7E2A03DD9D2A02DD094A9818A9
:1036B0007047802000040143952A07DC9620821A77
:1036C000D1404842002BF3D10800F1E7963A9140EF
:1036D000F7E7C046FFFFFF7F70B5002813D0C31780
:1036E000C5185D40C40F2800FEF75EFE9E23010052
:1036F0001B1A962B0FDC082834D008398D406D0238
:103700006D0AD8B202E0002400200025C00528433D
:10371000E407204370BD992B16DC421F052800D01A
:1037200095402A00114802406E0709D00F26354007
:10373000042D05D00432550102D59F2302405B1AA7
:103740009201550AD8B2E1E70522121A2800D040AA
:10375000020008001B3085402800451EA841024396
:103760001500DEE76D0296206D0ACFE7FFFFFFFB35
:10377000F0B557464E464546DE46E0B583B000906C
:1037800001910C034F00CE0F610A009C1D03640FD2
:103790000C43009900920193C80059004B0D9946C3
:1037A000009A019B6D0AD90F530F2B439A46009B39
:1037B0007F0DDA0094464A46B046BA1A8E4200D1CE
:1037C000B0E0002A00DC78E04946002900D1E9E0B9
:1037D000C9498F4200D195E10125382A16DC8021A4
:1037E000534609040B439A461F2A00DDE7E12021D6
:1037F00055468B1A61469D40D1400D436146994024
:103800004B1E99415346D3400D43E41A451BA84231
:1038100080414042241A230200D40FE16402640A6A
:10382000002C00D139E12000FEF7BEFD0300083B6B
:1038300020212800CA1AD0409C4002009D4022430B
:103840009F4200DD73E1D81B0130091A2C008D4026
:10385000C4406B1E9D411300C2408B40254300278E
:1038600014001D436B0709D00F232B40042B05D0F8
:103870002B1DAB42AD416D4264191D00230200D4E3
:103880002DE19D4A0137974200D1D3E046469B493E
:10389000ED0821404A072A437C054D022D0B640D9B
:1038A00024052C43F60734431000210003B0F0BC7C
:1038B000BB46B246A946A046F0BD002A00D184E02E
:1038C0004A46D21B002F00D06DE12500054300D1F0
:1038D00027E1561E012A00D13BE2874DAA4200D1C2
:1038E0006AE20125382E12DC32001F2A00DDF8E1E1
:1038F00020262500B61A07005346B040D440B540F4
:10390000D740461EB0411B1B9A463D4305436246C5
:10391000551BAC459241534652420E004F468846D5
:103920009C1A78E7002A00DC8EE04946002975D110
:1039300061465346194300D1F6E0511E012A00D1D9
:1039400091E16D4DAA4200D1DCE00125382914DC5B
:103950000A001F2A00DDA2E120215346891A8B406C
:103960001D006346D3401D4363468B4019004B1E28
:1039700099415346D3400D43E4182D1885428041A8
:1039800040422418230259D55B4B01379F4251D046
:1039900001215A4B6A081C4029400A43E507154398
:1039A00064085FE761465346194300D1BCE0511EED
:1039B000012A00D164E1504DAA4200D16AE10125FB
:1039C000382900DD22E70A000EE74D4A7D1C15422A
:1039D00000D0D0E025006246534605431A43002F2D
:1039E00000D037E1002D00D1A8E1002A00D16AE122
:1039F0006346C51A5346E21AA8429B415B42D31A5A
:103A00001A0200D403E263461D1AAC4592415346A4
:103A100052421C1B0E008846A41A23E736498F42E7
:103A200070D00125382AA8DC8021534609040B43B5
:103A30009A468EE73C000025002231E707232B4001
:103A4000002B00D010E793E0002A74D04A46D21B26
:103A5000002F00D1C7E02849894500D185E1012523
:103A6000382A12DC802109040C431F2A00DDABE157
:103A700020212500891A070088408D40D740411E2B
:103A80008841D4403D430543A24465446545924185
:103A90005242524414004F4674E72800FEF784FC5B
:103AA000030018331F2B00DCC2E62A0008388240CE
:103AB0009F4200DDA9E0DB1B581C1F2800DCACE1A5
:103AC00015001F3BDD40202805D040231B1A9A40DB
:103AD000531E9A411543072300272B40B0E7ED08FA
:103AE000054B62072A43E4089F420FD02403250BAD
:103AF0007C05640DD4E6C046FF070000FFFF7FFF92
:103B0000FE070000C00862070243E40813002343D5
:103B100000D186E180252D0325432D03C34C2D0BB9
:103B2000BEE6604654460E001700C508D8E7C04CF4
:103B3000FF1A144096E6BF4A791C11426BD122004D
:103B40000243002F00D0DBE0002A00D12DE16246C5
:103B500053461A4300D1B6E06346C51885428041FA
:103B6000544440422418230202D50F00B04B1C409D
:103B70003A002800D8E76246851AA8429241534687
:103B800052429146E31A1A004B46D21A130091464C
:103B90001A0254D44A464C462A4300D040E6002636
:103BA000002400257CE6A14DA94500D190E0012527
:103BB000382A00DDABE680252D042C4395E6110064
:103BC00055462039CD40A946202A06D040215346EB
:103BD0008A1A934062461A43944665466B1E9D417D
:103BE0004B461D4312E62100014300D1C4E0511EA3
:103BF000012A00D1FBE08D4DAA4200D1B5E001259C
:103C0000382900DD41E70A002FE7894CFF1A1440EC
:103C10006207E4086AE7854A914200D1E3E063461F
:103C2000C218824280412300404253441B18DD07E2
:103C30005C080723520815430F002B4000E763463A
:103C40001D1AAC459241534652421C1B0E00884639
:103C5000A41AE5E5002D00D091E0002A38D1802497
:103C60000026240356E76346C51885428041544424
:103C7000404224180127230200D4DFE6022787E60A
:103C80006346C51AA842804153464042E41A0127C0
:103C9000241AC0E56207C0080243E40836E71100B1
:103CA00053462039CB409946202A06D0402153461E
:103CB0008A1A934062461A43944665466B1E9D419C
:103CC0004B461D4359E66207C0080243E4080DE76E
:103CD00053465A076346D80853460E000243DC0891
:103CE00014E715002600203DEE40202A03D0402591
:103CF000AA1A94402043421E90410500354306E62F
:103D0000002A7CD062465346C0081A4300D1FAE626
:103D1000620710438022E4081203144208D0D90835
:103D2000114205D16346D80853460C005B0718437F
:103D3000420FC000C00852070243E7E6002A00D144
:103D40002DE76346D80853465A070E000243DC08A5
:103D5000CCE663461D1AAC459241534652421C1BA9
:103D60000E008846A41A013755E56346D908534624
:103D70005A070A43DC08C9E660465446D4E6C00840
:103D8000002A00D1BFE6620710438022E408120334
:103D90001442CDD0DD081542CAD16346D808534637
:103DA0005B070E002C001843C2E76346D908534650
:103DB0005A070A43DC0899E66346D80853465A076F
:103DC0000E000243DC08A1E6110027002039CF4095
:103DD000202A03D040218A1A94402043421E904159
:103DE00005003D4351E60C000025002258E56044E3
:103DF00060459241544452420500A4183AE75346A4
:103E00005A076346D90853460A43DC087EE61A007F
:103E10001C002A4300D0ABE6C1E620210025091A88
:103E200019E500220025014C3AE5C046FF070000D5
:103E3000FFFF7FFFFE070000F0B55746DE464E4607
:103E40004546E0B51F000B031B0B16009A46CA0F30
:103E50004B000400934687B05B0D00D1D5E0BB4A10
:103E6000934200D1F8E05146420FC9000A43802135
:103E700009041143C2009146B54A8A469D180023A1
:103E8000984602933C037B00FA0F3000240B5B0D35
:103E9000009200D196E0AD4A934231D0720FE40017
:103EA0002243802424041443A94AF0009446634426
:103EB0005B195A1C0192424600260A2A42DC5A46E5
:103EC00000994A4093464246022A32DC013A012ACE
:103ED00000D949E1022E00D1CAE0012E3DD10023D4
:103EE0000024002210005A461B052343D207134327
:103EF000190007B0F0BCBB46B246A946A046F0BDCB
:103F0000924B2643EB18002E00D1BBE00322414622
:103F100011435A46884600994A40802109018C463F
:103F200029006144019141460A2900DD33E29346AC
:103F30000326424601279740A6213A00C9000A40BD
:103F40000F4231D0029E022E00D135E2032E00D165
:103F5000D2E154464846012EC1D0019A7D4B944689
:103F60006344002B00DCC0E0420709D00F2202406E
:103F7000042A05D0021D82428041404224181000CC
:103F8000E20106D5744B019A1C4080239446DB0065
:103F90006344724A93426BDC6207C00864025B05AB
:103FA0000243240B5B0D9DE7902189000F4263D1F2
:103FB00088223A4200D1D7E0009BA2469B46814628
:103FC0000296BFE72300334300D17FE0002C00D1ED
:103FD000ADE12000FEF7E8F9020003000B3A1D20D6
:103FE0001900821A30000839D0408C400443300058
:103FF00088405B4AEB1A944663445A1C019242463D
:1040000000260A2A00DC5AE79CE7534603439946F8
:1040100054D05346002B00D177E15046FEF7C4F947
:104020000B235B429C460200844411005046083931
:1040300088401D23804660461B1A2000D84003009C
:10404000404603439A4623008B4099460023444D43
:104050009846AD1A029315E752460243914626D17F
:1040600000221D000223924608329046029309E77F
:1040700000240022354B35E7002380249B4624038F
:10408000324B2FE70222414611438022120194460F
:104090002A006244884601920A2900DD52E75A4606
:1040A0000020009904004A40934602260BE70C22A8
:1040B0001D000323814690460293E3E600239A46BF
:1040C00004339846033B00250293DBE64246013366
:1040D0001A432B0090465A1C0192424600240020AD
:1040E00001260A2A00DCEAE62CE70122D21A382A45
:1040F00000DDF4E61F2A00DC2AE11F214942CB1A29
:104100002100D9400B00202A05D0164A019D944673
:104110006544AC402043421E9041184307231900D8
:104120000024014003420CD00F230340042B00D194
:1041300040E1031D8342A441180064426107640208
:10414000240BC20800230A43CCE6C046FF07000048
:1041500001FCFFFFFF030000FFFFFFFEFE07000062
:104160000DFCFFFF3E04000049464A460904090CC5
:104170000D00160C020C0004000C4543AC46050073
:104180007543A84615000F007543009202952A005A
:10419000009D6F4365462D0CA94647444F44B845E2
:1041A00005D91500802252029046454402953D0CE7
:1041B000039565462D043F042D0CAC463D00654437
:1041C0000495250C2404240CAC4625007543A84610
:1041D00065460F006943414489466743390C4944A9
:1041E0006E43884503D980225202904646440D0C06
:1041F000A846350045440595039D3F04A8463F0C5D
:104200000904C91988444546039555462E04360CC1
:104210002F0C35004543784381463800A8462D0CC5
:10422000AA46009A504372434A445244914503D9E6
:1042300080256D02A9464844150CA94645462D0423
:104240002D0CA84665467D43120448449044A94677
:104250003200654662436E437C43170C3619BF1922
:10426000BC4203D980246402A446E144029C039E1C
:10427000A446059D66448E428941AC4612043C0426
:10428000120CA2186244494254184644A4464645BA
:10429000A44182466442A046AA4292418C4589418B
:1042A000E244D044494252420A43A045A4418245D7
:1042B0008941644249420C4341463F0CD2191219CC
:1042C000CC0D049970020843411E884141464A447E
:1042D000F60D52023043490214430843D20135D54A
:1042E0000122430802401343E0071843640834E600
:1042F000009BA2469B4681468024534624031C43D0
:1043000024034A462E4B240BECE5FEF74DF815230B
:104310009C4684440200634620321C2B00DC84E669
:10432000002399462300083883409A468EE6FEF71C
:104330003BF802000300153220331C2A00DC4EE655
:1043400002003400083A0020944052E6019304E64B
:104350001C4B21009C460300019DD3406544A940AD
:1043600019430300AB40581E834119430800D44051
:104370004B0709D00F230B40042B05D00B1D8B429C
:104380008041404224181800230200D4D6E60123BD
:1043900000240022A6E50F29AAD1802352461B0340
:1043A0001A42A9D01C42A7D11C43009B02009B4685
:1043B000034B97E50024C1E60024014B220091E560
:1043C000FF0700001E04000070B542024300C40F46
:1043D000FE201B0E591C550A08420CD0E021890012
:1043E0008C466D07120B63441B051343E4072343FC
:1043F0002800190070BD002B14D1002D1BD02800FF
:10440000FDF7D2FF0A281CDC0B232A001B1ADA4016
:10441000030015339D400E4B12031B1A5B05120B54
:104420005B0DE1E7002D09D0130B802212031A4324
:104430006D07084BD8E700230022D5E70022054B83
:10444000D2E703002A000B3B9A400025E3E7C04671
:1044500089030000FF070000F0B54B000F035B0D60
:104460003F4C450F83B07F0A5E1C2F4300900191A3
:10447000CA0FC50026420BD03A495C18FE2C13DD4A
:10448000FF200023C0051843D207104303B0F0BD3E
:10449000002B02D100200023F4E73D43F0D080231D
:1044A000DB03FF203B43EDE7002C14DD009BFF0006
:1044B0009B01581E8341690F3B430B43590741D071
:1044C0000F211940042947D00433590142D5013442
:1044D0000023E0B2D6E721001731DBDB80211E206C
:1044E00009043943001B1F281BDD02267642341BBA
:1044F0000E00E6403400202804D01B488446634464
:1045000099400D436B1E9D4125436B071DD00F2124
:1045100000242940EB0804291BD15B025B0AE0B2AE
:10452000B0E7124C1C192B00A540C340A140681EE7
:10453000854129430B4300245907C1D19B01002029
:104540005B0A9FE7DB08E0B29CE7AD0100206B0A45
:1045500098E72B1DDB08E0E79B015B0AE0B291E7DF
:10456000FE07000080FCFFFFA2FCFFFF82FCFFFFB4
:10457000F0B5D6464F464646C0B504000D001000C3
:10458000190082B0002D00DA87E0002B0BDB16004B
:104590001F00AB4219D90020002102B0E0BCBA468E
:1045A000B146A846F0BD002746428F41AF4204D82D
:1045B00000D082E0A64200D87FE0002000218FE0FA
:1045C000002746428F419F42E5D8AF4200D198E094
:1045D0000023994639003000FDF704FF804629008A
:1045E0002000FDF7FFFE43461B1A9846203B00D5EE
:1045F0007CE0310099409A460B00310040468140F2
:104600000A00AB425FD85CD05146A41A9D410029F4
:1046100000DA93E00021002001260090019151462C
:104620008E400196414601268E4041460096002963
:1046300050D0D90756080E435F0841460122002397
:104640000CE0AF4201D1A6420AD8A41BBD412419F7
:104650006D410139A4185D41002906D0AF42F0D95F
:10466000013924196D410029F8D100980199534668
:1046700000196941002B48DB2E002C00DE40434628
:10468000DC405346002B50DB34009C402300444662
:10469000A6403200801A99411EE000236242AB41DD
:1046A00014001D0000298BDB06000F00994200D981
:1046B00071E702D1904200D96DE701235B42994630
:1046C00088E7A142A0D90021002000900191414635
:1046D0000029AED1009801994B46002B00D15CE730
:1046E00003000C0000215842A14156E74246380021
:1046F0009A462023310090409B1AD94003000B4377
:104700007BE7A64200D863E745E7424620239B1A91
:104710002A009A40260013004246D6402C001E4331
:104720004346DC405346002BAEDA42462023350098
:1047300094409B1ADD4023002B43A8E741462026E6
:104740000127761A00200021F7400090019101977F
:1047500068E7C046074B10B50400002B02D00021CB
:1047600000E000BF044B1B68002B00D098472000DE
:1047700000F0A6FC000000005802001070B50026F2
:104780000C4C0D4D641BA410A64209D1002600F06C
:10479000F1FD0A4C0A4D641BA410A64205D170BD60
:1047A000B300EB5898470136EEE7B300EB58984753
:1047B0000136F2E794530000945300009853000030
:1047C0009453000010B5034B0100186800F030F856
:1047D00010BDC0462400001010B5034B010018683E
:1047E00000F07EFA10BDC0462400001070B50F4ED8
:1047F0000D0031680400002902D100F027FA306072
:104800002900200000F022FA431C03D101256D424B
:10481000280070BD0323C51C9D43A842F8D0291A67
:10482000200000F013FA0130F2D1EFE71801001078
:10483000F7B50322CB1C9343083305001F000C2B54
:1048400034D20C27B94233D8280000F0EFF9374EA4
:1048500033681C00002C2FD139002800FFF7C6FF59
:104860000400431C5FD134680094009B002B4AD1A4
:10487000002C52D023682800E3180099019300F01F
:10488000E5F9019B834248D123682800FF1A3900CB
:10489000FFF7ACFF013040D02368DB192360336899
:1048A0005A68002A33D1009B336019E0002BC9DA23
:1048B0000C232B600020FEBD2168C91B20D40B29CE
:1048C0000AD9E2192760A34204D1326063681160FB
:1048D000536005E05A60F9E76268A3420ED1326086
:1048E000280000F0ABF9200007220B30231D904375
:1048F000C21A9842DFD01B1AA350DCE75A60EFE7D8
:1049000023006468A6E7009C63680093ADE71A0083
:104910005B68A342FBD10023DAE70C2328002B605D
:1049200000F08CF9C6E70760DAE7C0461C0100100A
:10493000002310B5040003604360836081814366F7
:10494000C281036143618361190008225C3000F079
:10495000BFF90B4B246263620A4BA3620A4BE3620A
:104960000A4B23630A4B9C4205D00A4B9C4202D05F
:10497000094B9C4203D12000583000F0FCF910BDD7
:10498000914B0000BD4B0000F54B0000214C000096
:104990002001001088010010F001001010B5034A3A
:1049A0000349044800F078F910BDC0461800001013
:1049B0008D4F00002800001041680B4B10B504001B
:1049C000994201D000F0E2FAA168084B994202D066
:1049D000200000F0DBFAE168054B994202D020008C
:1049E00000F0D4FA10BDC04620010010880100106C
:1049F000F00100104B6E10B5DB0705D48B899B05C9
:104A000002D4886D00F0BBF9002010BD4B6E10B5CC
:104A1000DB0705D48B899B0502D4886D00F0B5F9BE
:104A2000002010BD10B5094B094A04211A6009483D
:104A30000022FFF77DFF012209210748FFF778FFD9
:104A4000022212210548FFF773FF10BD5802001023
:104A50009D4900002001001088010010F0010010A5
:104A600010B5024800F08BF910BDC046630200107B
:104A700010B5024800F089F910BDC046630200106D
:104A8000F8B50700FFF7ECFF244B1B68002B01D1A2
:104A9000FFF7C8FF224EB4687368013B0FD5356835
:104AA000002D38D1D62138004900FFF7C1FE041E81
:104AB00026D13060FFF7DCFF0C233B601CE00C22AA
:104AC000A55E002D1AD12000164B5830E3606566B4
:104AD00000F051F9FFF7CCFF2000082229002560E3
:104AE000A560656025616561A5615C3000F0F0F846
:104AF0006563A563A564E5642000F8BD6834CCE770
:104B00000423D022056043600C302900A0605200CD
:104B100000F0DEF834603668BDE7C0465802001089
:104B2000180000100100FFFF10B50400FFF798FF08
:104B3000236A002B02D0FFF79BFF10BD044B2362BA
:104B4000044B1B68002BF6D1FFF76CFFF3E7C04660
:104B5000B94900005802001010B5FFF781FF00208E
:104B6000024A034900F098F810BDC0461800001032
:104B7000F549000010B5044A0449002000F08CF803
:104B8000FFF776FF10BDC046180000100D4A000068
:104B900070B50C000E25495F00F050FA002803DBC9
:104BA000636D1B18636570BDA389024A1340A3811E
:104BB000F9E7C046FFEFFFFF00207047F8B51F0080
:104BC0008B8905000C001600DB0505D50E23C95E98
:104BD0000022022300F01EFAA389054A2800134090
:104BE000A38132000E23E15E3B0000F041F8F8BDE6
:104BF000FFEFFFFF70B50C000E25495F00F00AFAC9
:104C0000A389421C03D1054A1340A38170BD8022B1
:104C100052011343A3816065F8E7C046FFEFFFFF31
:104C200010B50E23C95E00F0B1F810BD10B50248F2
:104C300000F0A5F810BDC0466002001010B5024893
:104C400000F0A3F810BDC04660020010002370B54C
:104C5000064D040008002B6000F01CFA431C03D131
:104C60002B68002B00D0236070BDC046640200108A
:104C700070B50400080011001A000023054D2B60D8
:104C800000F016FA431C03D12B68002B00D02360E0
:104C900070BDC04664020010F7B5140000260090F5
:104CA0000191A5686768013F04D52468002CF8D1FC
:104CB0003000FEBDAB89012B08D90E22AB5E01335B
:104CC00004D029000098019B984706436835EAE71D
:104CD00003008218934200D1704719700133F9E73D
:104CE00070B505000C1E10D0043C2368002B00DAC0
:104CF000E4182800FFF79AFF1D4A1368002B05D11E
:104D0000636014602800FFF799FF70BDA34208D9C3
:104D1000206821188B42F3D119685B68091821605B
:104D2000EEE71A005B68002B01D0A342F9D91168A5
:104D30005018A0420BD12068091850181160834206
:104D4000E0D118685B68411811605360DAE7A0424F
:104D500002D90C232B60D5E7206821188B4203D1A0
:104D600019685B680918216063605460CAE7C0462F
:104D70001C010010704770477047704770477047BC
:104D8000012070470120704770477047002370B5BD
:104D9000064D040008002B6000F064F9431C03D1A9
:104DA0002B68002B00D0236070BDC0466402001049
:104DB0002E4B70B51B68040083424FD0C369002B93
:104DC00017D0DB68002B0DD00025E369DB6859594B
:104DD000002944D10435802DF7D1E3692000D9683A
:104DE000FFF77EFFE3691968002902D02000FFF772
:104DF00077FF6169002902D02000FFF771FFE169A8
:104E0000002902D02000FFF76BFF216B002902D0A0
:104E10002000FFF765FF616B002902D02000FFF73B
:104E20005FFFA16B002902D02000FFF759FFA16CA2
:104E3000002902D02000FFF753FF616C002902D047
:104E40002000FFF74DFFE16A002902D02000FFF7A4
:104E500047FF236A002B01D02000984770BD0E68E1
:104E60002000FFF73DFF3100B2E7C04624000010EC
:104E7000F7B50C228B5E05000C001A0761D44A6856
:104E8000002A02DC0A6C002A42DDE76A002F3FD0CC
:104E9000002280202E682A601A004001216A024008
:104EA000034227D0626DA3895B0706D56368D21AD7
:104EB000636B002B01D0236CD21A00232800E76A11
:104EC000216AB847431C25D000236360236923600F
:104ED000A389DB0400D56065616B2E60002917D0C3
:104EE00023004433994202D02800FFF7F9FE002343
:104EF00063630DE001232800B8470200431CD2D1B0
:104F00002B68002BCFD01D2B01D0162B31D12E605A
:104F1000002035E02B680C21625E002B08D01D2B91
:104F200001D0162B0AD10023636023692360D3E7E5
:104F3000636023692360D204CDD4CDE740231343BB
:104F40001BE00E69002EE3D00F680E60BA1B0192C1
:104F500000229B0700D14A69A260019B002BD7DD8C
:104F6000A36A32001F002800019B216AB84700286D
:104F700007DC4023A28913431BB20120A3814042D6
:104F8000FEBD019B36181B1A0193E6E70B6970B54D
:104F900005000C00002B02D10025280070BD002860
:104FA00004D0036A002B01D1FFF7BEFD0C22A35EE3
:104FB000002BF1D0626ED20704D49B0502D4A06D01
:104FC000FFF7DDFE28002100FFF752FF636E0500AA
:104FD000DB07E2D4A3899B05DFD4A06DFFF7D5FEE4
:104FE000DBE70000010010B5002805D1054A06499D
:104FF0000648FFF751FE10BD054B1868FFF7C6FFC6
:10500000F9E7C046180000108D4F0000280000107E
:105010002400001070B50400080011001A000023DD
:10502000054D2B6000F026F8431C03D12B68002BA4
:1050300000D0236070BDC0466402001070B504004B
:10504000080011001A000023054D2B6000F01AF82B
:10505000431C03D12B68002B00D0236070BDC046D9
:105060006402001058220120014B40421A60704730
:105070006402001058220120014B40421A60704720
:105080006402001058220120014B40421A60704710
:1050900064020010044A03001068002802D0C318FC
:1050A000136070470148FAE76802001070020010B0
:1050B00058220120014B40421A60704764020010E0
:1050C000FEE7C046C027090090051000C05C15002F
:1050D000F0B31A00200B2000009F2400E0322900CA
:1050E000C0C62D0050973100E06735007038390098
:1050F00000093D004016400080234300C0304600B8
:105100000E0F100304050304050000003D400B4092
:105110001040264035400340064014400E400D40EC
:105120002540124028400240184009400A40000033
:105130002A2A2A2A2A2A2A2A2A2A2A2A2A2A2A2ACF
:105140002A2A2A2A2A2A2A2A2A2A2A2A2A2A2A2ABF
:105150002A2A0A0D0046696E616C204578706572D6
:10516000696D656E74202D20504152542033202EDD
:105170000D0A002A2A2A2A2A2A2A2A2A2A2A2A2AF6
:105180002A2A2A2A2A2A2A2A2A2A2A2A2A2A2A2A7F
:105190002A2A2A2A2A0A0A0A0A0D005B494E464F81
:1051A0005D3A20414443204368202564202D3E2061
:1051B00025640D0A005B494E464F5D3A2072286B0C
:1051C0005429202D3E20256420287831303020536A
:1051D00063616C65290D0A005B494E464F5D3A20BC
:1051E00079286B5429202D3E2025642028783130E1
:1051F00030205363616C65290D0A005B494E464FB0
:105200005D3A2065286B5429202D3E2025642028F6
:1052100078313030205363616C65290D0A005B4999
:105220004E464F5D3A2075286B5429202D3E20258F
:10523000640D0A005B494E464F5D3A2050574D20A1
:105240004475747920436F756E74202D3E2025645B
:105250000D0A00095B494E464F5D3A2050726F704F
:105260006F7274696F6E616C202D3E20256420285A
:10527000783130205363616C65290D0A00095B4960
:105280004E464F5D3A20496E74656772616C202D01
:105290003E2025642028783130205363616C6529D5
:1052A0000D0A00095B494E464F5D3A20446572691C
:1052B000766174697665202D3E202564202878313A
:1052C00030205363616C65290D0A00002B0100003A
:1052D000D62E0000062E00001E2E00003C2E0000E0
:1052E0001E2E0000802E00001E2E00003C2E00000E
:1052F000062E0000062E0000802E00003C2E00002E
:10530000262E0000262E0000262E00008A2E0000E9
:10531000062E0000062E00001E2E0000142F000096
:105320001E2E0000802E00001E2E0000142F0000F4
:10533000062E0000062E0000802E0000142F000014
:10534000262E0000262E0000262E00003D400B4099
:105350001040264035400340064014400E400D40AA
:105360002540124028400240184009400A400000F1
:1053700000000000F8B5C046F8BC08BC9E46704767
:0C538000F8B5C046F8BC08BC9E4670475B
:08538C0074AFFF7F0100000077
:045394007124000080
:0453980045240000A8
:10539C00000070410AD7233CCDCC4C3D000070423C
:1053AC00001BB7000000000000000000030000001C
:1053BC002001001028000010000000002001001047
:1053CC0088010010F0010010000000000000000037
:1053DC0000000000000000000000000000000000C1
:1053EC0000000000000000000000000000000000B1
:1053FC0000000000000000000000000000000000A1
:04540C00000000009C
:0400000300001E35A6
:00000001FF
