:10000000E01F001081030000B9030000BD030000E1
:1000100000000000000000000000000000000000E0
:10002000000000000000000000000000C10300000C
:100030000000000000000000C50300008D0A000061
:10004000CD030000D1030000D5030000D903000058
:10005000DD030000E1030000E5030000E903000008
:10006000ED030000F1030000F5030000F9030000B8
:10007000FD03000001040000050400000904000065
:100080000D04000011040000150400001904000014
:100090001D040000210400002504000029040000C4
:1000A0002D04000031040000350400003904000074
:1000B0003D04000041040000450400004904000024
:0402FC00FFFFFFFF02
:10030000402292029A1A92467047C046174B002B21
:1003100000D1134B9D46FFF7F3FF00218B460F469C
:100320001348144A121A02F07DFD0E4B002B00D028
:1003300098470D4B002B00D0984700200021040067
:100340000D000D48002802D00C4800E000BF02F06C
:10035000B5FA2000290000F0ABFB02F09BFAC04682
:10036000000008000000000000000000E01F001076
:1003700064000010080200100000000000000000EF
:1003800072B6074880470749074A084B9B1A03DDA6
:10039000043BC858D050FBDC62B6054880470000DB
:1003A000F511000028340000000000106400001067
:1003B0000D03000025480047254800472548004711
:1003C000254800472548004725480047254800475D
:1003D000254800472548004725480047254800474D
:1003E000254800472548004725480047254800473D
:1003F000254800472548004725480047254800472D
:10040000254800472548004725480047254800471C
:10041000254800472548004725480047254800470C
:1004200025480047254800472548004725480047FC
:1004300025480047254800472548004725480047EC
:10044000254800472548004725480047B5030000D8
:10045000B9030000BD030000C1030000C503000094
:100460008D0A0000B5030000B5030000B5030000CD
:10047000B5030000B5030000B5030000B50300009C
:100480005124000039240000B5030000B50300002A
:10049000B5030000B5030000B5030000B50300007C
:1004A000B5030000B5030000B5030000B50300006C
:1004B000B5030000B503000069240000B503000087
:1004C000B5030000B5030000B5030000B50300004C
:1004D000B5030000B5030000B5030000B50300003C
:1004E000B503000002B4714649084900095C49009F
:1004F0008E4402BC7047C04603B4714649084000B0
:100500004900095E49008E4403BC7047002243083D
:100510008B4274D303098B425FD3030A8B4244D3CB
:10052000030B8B4228D3030C8B420DD3FF2209020D
:1005300012BA030C8B4202D31212090265D0030BCC
:100540008B4219D300E0090AC30B8B4201D3CB03C2
:10055000C01A5241830B8B4201D38B03C01A524104
:10056000430B8B4201D34B03C01A5241030B8B4206
:1005700001D30B03C01A5241C30A8B4201D3CB02F1
:10058000C01A5241830A8B4201D38B02C01A5241D6
:10059000430A8B4201D34B02C01A5241030A8B42D9
:1005A00001D30B02C01A5241CDD2C3098B4201D3F1
:1005B000CB01C01A524183098B4201D38B01C01A6F
:1005C000524143098B4201D34B01C01A52410309E6
:1005D0008B4201D30B01C01A5241C3088B4201D395
:1005E000CB00C01A524183088B4201D38B00C01A42
:1005F000524143088B4201D34B00C01A5241411A69
:1006000000D20146524110467047FFE701B5002075
:1006100000F0F0F802BDC0460029F7D076E7704739
:1006200003460B437FD4002243088B4274D3030953
:100630008B425FD3030A8B4244D3030B8B4228D3F4
:10064000030C8B420DD3FF22090212BA030C8B421A
:1006500002D31212090265D0030B8B4219D300E0BA
:10066000090AC30B8B4201D3CB03C01A5241830B3F
:100670008B4201D38B03C01A5241430B8B4201D3EF
:100680004B03C01A5241030B8B4201D30B03C01A18
:100690005241C30A8B4201D3CB02C01A5241830A92
:1006A0008B4201D38B02C01A5241430A8B4201D3C1
:1006B0004B02C01A5241030A8B4201D30B02C01AEB
:1006C0005241CDD2C3098B4201D3CB01C01A524152
:1006D00083098B4201D38B01C01A524143098B42DB
:1006E00001D34B01C01A524103098B4201D30B01C4
:1006F000C01A5241C3088B4201D3CB00C01A5241E9
:1007000083088B4201D38B00C01A524143088B42AD
:1007100001D34B00C01A5241411A00D20146524146
:10072000104670475DE0CA0F00D04942031000D365
:100730004042534000229C4603098B422DD3030ABA
:100740008B4212D3FC22890112BA030A8B420CD3CA
:10075000890192118B4208D3890192118B4204D3F3
:1007600089013AD0921100E08909C3098B4201D373
:10077000CB01C01A524183098B4201D38B01C01AAD
:10078000524143098B4201D34B01C01A5241030924
:100790008B4201D30B01C01A5241C3088B4201D3D3
:1007A000CB00C01A524183088B4201D38B00C01A80
:1007B0005241D9D243088B4201D34B00C01A524157
:1007C000411A00D20146634652415B10104601D3E4
:1007D0004042002B00D54942704763465B1000D36E
:1007E000404201B5002000F005F802BD0029F8D014
:1007F00016E770477047C046002B15D1002A13D169
:10080000002906DB01DC002806D00020C043410897
:1008100002E080210906002007B4024801A1401827
:10082000029003BDD1FFFFFF03B4684601B50298F3
:1008300001F020FF019B9E4602B00CBC7047C046F1
:10084000002B11D1002A0FD1002900D1002802D09D
:100850000021C943080007B4024802A140180290D1
:1008600003BDC04691FFFFFF03B4684601B502987F
:1008700001F034FE019B9E4602B00CBC7047C0469E
:1008800010B5002903D100F007F8203002E008007D
:1008900000F002F810BDC0461C2101231B04984241
:1008A00001D3000C10391B0A984201D3000A083901
:1008B0001B09984201D30009043902A2105C4018B8
:1008C0007047C0460403020201010101000000005C
:1008D000000000000448054B10B5834203D0044BD0
:1008E000002B00D0984710BD640000106400001079
:1008F0000000000006480749091A8B10C90FC918E3
:1009000010B5491003D0044B002B00D0984710BD00
:1009100064000010640000100000000010B5074CD7
:100920002378002B09D1FFF7D5FF054B002B02D010
:10093000044800E000BF0123237010BD64000010D4
:1009400000000000FC330000054B10B5002B03D065
:100950000449054800E000BFFFF7CCFF10BDC046CA
:100960000000000068000010FC330000002A02D1E3
:10097000014B01321A707047840000100422034BAF
:1009800099681142FCD0D8617047C04600400640CB
:10099000F0B5070089B002AC0D001600002110224E
:1009A000200002F03FFA01AB1F700693012307936A
:1009B0000023A580064D2200310006482B7001F06F
:1009C00027FB2B78002BFCD000232B7009B0F0BD47
:1009D00084000010000005408E23F7B50125022198
:1009E00000261A4C9B00E2586846AA43E250E2589F
:1009F000174F8A43E250174B1E606B461E71164B11
:100A0000009300F013FEC020800000F0FBFE0323E3
:100A1000FF223B60A36F93432B43A36700F0A0FB2F
:100A200003233B602300C822E4331E6004341D60AE
:100A30005A60E36F7F352B43E3672E210748AE3AB8
:100A400000F03CFFE36FAB43E367F7BD0080044079
:100A5000E0800440408004400087930300C00040D1
:100A60008023074ADB01D16F0B43D3670822054B74
:100A70001A60054B053A1A6202321A607047C04686
:100A8000048004409480044000400640034B1A68F0
:100A9000002A02D01A68013A1A60704780000010DC
:100AA000024B18601A68002AFCD1704780000010C1
:100AB000802270B520255B4BD201D96F94B00A43D8
:100AC000DA67DA6FA0242A43DA6700F065F9FFF7E6
:100AD00083FFFFF7C5FF544B544A55481A6000F096
:100AE0000FFB544800F00CFB802280239201240667
:100AF000A1585B020B43FA21A3504F4B89001868A1
:100B0000FFF704FD802301385B04984200D388E09E
:100B1000C0214A4A0906506049480026036A1B0260
:100B20001B0A0B4303620723966003A8136001F0BE
:100B30009FF8444B444A454803A9049301F00CF93B
:100B40003300434A414806A901F034FA10236A46AB
:100B50000120138102A9022206AB00F091F80222C3
:100B600006AB01A9012000F0B1F83A4800F0C8FA3C
:100B7000394800F0C5FA01A800F0F0F86B460222EF
:100B80001D81032006AB02A900F07AF8022206AB11
:100B900001A9032000F09AF8304800F0B1FA30487B
:100BA00000F0AEFA01A800F0BDF81E236A461381DA
:100BB000022206AB100002A900F062F8022206AB86
:100BC000100001A900F082F8264800F099FA2648A2
:100BD00000F096FA01A800F0A5F8244800F090FA79
:100BE000234800F08DFA234800F08AFAD535FF3506
:100BF000002006AB022201A9207400F067F81E480D
:100C000000F07EFA01A800F08DF81C4800F078FA98
:100C10002800FFF745FF012328002374FFF740FF5A
:100C2000E6E7FEE7048004408C0000107D09000028
:100C30003C3200005A3200000400001010E000E0D6
:100C400000ED00E0A0860100001BB7000000054099
:100C50006D09000074320000893200008E320000FD
:100C6000A5320000C4320000D4320000F33200008C
:100C700007330000023300002F330000323300003E
:100C8000F0B587B0140007000E0008220021684666
:100C90001D0002F0C7F848236A469380473B039340
:100CA00000230594074C29000748029704962370F7
:100CB00001F0AEF92378002BFCD00023237007B09D
:100CC000F0BDC046840000100000054030B50C00A7
:100CD0001900114B87B00025019301230290059262
:100CE0000E486A4603930095049401F091F90C4B69
:100CF0001D70A8420DD11A78002AFCD0002260781D
:100D00001A7023780002184340BA80B2400907B035
:100D100030BD01204042FAE74800010000000540D4
:100D20008400001010B504000178094800F0E8F9CB
:100D30007D21637807485B095943637000F0E0F94F
:100D40006378002B02D1044800F0DAF910BDC046E8
:100D50003B3300003F33000042330000182310B53E
:100D6000027809481A420BD008231340D20603D454
:100D70000648002B04D110BD0548002B00D00548C3
:100D800000F0BEF9F7E7C0464533000056330000D7
:100D90006733000078330000F8B58023164CDB027F
:100DA000E26F0026134380221100E367E36F134FC5
:100DB000134D1343E36728003E627F3A490100F078
:100DC0008CFD80212800FE610122090100F085FDD3
:100DD0003023320028007B64012100F06FFD3023B6
:100DE00031003B612800042200F068FD8022E36F9F
:100DF0009343E367F8BDC0460480044000400440CC
:100E000000C0004070470000030010B50800002B30
:100E100001D0984710BD044A1368002BFAD0591C22
:100E200011601870F6E7C0468800001010B5034B3B
:100E300001001868FFF7E8FF10BDC0468C000010E5
:100E4000F0B50F00160091B001903978002900D15B
:100E50003BE1252905D001370198FFF7D5FF340084
:100E6000CBE07978302916D10591B978FB1C0022A6
:100E700000922A291BD000220A2002920A00303A4E
:100E80001F00092A1CD8029A42435218303A197896
:100E900002920133F2E72D2903D02022BB1C0592D8
:100EA000E5E72022B9780592FB1C1E3AE0E704CE64
:100EB000002A02DA022152420091197802925F1C44
:100EC0002E2972D139782A290DD000250A207B1CC1
:100ED0000A00303A1F00092A08D845436D18303DF2
:100EE00019780133F4E720CE797802376C2905D1DF
:100EF0000423009A39781A4300920137002900D15F
:100F0000E3E07829A8D86E2952D863296FD060D839
:100F1000582900D1AFE062299ED1009B5B0700D425
:100F2000BEE03400022508CC06930723782900D1BF
:100F30002723DBB207930023039306982900FFF7CA
:100F40006BFB069ACBB20690092902D90799CB18F8
:100F5000DBB2039903984E1C303308A94354AA42CC
:100F600004D3202E00D0A5E01F2303930122009B71
:100F7000134204D02D2308AA9355039E0236009BEA
:100F800035009B0700D49CE0013E08ABF15C019862
:100F9000FFF73AFF002EF7D1029BAB422DD920215B
:100FA0000198FFF731FF0135F6E701256D429DE716
:100FB00008006F38092800D94EE7FFF79DFA630053
:100FC0004DFF4DFF4DFF20004DFF6A004DFF4DFFCF
:100FD0005C00642900D03FE7340008CC0A25002BD0
:100FE000A2DA012200985B42104300909CE7340093
:100FF00002CC0198C9B2FFF707FF260025E73400AD
:1010000008CC0393002B01D1314B0393002D03DB5C
:10101000049BAB4200D904950226009B33401E007E
:10102000049B01330093002E13D0039B5E19039B96
:101030001978002901D0B34216D1029B049A934239
:10104000DBD920210198FFF7DFFE049B01330493D5
:10105000F3E7049B029A9342E7D205990198FFF7C0
:10106000D3FE009B0493DBE7039B019801330393BA
:10107000FFF7CAFEDBE7009B5B0715D534001025A0
:1010800008CC51E7009B5B0710D53400082508CC3D
:101090004AE7009B341D5B070AD50A25336843E7FE
:1010A0000225340008CC3FE71025FAE70825F8E7C9
:1010B0000A25F6E7039640E705990198FFF7A4FE95
:1010C0000135029BAB42F7D85EE711B0F0BDC046D8
:1010D0007332000070B505000C002178002900D1A2
:1010E00070BD28000134FFF78FFEF6E710B5034B03
:1010F00001001868FFF7EEFF10BDC0468C0000101D
:101100000FB407B5054B04AA02CA18680192FFF78D
:1011100097FE03B008BC04B01847C0468C0000100E
:101120000EB403B503AA02CA0192FFF789FE02B00A
:1011300008BC03B0184700000EB417B5074C05AA49
:1011400002CA206000200192FFF77AFE0023226885
:101150002360137017BC08BC03B018478800001048
:1011600010B51E4C0020636ADB051B0F013B0E2BE4
:1011700002D81B4A9B0098580322616A236F1340D0
:10118000022B11D0934216D0012B24D1206C104099
:101190000338431E9841134B40421840A16FFFF79C
:1011A000B5F9114C206010BD1F23194001314900D1
:1011B000FFF7ACF9F2E7A268206C1F211840033852
:1011C00043425841094B40421840064B0A40C01860
:1011D00001325043E2E70348E0E7C04600800440A4
:1011E0008C330000001BB7000400001000E548FF2E
:1011F0007047000010B5044B044A9360044B054A45
:101200001A60FFF7F5FF10BD0000000000ED00E0E0
:1012100004000010001BB700431E70B55B184D4260
:101220000C002B40984201D9002070BD052252428B
:10123000521A9A42F8D3081DC01801F06DFB00281D
:10124000F2D0033423181D40034A2B1F281A58805C
:101250001A802800E9E7C04639300000031F054A1C
:10126000198810B5914203D15B88C01A01F05EFB6A
:1012700010BDC046393000000A0010B500280BD060
:101280000023190001F0FCF80023044AFFF7D8FA04
:10129000001C01380028FCD110BDC04600093D00EB
:1012A0004023044A10B5D16F0A200B43D36700F0E6
:1012B000F9FA10BD0480044070B54024104DEE6F63
:1012C0003443EC6701249440220080241E788D0072
:1012D000A401002E04D145192B5993432B5170BD05
:1012E0005B78002B09D18A231B01C91889000A5099
:1012F0004019035913430351F1E78823F4E7C0462B
:1013000004800440EFF3108172B60720064A136888
:1013100083431360054A033813698343136130BF65
:1013200081F310887047C0460000024000ED00E0E5
:1013300010B5EFF3108172B607230C4C22689A4364
:10134000063B13438C222360094C9200A35883432D
:101350000420A350074B1A6902431A6130BF1A696F
:1013600082431A6181F3108810BDC046000002401C
:101370000080044000ED00E010B5EFF3108172B67C
:1013800007230C4C22689A43053B13438C222360AD
:10139000094C9200A35883430420A350074B1A69B9
:1013A00002431A6130BF1A6982431A6181F31088BF
:1013B00010BDC046000002400080044000ED00E087
:1013C000EFF3108172B60F23084802689A430C3B72
:1013D000134303600420064B1A6902431A6130BFAD
:1013E0001A6982431A6181F3108870470000024035
:1013F00000ED00E030B50E4A172811D90500012391
:101400008121183DAB408900545823435350002894
:1014100005DB1F2318401E3B8340064A136030BD86
:101420000123852183408900545823435350F0E71A
:101430000080044000E100E010B5002809DB1F2215
:101440000123024093400B4AD367BFF34F8FBFF392
:101450006F8F094B172808D98124A4001A5918380E
:10146000012181408A431A5110BD8524A4001A59D4
:10147000F6E7C04604E100E00080044003688B43C7
:10148000036003680B43036003681942FCD0704794
:1014900000487047001BB7008E23044A9B00D358B6
:1014A00000209B0601D4024B18687047008004405E
:1014B000980000100A4B10B5186C0323184001283F
:1014C00007D0984208D043425841064B404218404A
:1014D00010BDFFF7E1FFFBE7034B1868F8E7C046D4
:1014E00000800440001BB7009800001010B50D4CA0
:1014F0000020236F032B06D81800FEF7F3FF10021D
:101500000508FFF7D7FF10BD074B1868FBE7FFF78B
:10151000D1FF1F22A368134001335843F3E7034868
:10152000F1E7C0460080044094000010001BB700A3
:101530000F4B10B51C680F4B00201B68E4B2032B47
:1015400006D81800FEF7CEFF12020C0FFFF7A4FF1B
:10155000002C03D02100FEF7D9FF0400200010BDAD
:10156000054B1868F4E7FFF7C1FFF1E70348EFE721
:10157000E8800440E080044094000010001BB700A5
:1015800010B5FFF7B3FF0A4BFF241A68130023407E
:1015900022420BD0074A010E12680002224001329B
:1015A000FF325A430023FFF74BF90300180010BD28
:1015B00094800440F480044010B5FFF7E1FF10BDB3
:1015C00010B5FFF7DDFF10BD10B5FFF7D9FF10BD57
:1015D00010B5072820D8FEF785FF060E1F04111648
:1015E0001F140E4810BDFFF781FF0D4B996FC9B254
:1015F000FEF78CFFF6E7FFF779FFF3E7094B186872
:10160000F0E7094BFBE7FFF755FF1F22044B9B68F0
:10161000134001335843E5E70020E3E7001BB70020
:101620000080044098000010940000108E22802357
:1016300070B51F4C9200A15806000B430321A35024
:10164000236C226C8B43134302791A48134323649F
:10165000FFF714FFFFF72EFF36680100050030008A
:10166000FEF754FF144A0023964208D8134A013368
:10167000964204D80023124AB2425B4102331F262D
:10168000A168421E32406036B1430A435B011343F6
:101690008E228021A3609200A3588B43A350012384
:1016A000E2681A42FCD06843064B186070BDC04621
:1016B0000080044044800440802FA604C0175302D9
:1016C000E08B2901900000101821074A10B5D36A59
:1016D000064C8B43D362E022054952008B582340CD
:1016E0008B50044B186010BD00400440FFFDFFFF0D
:1016F00000C00040980000101821104A10B5936BEC
:1017000004008B439363E02240200D4952008B5824
:1017100083438B500B4BC03A196AFF3A0A438E2120
:101720001A6289005A5820388243DA305A504000F1
:101730000549FFF7A1FD054B1C6010BD00400440AA
:1017400000C000400080044080C3C9019800001020
:101750001821154B10B55A6B04008A435A639A6BD3
:10176000C0208A439A63E022104952008B58834379
:101770008B500F49BD380B6A0A6A834313430D4AE5
:101780001D30A24292415242520013438E220B62FC
:1017900092008B588343DA308B5040000649FFF7A4
:1017A0006BFD064B1C6010BD0040044000C00040B3
:1017B00000800440C0E1E40080C3C901980000102B
:1017C00070B5F0250D4CC20C636A6D005B0A2A40AF
:1017D0005B021A43C23D4B08FF3D013B2B401343C4
:1017E0008E2263629200A3582135AB430002A350BE
:1017F000000AFEF78BFE024B186070BD00800440AB
:101800009400001010B503240949020A0B6F23400D
:101810009A420BD0C0B2002808D10B6F2240A343DC
:1018200013430B6703480121FFF728FE10BDC04694
:101830000080044074800440F8B50400FFF756FEB1
:10184000114B06001B685C43211E1BD00021A042E7
:1018500018D32100FEF75AFE0021012812D80B00F0
:1018600022000D003400FF27A41A9D4107482902D9
:101870000760200E01432002FEF7E2FF0121044B26
:10188000384018600800F8BD94800440F08004409F
:10189000F480044010B501210148FFF7EFFD10BDB1
:1018A000E480044001228240034B5968914359600F
:1018B00059680A435A60704700800440032310B5FA
:1018C000FF240B40DB009C409A40890889004018A7
:1018D0000168A1430A43026010BD002A07D0002915
:1018E00004DBE022520083588B4383507047002969
:1018F000FCDBE0235B00C2581143C150F6E78900CE
:1019000093B24018120D8018036070470300012243
:1019100058681042FCD050225A60704770B50400DD
:1019200008780022C31F012B02D88A6853425A410B
:10193000102563682B420CD0524A656000230D6B62
:101940000B705133E360002D2CD020004B6BA84767
:1019500028E040252B4202D04B4A6560EEE7DD07C8
:1019600000D481E01B075B0FDD1E012D06D8002A85
:1019700000D07DE00423454A2362DFE701380728D1
:1019800000D97DE0FEF7AEFD213A4B517C0469722F
:101990008B8B0A695B00002A05D0A36201230B70C0
:1019A0000223236270BD8A7F8868002A05D1A36262
:1019B00007230028F3D0053BF1E701221343A3627C
:1019C00007230028EBD0033BE9E7022B58D10A6933
:1019D000486A801A0818007D013AA062012020623E
:1019E0000A61002ADED18A68002A05D08A7F8242F5
:1019F00000D104330B70D5E70723FBE7022B3FD15F
:101A0000CB685A1CCA601B78A362012323628B68CF
:101A1000013B8B60002B15D107330B7012E0012BBB
:101A20002ED1A26A23620333E4E7012B28D1CA68CE
:101A3000A06A551CCD6010708A68013A8A60002A3D
:101A400004D023624B6801334B60ABE704238A69FF
:101A50001A4200D123620823DFE704238A691A426D
:101A600004D12362DB18C5E7094A67E7002265E76E
:101A70000638022804D8FEF73FFD8BFFF0FFF9FF80
:101A8000044A5BE7CD190000D0190000CA19000014
:101A9000C8190000D11900008B6A70B50A711500D1
:101AA0000C008A68002B1CD02A421AD0CA6A9847B8
:101AB000631D6169A269D87F00280BD120690028C5
:101AC00001D0002904D1E168002903D0002A01D007
:101AD0000122DA77023DFD232A001A401D4200D17F
:101AE000E26170BD036810B5DB0703D5024B1B68CC
:101AF000984710BD014BFAE7A00000109C000010B1
:101B0000F8B5802746683F028B6905000C004B69D9
:101B10003E4203D04022FFF7BFFF6F60F30541D57F
:101B20007605B60F37D16B6CDAB26271DB071DD563
:101B300063692269002A01D0002B04D1022221000E
:101B40002800FFF7A9FF63692269002A01D0002B52
:101B500007D1022301222B6421002800FFF79CFFFC
:101B600020E00322A31DDA770123F3E7A369E268EB
:101B7000002A01D0002B04D1042221002800FFF705
:101B80008BFFA269E16802230029E3D0002AE1D09B
:101B9000A21DD377E8E7A31DDA7FD3B2022A02D0D1
:101BA000032B29D0F8BD012E44D1A369E268002A95
:101BB00001D0002B04D1042221002800FFF76CFF84
:101BC000A369E268002A0FD0002B0DD06A6CE3688D
:101BD0001A70A369013BA361E3680133E360E36921
:101BE0000133E36101232B646369A2691343D9D1F3
:101BF000621DD3772022AFE70223022E1AD1636938
:101C00002269002A01D0002B04D1022221002800E1
:101C1000FFF742FF63692269002AE5D0002BE3D079
:101C200023691B786B646369013B6361236901333A
:101C30002361D4E72B64B5E7094A030000209342EF
:101C40000CD0084A0130934208D0074A0130934231
:101C500004D0064A9818431E984103307047C04686
:101C600000000540004005400000074000C0F8BFEC
:101C700010B50B2204000021013001F0D3F801233C
:101C80002370014B636010BDA08601001E22036813
:101C900010B513400360FFF7CFFF044A0449105CFE
:101CA00001228240CB6F9343CB6710BDD433000039
:101CB000048004400A23F0B5534389B006934B00D7
:101CC0005B420793122309244B430393230000260E
:101CD00007000D004B43059202930196009603996D
:101CE0000698FEF713FC431D18000A210493FEF723
:101CF0000DFC80235B02984200D91800029B059AD4
:101D000043435B00D31AB34201D3002E02D11E001D
:101D100001900094002B0FD0A022049B1203934249
:101D20000AD2079A039B944663440393029B013CA7
:101D30005B1B0293012CD2D17021019B013B9BB212
:101D40007B61009B023B1A010A4069390B40134337
:101D50007B6209B0F0BD0000F8B501260D00170048
:101D60000400FFF769FF32000F4BD96F9C460F4B01
:101D70001B5C9A40130062460B43D3670C4B185C04
:101D8000FFF790FD2B781E22002B09D0236813400B
:101D90001E4326603A0069682000FFF78BFFF8BDFC
:101DA000236813402360F5E704800440D433000027
:101DB000D033000070B5160005000C00FFF7A6FD3B
:101DC000054A904207D0012300201E40640034439E
:101DD000DB18AC622B6270BDD319000010B5040093
:101DE000FFF794FD034A904202D0042300202362AF
:101DF00010BDC046D3190000F7B504000D00102631
:101E0000402701938B180093009B2000AB4215D113
:101E1000FFF77CFD50230421019A03400A4013433D
:101E200003D120002162FFF771FDC3060AD44022CE
:101E300003001340104209D1180004E0FFF766FDCB
:101E4000304201D00C48FEBD384201D00B48FAE7C1
:101E50000007400F032809D0042809D0022809D11F
:101E60002B78A36201232362ED18CDE70448EAE74B
:101E70000448E8E70448E6E7CD190000D01900005F
:101E8000D2190000CA190000D1190000F7B50500E9
:101E900014000E000193002A09D007272800FFF73D
:101EA00035FD5023184207D00400C30622D4124B3C
:101EB0006006C01718400BE043083B40012B08D0D8
:101EC0000120033B98428041072318400B4BC01868
:101ED000FEBDAA6A013C3270002C02D02B62013692
:101EE000DCE70423019A1A42DED128002B62FFF7B7
:101EF0000DFDD9E70248EBE7D0190000CA19000030
:101F0000CD190000F0B50F6801233A0006000D005E
:101F100085B01A401F420ED0AB79002B3CD0002474
:101F2000012B30D16A69A2422DD03B0030002969D3
:101F3000FFF7ACFF39E0CB6800930B790193009B6E
:101F4000002B27D00199FFF735FF041E15D1009B08
:101F5000AA68013B03A9002B18DA04233000009A79
:101F6000FFF74AFF041E08D1AA79012AD4D1300014
:101F70000199FFF71FFF041ECED00D4B9C4202D1EA
:101F80003000FFF72BFF200005B0F0BDCA54120A45
:101F9000013BE0E78A79EAE76A691C00002AF2D08F
:101FA0003B0030002969FFF727FF0400E5E7C04642
:101FB000CA190000F8B50C000500170000213822EE
:101FC00020001E0000F02EFF2800FFF735FE0B4B0F
:101FD0008200D4500A4B0B4A27631A605123666370
:101FE000EB60094B1B56002B06DB1F2213401E3AE9
:101FF0009A401300054A1360F8BDC046A4000010C3
:10200000A00000101D190000CC33000000E100E02A
:10201000F0B50D7804009446002D3AD15123C360E9
:102020000B0010001833C4C8C4C3C4C8C4C3886A32
:10203000CB6AC86088694D608B600D61C00712D59E
:10204000002B0CD08B7F002B0BD0012B1FD1023328
:1020500000200B70502363600133A360F0BD0723A1
:10206000F6E70223F4E7486A00280AD004280ED8CD
:1020700063460A009D68DB681432013B002B02DADC
:1020800008610623E4E7D5542D0A013BF6E7024830
:10209000E0E70248E2E7C046CB190000C81900009B
:1020A0000420002A04D00B78002B02D113600230E8
:1020B00070474B6800201360FAE70B7870B5040096
:1020C0000D00002B0DD05123C360FFF71FFC00074C
:1020D000400F04D0042320002362FFF717FC0023E5
:1020E0002B70002070BD0000F7B58126096836020C
:1020F000C66001934F1D0400F87F0A61431E98419A
:102100000A4B40421840019B00254B610623089A68
:10211000CD6013438D61CD618B600123FB77DB18AC
:10212000236063686360A660FEBDC046C8190000F6
:10213000F7B5812609683602C66001934F1D040079
:10214000F87F0025431E98410A4B40421840019BEE
:102150000D614D61CA608B610623089ACD611343FE
:102160008B600123FB77DB18236063686360A660E4
:10217000FEBDC046C819000010B5FF245200224021
:1021800012311A4389000A5010BD00001FB5802388
:10219000054A5B04029201A90C220193039300F00B
:1021A000B1FB05B000BDC04600010001F7B5012735
:1021B0000C0001920500FFF73FFD3E00204B214A35
:1021C0001B5CD16F9E4033000B43D3671E4B185CE2
:1021D000FFF768FBA37A0420032B2FD8FA211B4AB0
:1021E00089000198D65CFEF791F919497043FEF712
:1021F0008DF92378FF22BB406861617813400B435F
:10220000AB64A378E178BB4013400B43EB642379C4
:102210006179BB4013400B432B65A379E179BB4047
:1022200013400B436B65637A0020BB401340227A56
:102230003A401343AB65E37ABB402B60FEBDC0461A
:10224000D433000004800440D0330000C8330000C1
:1022500040420F00002310B50360FFF7EDFC044A75
:102260000449105C01228240CB6F9343CB6710BDC1
:10227000D433000004800440F0B5022380240360BE
:10228000640043682342FCD0174DAB4201D116488D
:10229000F0BD5C05A40F05D0022C0CD00023036018
:1022A0000120F5E70123802403646400436823428E
:1022B000FCD0AB42EBD0002A14D0802703240126A7
:1022C0007F005B0A2340022BE8D10B78013A43647C
:1022D00001310664002A05D043683B42FCD0AB4282
:1022E000EFD1D4E70020D3E7D3190000F0B50223E3
:1022F00080240360640043682342FCD0174DAB4246
:1023000001D11648F0BD5C05A40F05D0012C0CD0FE
:10231000002303600120F5E70123802403646400A7
:1023200043682342FCD0AB42EBD0002A13D0802676
:10233000032476005B0A2340012BE9D1476C013A64
:102340000F7003640131002A05D043683342FCD08A
:10235000AB42EFD1D5E70020D4E7C046D319000047
:10236000F8B505000C001700081D2C2200211E00E6
:1023700000F058FD2800FFF75FFC0022A31DA762B4
:10238000E662DA770A4B8200D4500A4B0A4A24608C
:102390001A6081231B02EB60084B1B56002B06DBE7
:1023A0001F2213401E3A9A401300054A1360F8BDDD
:1023B000A40000109C000010011B0000CC330000A2
:1023C00000E100E0F0B5812500242D02C5604E1D1E
:1023D0000300F07F0C614C61CC608C61CC610634F1
:1023E00014430122471EB8418C60F27792181A609C
:1023F000034F5A68404238405A609D60F0BDC04665
:10240000C81900000420002A06D04B1DDB7FD8B27B
:10241000002B02D1106006207047CB6900201360AA
:10242000FAE781231B02C36000234A1D0360D377B0
:102430004B618B617047000010B5034B034819686E
:10244000FFF750FB10BDC046A4000010000005407F
:1024500010B5034B03485968FFF744FB10BDC04655
:10246000A40000100040054010B5034B03489968D4
:10247000FFF738FB10BDC046A40000100000074065
:10248000F0B5CE469946030C9C46130447461B0CF8
:102490001D000E0061460404240C80B50700100CDA
:1024A0004B436543414360432C0CC01824188C46B1
:1024B000A34203D980235B029846C444494679432A
:1024C0005643230C2D042D0C8919634424046019F0
:1024D000C918C0BCB946B046F0BDC046F0B55746B5
:1024E0004E464546DE46E0B504000D00924699464C
:1024F00083B08B4230D82DD049465046FEF7C0F904
:10250000290006002000FEF7BBF9331A9846203B4D
:1025100034D49B4653465A46934042461F00534686
:1025200093401E00AF423BD8AF4200D179E05B46FA
:10253000A41BBD41002B00DA76E0002200230092AC
:10254000019301235A46934001930123424693404D
:10255000009329E08242CFD9002200230092019308
:102560000C9B002B01D01C605D600098019903B0AA
:10257000F0BCBB46B246A946A046F0BD42469B46CB
:1025800020239B1A5246DA40414613004A468A40AD
:10259000170042461F43534693401E00AF42C3D923
:1025A00000220023009201934346002BD8D0FB0762
:1025B00072081A4346467B080EE0AB4201D1A242A4
:1025C0000CD8A41A9D41012024196D410021013E1F
:1025D00024184D41002E06D0AB42EED9013E2419FD
:1025E0006D41002EF8D1009801995B4600196941B0
:1025F000002B24DB2B005A464446D3402A00E240FD
:102600001C005B461500002B2ADB26009E40330091
:1026100026004746BE403200801A99410090019141
:102620009EE7A342BCD882E74246202300219B1AA2
:102630000022009101920122DA40019285E7424690
:1026400020239B1A2A0046469A402300F340444622
:1026500013432A00E2401C005B461500002BD4DA2D
:1026600042462F002023260097409B1ADE403B0065
:102670003343CDE7F8B5CE46474680B591469846F8
:1026800004000D0000F014F807000E0002000B001B
:1026900048464146FFF7F4FE241A8D41089B380056
:1026A00031001C605D60C0BCB946B046F8BDC04694
:1026B000F0B5D6464F464646C0B504000D001000A2
:1026C000190082B0002D00DA87E0002B0BDB16002A
:1026D0001F00AB4219D90020002102B0E0BCBA466D
:1026E000B146A846F0BD002746428F41AF4204D80C
:1026F00000D082E0A64200D87FE0002000218FE0D9
:10270000002746428F419F42E5D8AF4200D198E072
:102710000023994639003000FEF7B2F880462900C0
:102720002000FEF7ADF843461B1A9846203B00D523
:102730007CE0310099409A460B00310040468140D0
:102740000A00AB425FD85CD05146A41A9D410029D3
:1027500000DA93E00021002001260090019151460B
:102760008E400196414601268E4041460096002942
:1027700050D0D90756080E435F0841460122002376
:102780000CE0AF4201D1A6420AD8A41BBD412419D6
:102790006D410139A4185D41002906D0AF42F0D93E
:1027A000013924196D410029F8D100980199534647
:1027B00000196941002B48DB2E002C00DE40434607
:1027C000DC405346002B50DB34009C402300444641
:1027D000A6403200801A99411EE000236242AB41BC
:1027E00014001D0000298BDB06000F00994200D960
:1027F00071E702D1904200D96DE701235B4299460F
:1028000088E7A142A0D90021002000900191414613
:102810000029AED1009801994B46002B00D15CE70E
:1028200003000C0000215842A14156E742463800FF
:102830009A462023310090409B1AD94003000B4355
:102840007BE7A64200D863E745E7424620239B1A70
:102850002A009A40260013004246D6402C001E4310
:102860004346DC405346002BAEDA42462023350077
:1028700094409B1ADD4023002B43A8E741462026C5
:102880000127761A00200021F7400090019101975E
:1028900068E7C046074B10B50400002B02D00021AA
:1028A00000E000BF044B1B68002B00D098472000BD
:1028B00000F0B0FC00000000F401001070B500262C
:1028C0000C4C0D4D641BA410A64209D1002600F04B
:1028D00097FD0A4C0A4D641BA410A64205D170BD99
:1028E000B300EB5898470136EEE7B300EB58984732
:1028F0000136F2E7203400002034000024340000C8
:1029000020340000002310B59A4200D110BDCC5CE9
:10291000C4540133F8E7000010B5034B01001868F8
:1029200000F030F810BDC0461400001010B5034B85
:102930000100186800F07EFA10BDC04614000010B7
:1029400070B50F4E0D0031680400002902D100F06F
:1029500027FA30602900200000F022FA431C03D13E
:1029600001256D42280070BD0323C51C9D43A8426C
:10297000F8D0291A200000F013FA0130F2D1EFE765
:10298000B4000010F7B50322CB1C934308330500B5
:102990001F000C2B34D20C27B94233D8280000F08A
:1029A000EFF9374E33681C00002C2FD13900280076
:1029B000FFF7C6FF0400431C5FD134680094009BFE
:1029C000002B4AD1002C52D023682800E31800992C
:1029D000019300F0E5F9019B834248D12368280068
:1029E000FF1A3900FFF7ACFF013040D02368DB1934
:1029F000236033685A68002A33D1009B336019E0A2
:102A0000002BC9DA0C232B600020FEBD2168C91BF6
:102A100020D40B290AD9E2192760A34204D13260DD
:102A200063681160536005E05A60F9E76268A34289
:102A30000ED13260280000F0ABF9200007220B30E5
:102A4000231D9043C21A9842DFD01B1AA350DCE723
:102A50005A60EFE723006468A6E7009C6368009370
:102A6000ADE71A005B68A342FBD10023DAE70C2331
:102A700028002B6000F08CF9C6E70760DAE7C04653
:102A8000B8000010002310B50400036043608360A9
:102A900081814366C2810361436183611900082219
:102AA0005C3000F0BFF90B4B246263620A4BA362F7
:102AB0000A4BE3620A4B23630A4B9C4205D00A4B44
:102AC0009C4202D0094B9C4203D12000583000F0B8
:102AD000FCF910BDE52C0000112D0000492D00006F
:102AE000752D0000BC000010240100108C010010A6
:102AF00010B5034A0349044800F078F910BDC046F8
:102B000008000010E13000001800001041680B4B75
:102B100010B50400994201D000F0E2FAA168084B18
:102B2000994202D0200000F0DBFAE168054B99429F
:102B300002D0200000F0D4FA10BDC046BC00001046
:102B4000240100108C0100104B6E10B5DB0705D47A
:102B50008B899B0502D4886D00F0BBF9002010BD65
:102B60004B6E10B5DB0705D48B899B0502D4886DAD
:102B700000F0B5F9002010BD10B5094B094A042139
:102B80001A6009480022FFF77DFF0122092107484A
:102B9000FFF778FF022212210548FFF773FF10BDEF
:102BA000F4010010F12A0000BC0000102401001004
:102BB0008C01001010B5024800F08BF910BDC04622
:102BC000FF01001010B5024800F089F910BDC046A1
:102BD000FF010010F8B50700FFF7ECFF244B1B685E
:102BE000002B01D1FFF7C8FF224EB4687368013B88
:102BF0000FD53568002D38D1D62138004900FFF7B0
:102C0000C1FE041E26D13060FFF7DCFF0C233B60C1
:102C10001CE00C22A55E002D1AD12000164B583066
:102C2000E360656600F051F9FFF7CCFF2000082251
:102C300029002560A560656025616561A5615C303E
:102C400000F0F0F86563A563A564E5642000F8BDB5
:102C50006834CCE70423D022056043600C3029009F
:102C6000A060520000F0DEF834603668BDE7C04670
:102C7000F4010010080000100100FFFF10B504006F
:102C8000FFF798FF236A002B02D0FFF79BFF10BDD0
:102C9000044B2362044B1B68002BF6D1FFF76CFF3B
:102CA000F3E7C0460D2B0000F401001010B5FFF74C
:102CB00081FF0020024A034900F098F810BDC04689
:102CC00008000010492B000010B5044A04490020F8
:102CD00000F08CF8FFF776FF10BDC046080000102A
:102CE000612B000070B50C000E25495F00F050FA12
:102CF000002803DB636D1B18636570BDA389024A5E
:102D00001340A381F9E7C046FFEFFFFF00207047A3
:102D1000F8B51F008B8905000C001600DB0505D5F2
:102D20000E23C95E0022022300F01EFAA389054A81
:102D300028001340A38132000E23E15E3B0000F027
:102D400041F8F8BDFFEFFFFF70B50C000E25495F9D
:102D500000F00AFAA389421C03D1054A1340A3815B
:102D600070BD802252011343A3816065F8E7C0461D
:102D7000FFEFFFFF10B50E23C95E00F0B1F810BDE4
:102D800010B5024800F0A5F810BDC046FC010010C7
:102D900010B5024800F0A3F810BDC046FC010010B9
:102DA000002370B5064D040008002B6000F01CFAEB
:102DB000431C03D12B68002B00D0236070BDC0469C
:102DC0000002001070B50400080011001A00002372
:102DD000054D2B6000F016FA431C03D12B68002B25
:102DE00000D0236070BDC04600020010F7B514008B
:102DF000002600900191A5686768013F04D524680A
:102E0000002CF8D13000FEBDAB89012B08D90E2271
:102E1000AB5E013304D029000098019B984706431C
:102E20006835EAE703008218934200D170471970B1
:102E30000133F9E770B505000C1E10D0043C23687F
:102E4000002B00DAE4182800FFF79AFF1D4A1368E8
:102E5000002B05D1636014602800FFF799FF70BD57
:102E6000A34208D9206821188B42F3D119685B6806
:102E700009182160EEE71A005B68002B01D0A3421D
:102E8000F9D911685018A0420BD1206809185018C0
:102E900011608342E0D118685B684118116053608B
:102EA000DAE7A04202D90C232B60D5E7206821186D
:102EB0008B4203D119685B68091821606360546014
:102EC000CAE7C046B80000107047704770477047A7
:102ED0007047704701207047012070477047704766
:102EE000002370B5064D040008002B6000F064F963
:102EF000431C03D12B68002B00D0236070BDC0465B
:102F0000000200102E4B70B51B68040083424FD0A6
:102F1000C369002B17D0DB68002B0DD00025E369B7
:102F2000DB685959002944D10435802DF7D1E36974
:102F30002000D968FFF77EFFE3691968002902D0F5
:102F40002000FFF777FF6169002902D02000FFF71A
:102F500071FFE169002902D02000FFF76BFF216BB0
:102F6000002902D02000FFF765FF616B002902D025
:102F70002000FFF75FFFA16B002902D02000FFF7C0
:102F800059FFA16C002902D02000FFF753FF616CAC
:102F9000002902D02000FFF74DFFE16A002902D08E
:102FA0002000FFF747FF236A002B01D0200098473D
:102FB00070BD0E682000FFF73DFF3100B2E7C0464C
:102FC00014000010F7B50C228B5E05000C001A07E8
:102FD00061D44A68002A02DC0A6C002A42DDE76AF2
:102FE000002F3FD0002280202E682A601A00400166
:102FF000216A0240034227D0626DA3895B0706D590
:103000006368D21A636B002B01D0236CD21A0023A1
:103010002800E76A216AB847431C25D00023636073
:1030200023692360A389DB0400D56065616B2E6092
:10303000002917D023004433994202D02800FFF71B
:10304000F9FE002363630DE001232800B847020066
:10305000431CD2D12B68002BCFD01D2B01D0162BB7
:1030600031D12E60002035E02B680C21625E002BF0
:1030700008D01D2B01D0162B0AD1002363602369D1
:103080002360D3E7636023692360D204CDD4CDE706
:10309000402313431BE00E69002EE3D00F680E603F
:1030A000BA1B019200229B0700D14A69A260019BD2
:1030B000002BD7DDA36A32001F002800019B216A84
:1030C000B847002807DC4023A28913431BB2012024
:1030D000A3814042FEBD019B36181B1A0193E6E70F
:1030E0000B6970B505000C00002B02D100252800EB
:1030F00070BD002804D0036A002B01D1FFF7BEFD8C
:103100000C22A35E002BF1D0626ED20704D49B0583
:1031100002D4A06DFFF7DDFE28002100FFF752FF6B
:10312000636E0500DB07E2D4A3899B05DFD4A06DA5
:10313000FFF7D5FEDBE70000010010B5002805D140
:10314000054A06490648FFF751FE10BD054B1868B1
:10315000FFF7C6FFF9E7C04608000010E1300000A5
:10316000180000101400001070B5040008001100D1
:103170001A000023054D2B6000F026F8431C03D1F4
:103180002B68002B00D0236070BDC04600020010E9
:1031900070B50400080011001A000023054D2B60D3
:1031A00000F01AF8431C03D12B68002B00D02360D9
:1031B00070BDC0460002001058220120014B404261
:1031C0001A6070470002001058220120014B404253
:1031D0001A6070470002001058220120014B404243
:1031E0001A60704700020010044A030010680028AB
:1031F00002D0C318136070470148FAE704020010B8
:103200000802001058220120014B40421A6070470A
:1032100000020010FEE7C0463D400B401040264033
:1032200035400340064014400E400D4025401240FA
:1032300028400240184009400A4000000D0A0D0ACB
:103240000A0A4558504552494D454E542035202DC7
:10325000205041525420310D0A007E7E7E7E7E7EBB
:103260007E7E7E7E7E7E7E7E7E7E7E7E7E7E7E7E7E
:103270000A0A0A000A4C4D373520436F6E666967AB
:1032800075726174696F6E0A000A092A20000A0AC1
:10329000416C61726D20436F6E666967757261740F
:1032A000696F6E0A000A092A205570706572204104
:1032B0006C61726D2054656D7065726174757265B4
:1032C000203D20002043656C636975732044656769
:1032D000726565000A092A204C6F77657220416C7F
:1032E00061726D2054656D706572617475726520D0
:1032F0003D20002043656C636975732044656772E7
:1033000065650A0D0A0D000A5B494E464F5D3A207D
:1033100049324320696E697469616C697A617469C4
:103320006F6E20636F6D706C6574652E0D0A0054AE
:103330003D002064656720430A0D0025642E0025AA
:10334000640030300051756575652056616C756597
:10335000203D20310A0051756575652056616C75F8
:1033600065203D20320A0051756575652056616CF7
:103370007565203D20340A005175657565205661DC
:103380006C7565203D20360A00000000C02709004A
:1033900090051000C05C1500F0B31A00200B20004F
:1033A000009F2400E0322900C0C62D005097310054
:1033B000E06735007038390000093D0040164000D4
:1033C00080234300C0304600FA64320A080715160D
:1033D000060E0F10051516173D400B4010402640F5
:1033E00035400340064014400E400D402540124039
:1033F00028400240184009400A4000000000000038
:10340000F8B5C046F8BC08BC9E467047F8B5C04643
:08341000F8BC08BC9E467047A1
:08341800E8CEFF7F0100000077
:043420004909000056
:043424001D0900007E
:1034280000000000001BB7000000000003000000BF
:10343800BC0000101800001000000000BC000010C4
:10344800240100108C0100100000000000000000A2
:103458000000000000000000000000000000000064
:103468000000000000000000000000000000000054
:103478000000000000000000000000000000000044
:043488000000000040
:040000030000038175
:00000001FF
