:100000000020001085030000FD030000FD03000038
:1000100000000000000000000000000000000000E0
:10002000000000000000000000000000FD030000D0
:100030000000000000000000FD0300007902000045
:10004000FD030000FD030000FD030000FD030000B0
:10005000FD030000FD030000FD030000FD030000A0
:10006000FD030000FD030000FD030000FD03000090
:10007000FD030000FD030000FD030000FD03000080
:10008000FD030000FD030000FD030000FD03000070
:10009000FD030000FD030000FD030000FD03000060
:1000A000FD030000FD030000FD030000FD03000050
:1000B000FD030000FD030000FD030000FD03000040
:1000C00080B500AF594B00221A60594B1A68584B43
:1000D00040210A431A60574B1A68564B56490A404A
:1000E0001A60544B1A68534B8021C9000A431A60A6
:1000F000524B00221A60524B00221A60514B0122CF
:100100001A60514B01221A60504B01221A60504B69
:10011000180000F0D5F84F4B00221A604E4B012218
:100120001A604E4B01221A604D4B1B68012B16D1F1
:100130004C4B1B68002B07D14A4B01221A604A4BDB
:100140001B685A1C484B1A60474B1B68042B02DD86
:10015000454B00221A60322000F09EF802E0414B2D
:1001600000221A60414B1B68012B1ED1404B1B68BB
:10017000002B07D13E4B01221A603B4B1B689A1C97
:10018000394B1A60384B1B68052B03D1364B0022C4
:100190001A6006E0344B1B68062B02D1324B012259
:1001A0001A60322000F078F802E0314B00221A6029
:1001B0002D4B1B68042B36D89A002E4BD3181B6886
:1001C0009F46244B00221A60234B01221A60234BC6
:1001D00001221A6028E01F4B01221A601E4B0022E8
:1001E0001A601E4B01221A601EE01A4B01221A608F
:1001F000194B01221A60194B00221A6014E0154BAA
:1002000000221A60144B00221A60144B00221A605C
:100210000AE0104B01221A600F4B01221A600F4BAB
:1002200001221A6000E0C0467EE7C04600000010D0
:100230008080044004800440FFFBFFFF152000A0E5
:10024000142000A0112000A0122000A0132000A064
:1002500030750000110000A0120000A0130000A0E3
:10026000150000A00800001004000010140000A0F9
:100270000C0000100404000080B500AF054B1B68A3
:10028000002B04D0034B1B685A1E024B1A60C04659
:10029000BD4680BD0000001080B582B000AF786020
:1002A000064B7A681A60C046044B1B68002BFBD1D2
:1002B000C046C046BD4602B080BDC046000000102A
:1002C00080B582B000AF78607A6880235B049A4280
:1002D00001D301230CE07B681B021A0A064B013A8A
:1002E0001A60064B00221A60054B07221A60002391
:1002F0001800BD4602B080BD14E000E018E000E048
:1003000010E000E080B500AF164B1A68154B802155
:100310000A431A60144B00221A60144B24221A60FC
:10032000134B00221A60124B01221A600D4B1A68FF
:100330000C4B80218A431A60C0460E4B1B68012279
:100340001340FAD00C4B03221A600C4B00221A60A7
:100350000A4B01221A600A4B02221A60C046BD46AF
:1003600080BDC0463882044040800440088004407C
:10037000448004400C800440708004407480044039
:100380007880044080B584B000AFFFF7BBFF164B08
:10039000FB60164BBB60164A144BD31A7B6007E018
:1003A000FA68531CFB60BB68591CB96012781A705C
:1003B0007B685A1E7A60002BF2D10E4BBB600E4A4E
:1003C0000C4BD31A7B6004E0BB685A1CBA60002255
:1003D0001A707B685A1E7A60002BF5D1FFF770FE09
:1003E000C046BD4604B080BD1804000000000010E7
:1003F00000000010000000101000001080B500AFD9
:04040000FEE7C0460D
:10040400C2010000D6010000EA010000FE01000064
:0404140012020000D0
:00000001FF
