:10000000002000100D0300008503000085030000A0
:1000100000000000000000000000000000000000E0
:100020000000000000000000000000008503000048
:1000300000000000000000008503000085030000B0
:100040008503000085030000850300008503000090
:100050008503000085030000850300008503000080
:100060008503000085030000850300008503000070
:100070008503000085030000850300008503000060
:100080008503000085030000850300008503000050
:100090008503000085030000850300008503000040
:1000A0008503000085030000850300008503000030
:1000B00085030000850300008503000080B500AFC4
:1000C0005B4B1A685A4B40210A431A60594B1A6815
:1000D000584B59490A401A60564B1A68554B8021B3
:1000E000C9000A431A60554B1A68544B54490A40D8
:1000F0001A60524B1A68514BE02109030A431A60F7
:10010000504B00221A70504B01221A704F4B0122A3
:100110001A704F4B1B78DBB2012B17D14D4B1B686C
:10012000002B07D14B4B01221A604B4B1B685A1C0A
:10013000494B1A60484B1B68042B02DD464B0022DA
:100140001A60464B180000F08FF802E0414B002285
:100150001A60434B1B78DBB2012B1FD1414B1B684C
:10016000002B07D13F4B01221A603B4B1B689A1CA6
:10017000394B1A60384B1B68052B03D1364B0022D4
:100180001A6006E0344B1B68062B02D1324B012269
:100190001A60324B180000F067F802E0314B002281
:1001A0001A602D4B1B68002B09D1264B00221A70B8
:1001B000254B01221A70254B01221A70A9E7264B04
:1001C0001B68012B09D11F4B01221A701E4B002204
:1001D0001A701E4B01221A709BE71F4B1B68022BE3
:1001E00009D1184B01221A70174B01221A70174BB4
:1001F00000221A708DE7184B1B68032B09D1114B95
:1002000000221A70104B00221A70104B00221A7034
:100210007FE7114B1B68042B00D07AE7094B0122C2
:100220001A70094B01221A70084B01221A7070E7EC
:100230008080044004800440FFFBFFFF002000A0FA
:10024000FFFFCFFF110000A0120000A0130000A0CC
:10025000150000A00400001000000010A08601009E
:10026000140000A00800001080B584B000AF7860D2
:100270007B68FB6002E0FB68013BFB60FB68002BD6
:10028000F9DCC046C046BD4604B080BD80B500AFB5
:10029000164B1A68154B80210A431A60144B002232
:1002A0001A60144B24221A60134B00221A60124B5E
:1002B00001221A600D4B1A680C4B80218A431A6088
:1002C000C0460E4B1B6801221340FAD00C4B032290
:1002D0001A600C4B00221A600A4B01221A600A4B6A
:1002E00002221A60C046BD4680BDC0463882044026
:1002F0004080044008800440448004400C80044056
:1003000070800440748004407880044080B584B0DC
:1003100000AFFFF7BBFF164BFB60164BBB60164AE6
:10032000144BD31A7B6007E0FA68531CFB60BB6870
:10033000591CB96012781A707B685A1E7A60002BBB
:10034000F2D10E4BBB600E4A0C4BD31A7B6004E01B
:10035000BB685A1CBA6000221A707B685A1E7A6009
:10036000002BF5D1FFF7AAFEC046BD4604B080BD04
:100370008C030000000000100000001000000010BE
:0C0380000C00001080B500AFFEE7C04686
:00000001FF
