:10000000E01F0010F50B00002D0C0000310C00006B
:1000100000000000000000000000000000000000E0
:10002000000000000000000000000000350C00008F
:100030000000000000000000390C00003D0C000032
:10004000410C0000450C0000490C00004D0C000064
:10005000510C0000550C0000590C00005D0C000014
:10006000610C0000650C0000810300006D0C0000B5
:10007000710C0000750C0000790C00007D0C000074
:10008000810C0000850C0000890C00008D0C000024
:10009000910C0000950C0000990C00009D0C0000D4
:1000A000A10C0000A50C0000A90C0000AD0C000084
:1000B000B10C0000B50C0000B90C0000BD0C000034
:0402FC00FFFFFFFF02
:10030000402292029A1A92467047C046174B002B21
:1003100000D1134B9D46FFF7F3FF00218B460F469C
:100320001348144A121A01F085FC0E4B002B00D022
:1003300098470D4B002B00D0984700200021040067
:100340000D000D48002802D00C4800E000BF01F06D
:10035000C7F92000290000F039FF01F0ADF9C046CF
:10036000000008000000000000000000E01F001076
:1003700064000010EC01001000000000000000000C
:100380000123024AD360024A1370704700400040C4
:10039000640000108E2373B50125022100260F4C46
:1003A0009B00E2586846AA43E250E2588A43E25072
:1003B0000B4B1E606B461E710A4B009300F07CFADB
:1003C000C020800000F064FBFF22074B1E60A36F7B
:1003D00093431D43A56700F009F873BD00800440F6
:1003E0004080044000879303E080044010B51E4C19
:1003F0000020636ADB051B0F013B0E2B02D81B4A52
:100400009B0098580322616A236F1340022B11D07E
:10041000934216D0012B24D1206C10400338431E88
:100420009841134B40421840A16F00F09FFC114CC3
:10043000206010BD1F2319400131490000F096FCD7
:10044000F2E7A268206C1F2118400338434258414C
:10045000094B40421840064B0A40C0180132504335
:10046000E2E70348E0E7C04600800440282000009F
:10047000001BB7000000001000E548FF704710B5F2
:10048000044B054A9360054B054A1A60FFF7F6FFD7
:1004900010BDC0460000000000ED00E000000010AC
:1004A000001BB700431E70B55B184D420C002B407B
:1004B000984201D9002070BD05225242521A9A4238
:1004C000F8D3081DC01801F02FF90028F2D003342A
:1004D00023181D40034A2B1F281A58801A80280011
:1004E000E9E7C04639300000031F054A198810B5F6
:1004F000914203D15B88C01A01F020F910BDC046BB
:10050000393000000A0010B500280BD00023190074
:1005100000F0C8FE0023044A00F0C2FD001C0138B0
:100520000028FCD110BDC04600093D004023044A0C
:1005300010B5D16F0A200B43D36700F0F9FA10BD54
:100540000480044070B54024104DEE6F3443EC67D6
:1005500001249440220080241E788D00A401002EE6
:1005600004D145192B5993432B5170BD5B78002B57
:1005700009D18A231B01C91889000A50401903595F
:1005800013430351F1E78823F4E7C0460480044095
:10059000EFF3108172B60720064A13688343136095
:1005A000054A033813698343136130BF81F3108810
:1005B0007047C0460000024000ED00E010B5EFF3C8
:1005C000108172B607230C4C22689A43063B1343F2
:1005D0008C222360094C9200A35883430420A3502B
:1005E000074B1A6902431A6130BF1A6982431A61C4
:1005F00081F3108810BDC046000002400080044016
:1006000000ED00E010B5EFF3108172B607230C4C3B
:1006100022689A43053B13438C222360094C9200C5
:10062000A35883430420A350074B1A6902431A615D
:1006300030BF1A6982431A6181F3108810BDC04629
:10064000000002400080044000ED00E0EFF3108164
:1006500072B60F23084802689A430C3B13430360A9
:100660000420064B1A6902431A6130BF1A6982439B
:100670001A6181F3108870470000024000ED00E02D
:1006800030B50E4A172811D9050001238121183DE4
:10069000AB408900545823435350002805DB1F23E7
:1006A00018401E3B8340064A136030BD012385215C
:1006B00083408900545823435350F0E7008004409E
:1006C00000E100E010B5002809DB1F2201230240F1
:1006D00093400B4AD367BFF34F8FBFF36F8F094B24
:1006E000172808D98124A4001A59183801218140FB
:1006F0008A431A5110BD8524A4001A59F6E7C04652
:1007000004E100E00080044003688B430360036859
:100710000B43036003681942FCD0704700487047E0
:10072000001BB7008E23044A9B00D35800209B0671
:1007300001D4024B1868704700800440700000101C
:100740000A4B10B5186C03231840012807D09842B3
:1007500008D043425841064B4042184010BDFFF7B5
:10076000E1FFFBE7034B1868F8E7C0460080044050
:10077000001BB7007000001010B50D4C0020236F57
:10078000032B06D8180000F0E7FA10020508FFF75F
:10079000D7FF10BD074B5868FBE7FFF7D1FF1F22BB
:1007A000A368134001335843F3E70348F1E7C04619
:1007B0000080044070000010001BB7000F4B10B504
:1007C0001C680F4B00201B68E4B2032B06D81800EE
:1007D00000F0C2FA12020C0FFFF7A4FF002C03D0A6
:1007E000210000F0C3FA0400200010BD054B58683A
:1007F000F4E7FFF7C1FFF1E70348EFE7E8800440C3
:10080000E080044070000010001BB70010B5FFF737
:10081000B3FF0A4BFF241A681300234022420BD077
:10082000074A010E1268000222400132FF325A4389
:10083000002300F035FC0300180010BD9480044034
:10084000F480044010B5FFF7E1FF10BD10B5FFF7CD
:10085000DDFF10BD10B5FFF7D9FF10BD10B507289B
:1008600021D800F079FA060E2004111720140F4841
:1008700010BDFFF781FF0E4B996FC9B200F076FAF9
:10088000F6E7FFF779FFF3E70A4B1868F0E7094B43
:100890005868EDE7FFF754FF1F22054B9B68134094
:1008A00001335843E4E70020E2E7C046001BB700ED
:1008B00000800440700000108E22802370B51F4C11
:1008C0009200A15806000B430321A350236C226C15
:1008D0008B43134302791A4813432364FFF714FF31
:1008E000FFF72EFF366801000500300000F03EFAE9
:1008F000144A0023964208D8134A0133964204D87A
:100900000023124AB2425B4102331F26A168421EF5
:1009100032406036B1430A435B0113438E2280218B
:10092000A3609200A3588B43A3500123E2681A42AC
:10093000FCD06843064B986070BDC0460080044000
:1009400044800440802FA604C0175302E08B290185
:10095000700000101821074A10B5D36A064C8B436B
:10096000D362E022054952008B5823408B50044B40
:10097000186010BD00400440FFFDFFFF00C00040B4
:10098000700000101821104A10B5936B04008B43BF
:100990009363E02240200D4952008B5883438B50D3
:1009A0000B4BC03A196AFF3A0A438E211A6289003A
:1009B0005A5820388243DA305A5040000549FFF730
:1009C000A1FD054B1C6010BD0040044000C000406C
:1009D0000080044080C3C901700000101821154B2D
:1009E00010B55A6B04008A435A639A6BC0208A433D
:1009F0009A63E022104952008B5883438B500F4971
:100A0000BD380B6A0A6A834313430D4A1D30A24264
:100A100092415242520013438E220B6292008B5835
:100A20008343DA308B5040000649FFF76BFD064BDD
:100A30001C6010BD0040044000C000400080044025
:100A4000C0E1E40080C3C9017000001070B5F0255A
:100A50000D4CC20C636A6D005B0A2A405B021A43AC
:100A6000C23D4B08FF3D013B2B4013438E22636286
:100A70009200A3582135AB430002A350000A00F0B6
:100A800075F9024B586070BD008004407000001082
:100A900010B503240949020A0B6F23409A420BD078
:100AA000C0B2002808D10B6F2240A34313430B6749
:100AB00003480121FFF728FE10BDC0460080044016
:100AC00074800440F8B50400FFF756FE114B060091
:100AD0001B685C43211E1BD00021A04218D32100BB
:100AE00000F044F90021012812D80B0022000D006B
:100AF0003400FF27A41A9D41074829020760200EF1
:100B00000143200200F0CCFA0121044B3840186068
:100B10000800F8BD94800440F0800440F480044054
:100B200010B501210148FFF7EFFD10BDE48004403E
:100B300001228240034B59689143596059680A4326
:100B40005A60704700800440032310B5FF240B4017
:100B5000DB009C409A408908890040180168A14345
:100B60000A43026010BD002A07D0002904DBE022FE
:100B7000520083588B43835070470029FCDBE023ED
:100B80005B00C2581143C150F6E7890093B2401888
:100B9000120D8018036070478023054A10B5D16F8D
:100BA000DB000B430720D367FFF7C2FF10BDC04631
:100BB0000480044080231B06044A0360036103622F
:100BC0000363D36F02490B40D3677047048004402E
:100BD000FFFBFFFF30B5062509014418A4682C402F
:100BE000022C01D0002B02D080231B061A43425056
:100BF00030BDC04672B6074880470749074A084BD0
:100C00009B1A03DD043BC858D050FBDC62B6054894
:100C1000804700007F040000D82000000000001082
:100C2000640000100D0300002548004725480047D8
:100C300025480047254800472548004725480047E4
:100C400025480047254800472548004725480047D4
:100C500025480047254800472548004725480047C4
:100C600025480047254800472548004725480047B4
:100C700025480047254800472548004725480047A4
:100C80002548004725480047254800472548004794
:100C90002548004725480047254800472548004784
:100CA0002548004725480047254800472548004774
:100CB0002548004725480047254800472548004764
:100CC000290C00002D0C0000310C0000350C000038
:100CD000390C00003D0C0000290C0000290C00001C
:100CE000290C0000290C0000290C0000290C000030
:100CF000290C0000290C0000290C0000290C000020
:100D0000290C0000290C0000290C0000290C00000F
:100D1000290C0000290C0000290C0000290C0000FF
:100D2000290C0000290C0000290C0000290C0000EF
:100D3000290C0000290C0000290C0000290C0000DF
:100D4000290C0000290C0000290C0000290C0000CF
:100D5000290C0000290C000002B471464908490022
:100D6000095C49008E4402BC7047C046002243081B
:100D70008B4274D303098B425FD3030A8B4244D363
:100D8000030B8B4228D3030C8B420DD3FF220902A5
:100D900012BA030C8B4202D31212090265D0030B64
:100DA0008B4219D300E0090AC30B8B4201D3CB035A
:100DB000C01A5241830B8B4201D38B03C01A52419C
:100DC000430B8B4201D34B03C01A5241030B8B429E
:100DD00001D30B03C01A5241C30A8B4201D3CB0289
:100DE000C01A5241830A8B4201D38B02C01A52416E
:100DF000430A8B4201D34B02C01A5241030A8B4271
:100E000001D30B02C01A5241CDD2C3098B4201D388
:100E1000CB01C01A524183098B4201D38B01C01A06
:100E2000524143098B4201D34B01C01A524103097D
:100E30008B4201D30B01C01A5241C3088B4201D32C
:100E4000CB00C01A524183088B4201D38B00C01AD9
:100E5000524143088B4201D34B00C01A5241411A00
:100E600000D20146524110467047FFE701B500200D
:100E700000F0F0F802BDC0460029F7D076E77047D1
:100E800003460B437FD4002243088B4274D30309EB
:100E90008B425FD3030A8B4244D3030B8B4228D38C
:100EA000030C8B420DD3FF22090212BA030C8B42B2
:100EB00002D31212090265D0030B8B4219D300E052
:100EC000090AC30B8B4201D3CB03C01A5241830BD7
:100ED0008B4201D38B03C01A5241430B8B4201D387
:100EE0004B03C01A5241030B8B4201D30B03C01AB0
:100EF0005241C30A8B4201D3CB02C01A5241830A2A
:100F00008B4201D38B02C01A5241430A8B4201D358
:100F10004B02C01A5241030A8B4201D30B02C01A82
:100F20005241CDD2C3098B4201D3CB01C01A5241E9
:100F300083098B4201D38B01C01A524143098B4272
:100F400001D34B01C01A524103098B4201D30B015B
:100F5000C01A5241C3088B4201D3CB00C01A524180
:100F600083088B4201D38B00C01A524143088B4245
:100F700001D34B00C01A5241411A00D201465241DE
:100F8000104670475DE0CA0F00D04942031000D3FD
:100F90004042534000229C4603098B422DD3030A52
:100FA0008B4212D3FC22890112BA030A8B420CD362
:100FB000890192118B4208D3890192118B4204D38B
:100FC00089013AD0921100E08909C3098B4201D30B
:100FD000CB01C01A524183098B4201D38B01C01A45
:100FE000524143098B4201D34B01C01A52410309BC
:100FF0008B4201D30B01C01A5241C3088B4201D36B
:10100000CB00C01A524183088B4201D38B00C01A17
:101010005241D9D243088B4201D34B00C01A5241EE
:10102000411A00D20146634652415B10104601D37B
:101030004042002B00D54942704763465B1000D305
:10104000404201B5002000F005F802BD0029F8D0AB
:1010500016E770477047C046002B15D1002A13D100
:10106000002906DB01DC002806D00020C04341082F
:1010700002E080210906002007B4024801A14018BF
:10108000029003BDD1FFFFFF03B4684601B502988B
:1010900000F002FA019B9E4602B00CBC7047C046AD
:1010A000002B11D1002A0FD1002900D1002802D035
:1010B0000021C943080007B4024802A14018029069
:1010C00003BDC04691FFFFFF03B4684601B5029817
:1010D00000F016F9019B9E4602B00CBC7047C0465A
:1010E00010B5002903D100F007F8203002E0080015
:1010F00000F002F810BDC0461C2101231B049842D9
:1011000001D3000C10391B0A984201D3000A083998
:101110001B09984201D30009043902A2105C40184F
:101120007047C046040302020101010100000000F3
:10113000000000000448054B10B5834203D0044B67
:10114000002B00D0984710BD640000106400001010
:101150000000000006480749091A8B10C90FC9187A
:1011600010B5491003D0044B002B00D0984710BD98
:1011700064000010640000100000000010B5074C6F
:101180002378002B09D1FFF7D5FF054B002B02D0A8
:10119000044800E000BF0123237010BD7C00001054
:1011A00000000000AC200000054B10B5002B03D060
:1011B0000449054800E000BFFFF7CCFF10BDC04662
:1011C0000000000080000010AC20000073B58026F5
:1011D000FFF7E0F82F4BF600DA6FA0203243DA6712
:1011E00040220124D96F01AD0A43DA6700210006CD
:1011F0002C80FFF79BF9A0202B0011220021000674
:10120000FFF7A0F9A0202B00122200210006FFF713
:1012100099F9A0202B00204D132200210006FFF792
:1012200091F969462800FFF7B7FC0622AB68002059
:101230009343AB60FFF712FB6421FFF797FD286033
:10124000AB682343AB60154B1E60A0220021144DF8
:10125000120668682B7A2E78002EFCD001303228D6
:1012600004D10133DBB20020042B05D0022B09D0BE
:10127000032B0BD0012B03D1230054749174D17430
:101280002970E8E751749474D174F9E7517491743A
:10129000D474F5E7048004400040004000E100E021
:1012A00064000010F0B5CE469946030C9C4613042A
:1012B00047461B0C1D000E0061460404240C80B53B
:1012C0000700100C4B436543414360432C0CC0188E
:1012D00024188C46A34203D980235B029846C44459
:1012E000494679435643230C2D042D0C8919634438
:1012F00024046019C918C0BCB946B046F0BDC04648
:10130000F0B557464E464546DE46E0B504000D00B2
:101310009246994683B08B4230D82DD049465046EC
:10132000FFF7DEFE290006002000FFF7D9FE331A82
:101330009846203B34D49B4653465A4693404246F7
:101340001F00534693401E00AF423BD8AF4200D12E
:1013500079E05B46A41BBD41002B00DA76E0002259
:1013600000230092019301235A46934001930123E5
:1013700042469340009329E08242CFD900220023C5
:10138000009201930C9B002B01D01C605D600098C3
:10139000019903B0F0BCBB46B246A946A046F0BDD9
:1013A00042469B4620239B1A5246DA404146130090
:1013B0004A468A40170042461F43534693401E0048
:1013C000AF42C3D900220023009201934346002B71
:1013D000D8D0FB0772081A4346467B080EE0AB42A2
:1013E00001D1A2420CD8A41A9D41012024196D41BB
:1013F0000021013E24184D41002E06D0AB42EED90B
:10140000013E24196D41002EF8D1009801995B46E8
:1014100000196941002B24DB2B005A464446D34077
:101420002A00E2401C005B461500002B2ADB260048
:101430009E40330026004746BE403200801A994144
:10144000009001919EE7A342BCD882E74246202348
:1014500000219B1A0022009101920122DA400192A0
:1014600085E7424620239B1A2A0046469A402300DD
:10147000F340444613432A00E2401C005B4615003B
:10148000002BD4DA42462F002023260097409B1AD7
:10149000DE403B003343CDE7F8B5CE46474680B546
:1014A0009146984604000D0000F014F807000E0065
:1014B00002000B0048464146FFF7F4FE241A8D4116
:1014C000089B380031001C605D60C0BCB946B04666
:1014D000F8BDC046F0B5D6464F464646C0B50400F6
:1014E0000D001000190082B0002D00DA87E0002BFB
:1014F0000BDB16001F00AB4219D90020002102B0FF
:10150000E0BCBA46B146A846F0BD002746428F412E
:10151000AF4204D800D082E0A64200D87FE000208D
:1015200000218FE0002746428F419F42E5D8AF421D
:1015300000D198E00023994639003000FFF7D0FD34
:10154000804629002000FFF7CBFD43461B1A984632
:10155000203B00D57CE0310099409A460B003100D9
:10156000404681400A00AB425FD85CD05146A41A85
:101570009D41002900DA93E000210020012600901F
:10158000019151468E400196414601268E404146CA
:101590000096002950D0D90756080E435F084146EF
:1015A000012200230CE0AF4201D1A6420AD8A41BBD
:1015B000BD4124196D410139A4185D41002906D0AF
:1015C000AF42F0D9013924196D410029F8D10098B2
:1015D0000199534600196941002B48DB2E002C006D
:1015E000DE404346DC405346002B50DB34009C4039
:1015F00023004446A6403200801A99411EE0002391
:101600006242AB4114001D0000298BDB06000F0075
:10161000994200D971E702D1904200D96DE70123C8
:101620005B42994688E7A142A0D9002100200090A2
:10163000019141460029AED1009801994B46002BFB
:1016400000D15CE703000C0000215842A14156E79D
:10165000424638009A462023310090409B1AD940D8
:1016600003000B437BE7A64200D863E745E7424609
:1016700020239B1A2A009A40260013004246D64097
:101680002C001E434346DC405346002BAEDA424654
:101690002023350094409B1ADD4023002B43A8E70C
:1016A000414620260127761A00200021F7400090AD
:1016B0000191019768E7C046074B10B50400002B65
:1016C00002D0002100E000BF044B1B68002B00D0BB
:1016D0009847200000F0A6FC00000000D801001090
:1016E00070B500260C4C0D4D641BA410A64209D108
:1016F000002600F0DDFC0A4C0A4D641BA410A64233
:1017000005D170BDB300EB5898470136EEE7B30042
:10171000EB5898470136F2E7D0200000D0200000B7
:10172000D4200000D020000010B5034B0100186841
:1017300000F030F810BDC0461400001010B5034B87
:101740000100186800F07EFA10BDC04614000010B9
:1017500070B50F4E0D0031680400002902D100F071
:1017600027FA30602900200000F022FA431C03D140
:1017700001256D42280070BD0323C51C9D43A8426E
:10178000F8D0291A200000F013FA0130F2D1EFE767
:1017900098000010F7B50322CB1C934308330500D3
:1017A0001F000C2B34D20C27B94233D8280000F08C
:1017B000EFF9374E33681C00002C2FD13900280078
:1017C000FFF7C6FF0400431C5FD134680094009B00
:1017D000002B4AD1002C52D023682800E31800992E
:1017E000019300F0E5F9019B834248D1236828006A
:1017F000FF1A3900FFF7ACFF013040D02368DB1936
:10180000236033685A68002A33D1009B336019E0A3
:10181000002BC9DA0C232B600020FEBD2168C91BF8
:1018200020D40B290AD9E2192760A34204D13260DF
:1018300063681160536005E05A60F9E76268A3428B
:101840000ED13260280000F0ABF9200007220B30E7
:10185000231D9043C21A9842DFD01B1AA350DCE725
:101860005A60EFE723006468A6E7009C6368009372
:10187000ADE71A005B68A342FBD10023DAE70C2333
:1018800028002B6000F08CF9C6E70760DAE7C04655
:101890009C000010002310B50400036043608360C7
:1018A00081814366C281036143618361190008221B
:1018B0005C3000F0BFF90B4B246263620A4BA362F9
:1018C0000A4BE3620A4B23630A4B9C4205D00A4B46
:1018D0009C4202D0094B9C4203D12000583000F0BA
:1018E000FCF910BDF51A0000211B0000591B000077
:1018F000851B0000A00000100801001070010010FE
:1019000010B5034A0349044800F078F910BDC046F9
:1019100008000010F11E00001800001041680B4B79
:1019200010B50400994201D000F0E2FAA168084B1A
:10193000994202D0200000F0DBFAE168054B9942A1
:1019400002D0200000F0D4FA10BDC046A000001064
:1019500008010010700100104B6E10B5DB0705D4B4
:101960008B899B0502D4886D00F0BBF9002010BD67
:101970004B6E10B5DB0705D48B899B0502D4886DAF
:1019800000F0B5F9002010BD10B5094B094A04213B
:101990001A6009480022FFF77DFF0122092107484C
:1019A000FFF778FF022212210548FFF773FF10BDF1
:1019B000D801001001190000A0000010080100105B
:1019C0007001001010B5024800F08BF910BDC04640
:1019D000E301001010B5024800F089F910BDC046BF
:1019E000E3010010F8B50700FFF7ECFF244B1B687C
:1019F000002B01D1FFF7C8FF224EB4687368013B8A
:101A00000FD53568002D38D1D62138004900FFF7B1
:101A1000C1FE041E26D13060FFF7DCFF0C233B60C3
:101A20001CE00C22A55E002D1AD12000164B583068
:101A3000E360656600F051F9FFF7CCFF2000082253
:101A400029002560A560656025616561A5615C3040
:101A500000F0F0F86563A563A564E5642000F8BDB7
:101A60006834CCE70423D022056043600C302900A1
:101A7000A060520000F0DEF834603668BDE7C04672
:101A8000D8010010080000100100FFFF10B504008D
:101A9000FFF798FF236A002B02D0FFF79BFF10BDD2
:101AA000044B2362044B1B68002BF6D1FFF76CFF3D
:101AB000F3E7C0461D190000D801001010B5FFF76C
:101AC00081FF0020024A034900F098F810BDC0468B
:101AD000080000105919000010B5044A04490020FC
:101AE00000F08CF8FFF776FF10BDC046080000102C
:101AF0007119000070B50C000E25495F00F050FA16
:101B0000002803DB636D1B18636570BDA389024A5F
:101B10001340A381F9E7C046FFEFFFFF00207047A5
:101B2000F8B51F008B8905000C001600DB0505D5F4
:101B30000E23C95E0022022300F01EFAA389054A83
:101B400028001340A38132000E23E15E3B0000F029
:101B500041F8F8BDFFEFFFFF70B50C000E25495F9F
:101B600000F00AFAA389421C03D1054A1340A3815D
:101B700070BD802252011343A3816065F8E7C0461F
:101B8000FFEFFFFF10B50E23C95E00F0B1F810BDE6
:101B900010B5024800F0A5F810BDC046E0010010E5
:101BA00010B5024800F0A3F810BDC046E0010010D7
:101BB000002370B5064D040008002B6000F01CFAED
:101BC000431C03D12B68002B00D0236070BDC0469E
:101BD000E401001070B50400080011001A00002391
:101BE000054D2B6000F016FA431C03D12B68002B27
:101BF00000D0236070BDC046E4010010F7B51400AA
:101C0000002600900191A5686768013F04D524680B
:101C1000002CF8D13000FEBDAB89012B08D90E2273
:101C2000AB5E013304D029000098019B984706431E
:101C30006835EAE703008218934200D170471970B3
:101C40000133F9E770B505000C1E10D0043C236881
:101C5000002B00DAE4182800FFF79AFF1D4A1368EA
:101C6000002B05D1636014602800FFF799FF70BD59
:101C7000A34208D9206821188B42F3D119685B6808
:101C800009182160EEE71A005B68002B01D0A3421F
:101C9000F9D911685018A0420BD1206809185018C2
:101CA00011608342E0D118685B684118116053608D
:101CB000DAE7A04202D90C232B60D5E7206821186F
:101CC0008B4203D119685B68091821606360546016
:101CD000CAE7C0469C0000107047704770477047C5
:101CE0007047704701207047012070477047704768
:101CF000002370B5064D040008002B6000F064F965
:101D0000431C03D12B68002B00D0236070BDC0465C
:101D1000E40100102E4B70B51B68040083424FD0C5
:101D2000C369002B17D0DB68002B0DD00025E369B9
:101D3000DB685959002944D10435802DF7D1E36976
:101D40002000D968FFF77EFFE3691968002902D0F7
:101D50002000FFF777FF6169002902D02000FFF71C
:101D600071FFE169002902D02000FFF76BFF216BB2
:101D7000002902D02000FFF765FF616B002902D027
:101D80002000FFF75FFFA16B002902D02000FFF7C2
:101D900059FFA16C002902D02000FFF753FF616CAE
:101DA000002902D02000FFF74DFFE16A002902D090
:101DB0002000FFF747FF236A002B01D0200098473F
:101DC00070BD0E682000FFF73DFF3100B2E7C0464E
:101DD00014000010F7B50C228B5E05000C001A07EA
:101DE00061D44A68002A02DC0A6C002A42DDE76AF4
:101DF000002F3FD0002280202E682A601A00400168
:101E0000216A0240034227D0626DA3895B0706D591
:101E10006368D21A636B002B01D0236CD21A0023A3
:101E20002800E76A216AB847431C25D00023636075
:101E300023692360A389DB0400D56065616B2E6094
:101E4000002917D023004433994202D02800FFF71D
:101E5000F9FE002363630DE001232800B847020068
:101E6000431CD2D12B68002BCFD01D2B01D0162BB9
:101E700031D12E60002035E02B680C21625E002BF2
:101E800008D01D2B01D0162B0AD1002363602369D3
:101E90002360D3E7636023692360D204CDD4CDE708
:101EA000402313431BE00E69002EE3D00F680E6041
:101EB000BA1B019200229B0700D14A69A260019BD4
:101EC000002BD7DDA36A32001F002800019B216A86
:101ED000B847002807DC4023A28913431BB2012026
:101EE000A3814042FEBD019B36181B1A0193E6E711
:101EF0000B6970B505000C00002B02D100252800ED
:101F000070BD002804D0036A002B01D1FFF7BEFD8D
:101F10000C22A35E002BF1D0626ED20704D49B0585
:101F200002D4A06DFFF7DDFE28002100FFF752FF6D
:101F3000636E0500DB07E2D4A3899B05DFD4A06DA7
:101F4000FFF7D5FEDBE70000010010B5002805D142
:101F5000054A06490648FFF751FE10BD054B1868B3
:101F6000FFF7C6FFF9E7C04608000010F11E0000A9
:101F7000180000101400001070B5040008001100D3
:101F80001A000023054D2B6000F026F8431C03D1F6
:101F90002B68002B00D0236070BDC046E401001008
:101FA00070B50400080011001A000023054D2B60D5
:101FB00000F01AF8431C03D12B68002B00D02360DB
:101FC00070BDC046E401001058220120014B404280
:101FD0001A607047E401001058220120014B404272
:101FE0001A607047E401001058220120014B404262
:101FF0001A607047E4010010044A030010680028CA
:1020000002D0C318136070470148FAE7E8010010D6
:10201000F001001058220120014B40421A60704725
:10202000E4010010FEE7C046C0270900900510003B
:10203000C05C1500F0B31A00200B2000009F2400A4
:10204000E0322900C0C62D0050973100E06735000E
:102050007038390000093D004016400080234300DD
:10206000C03046003D400B40104026403540034004
:10207000064014400E400D402540124028400240CA
:10208000184009400A4000003D400B4010402640E7
:1020900035400340064014400E400D40254012409C
:1020A00028400240184009400A400000000000009B
:1020B000F8B5C046F8BC08BC9E467047F8B5C046A7
:0820C000F8BC08BC9E46704705
:0820C80038E2FF7F0100000077
:0420D000A911000052
:0420D4007D1100007A
:1020D800001BB70000000000000000000300000023
:1020E800A00000101800001000000000A000001060
:1020F800080100107001001000000000000000003E
:1021080000000000000000000000000000000000C7
:1021180000000000000000000000000000000000B7
:1021280000000000000000000000000000000000A7
:0421380000000000A3
:0400000300000BF5F9
:00000001FF
