:10000000E01F001081030000B9030000BD030000E1
:1000100000000000000000000000000000000000E0
:10002000000000000000000000000000C10300000C
:100030000000000000000000C5030000B10900003E
:10004000CD030000D1030000D5030000D903000058
:10005000DD030000E1030000E5030000E903000008
:10006000ED030000F1030000F5030000F9030000B8
:10007000FD03000001040000050400000904000065
:100080000D04000011040000150400001904000014
:100090001D040000210400002504000029040000C4
:1000A0002D04000031040000350400003904000074
:1000B0003D04000041040000450400004904000024
:0402FC00FFFFFFFF02
:10030000402292029A1A92467047C046174B002B21
:1003100000D1134B9D46FFF7F3FF00218B460F469C
:100320001348144A121A02F049F80E4B002B00D061
:1003300098470D4B002B00D0984700200021040067
:100340000D000D48002802D00C4800E000BF01F06D
:100350008BFD2000290000F03DFB01F071FDC0463F
:10036000000008000000000000000000E01F001076
:1003700078000010380200100000000000000000AB
:1003800072B6074880470749074A084B9B1A03DDA6
:10039000043BC858D050FBDC62B6054880470000DB
:1003A000BD0D000060280000000000107800001063
:1003B0000D03000025480047254800472548004711
:1003C000254800472548004725480047254800475D
:1003D000254800472548004725480047254800474D
:1003E000254800472548004725480047254800473D
:1003F000254800472548004725480047254800472D
:10040000254800472548004725480047254800471C
:10041000254800472548004725480047254800470C
:1004200025480047254800472548004725480047FC
:1004300025480047254800472548004725480047EC
:10044000254800472548004725480047B5030000D8
:10045000B9030000BD030000C1030000C503000094
:10046000B1090000B5030000B5030000B5030000AA
:10047000B5030000B5030000B5030000B50300009C
:10048000B5030000B5030000191A0000B503000011
:10049000B5030000B5030000B5030000B50300007C
:1004A000B5030000B5030000B5030000B50300006C
:1004B000B5030000B5030000B5030000B50300005C
:1004C000B5030000B5030000B5030000B50300004C
:1004D000B5030000B5030000B5030000B50300003C
:1004E000B503000002B4714649084900095C49009F
:1004F0008E4402BC7047C046002243088B4274D32E
:1005000003098B425FD3030A8B4244D3030B8B4214
:1005100028D3030C8B420DD3FF22090212BA030C1D
:100520008B4202D31212090265D0030B8B4219D3FE
:1005300000E0090AC30B8B4201D3CB03C01A52411E
:10054000830B8B4201D38B03C01A5241430B8B4266
:1005500001D34B03C01A5241030B8B4201D30B034F
:10056000C01A5241C30A8B4201D3CB02C01A524176
:10057000830A8B4201D38B02C01A5241430A8B4239
:1005800001D34B02C01A5241030A8B4201D30B0222
:10059000C01A5241CDD2C3098B4201D3CB01C01A3C
:1005A000524183098B4201D38B01C01A5241430946
:1005B0008B4201D34B01C01A524103098B4201D334
:1005C0000B01C01A5241C3088B4201D3CB00C01AA1
:1005D000524183088B4201D38B00C01A5241430819
:1005E0008B4201D34B00C01A5241411A00D201463E
:1005F000524110467047FFE701B5002000F0F0F8C7
:1006000002BDC0460029F7D076E7704703460B438A
:100610007FD4002243088B4274D303098B425FD3FB
:10062000030A8B4244D3030B8B4228D3030C8B4227
:100630000DD3FF22090212BA030C8B4202D312120D
:10064000090265D0030B8B4219D300E0090AC30BE2
:100650008B4201D3CB03C01A5241830B8B4201D38F
:100660008B03C01A5241430B8B4201D34B03C01A78
:100670005241030B8B4201D30B03C01A5241C30AF0
:100680008B4201D3CB02C01A5241830A8B4201D361
:100690008B02C01A5241430A8B4201D34B02C01A4B
:1006A0005241030A8B4201D30B02C01A5241CDD2F0
:1006B000C3098B4201D3CB01C01A524183098B423B
:1006C00001D38B01C01A524143098B4201D34B0124
:1006D000C01A524103098B4201D30B01C01A524187
:1006E000C3088B4201D3CB00C01A524183088B420E
:1006F00001D38B00C01A524143088B4201D34B00F7
:10070000C01A5241411A00D2014652411046704768
:100710005DE0CA0F00D04942031000D3404253406D
:1007200000229C4603098B422DD3030A8B4212D32D
:10073000FC22890112BA030A8B420CD3890192115F
:100740008B4208D3890192118B4204D389013AD09C
:10075000921100E08909C3098B4201D3CB01C01A71
:10076000524183098B4201D38B01C01A5241430984
:100770008B4201D34B01C01A524103098B4201D372
:100780000B01C01A5241C3088B4201D3CB00C01ADF
:10079000524183088B4201D38B00C01A5241D9D2F7
:1007A00043088B4201D34B00C01A5241411A00D278
:1007B0000146634652415B10104601D34042002B74
:1007C00000D54942704763465B1000D3404201B5F3
:1007D000002000F005F802BD0029F8D016E77047A8
:1007E0007047C046002B15D1002A13D1002906DB23
:1007F00001DC002806D00020C043410802E080212F
:100800000906002007B4024801A14018029003BD68
:10081000D1FFFFFF03B4684601B5029801F000FA6A
:10082000019B9E4602B00CBC7047C046002B11D104
:10083000002A0FD1002900D1002802D00021C9438D
:10084000080007B4024802A14018029003BDC04648
:1008500091FFFFFF03B4684601B5029801F014F957
:10086000019B9E4602B00CBC7047C04610B50029E3
:1008700003D100F007F8203002E0080000F002F891
:1008800010BDC0461C2101231B04984201D3000C5B
:1008900010391B0A984201D3000A08391B099842F3
:1008A00001D30009043902A2105C40187047C04609
:1008B0000403020201010101000000000000000029
:1008C0000448054B10B5834203D0044B002B00D0E5
:1008D000984710BD7800001078000010000000005C
:1008E00006480749091A8B10C90FC91810B54910D5
:1008F00003D0044B002B00D0984710BD78000010A7
:10090000780000100000000010B5074C2378002B81
:1009100009D1FFF7D5FF054B002B02D0044800E0BA
:1009200000BF0123237010BD7800001000000000FC
:1009300034280000054B10B5002B03D004490548AE
:1009400000E000BFFFF7CCFF10BDC0460000000074
:100950007C000010342800008E2373B5012502218D
:1009600000260F4C9B00E2586846AA43E250E2582A
:100970008A43E2500B4B1E606B461E710A4B00937C
:1009800000F038FCC020800000F020FDFF22074B63
:100990001E60A36F93431D43A56700F0C5F973BDA7
:1009A000008004404080044000879303E0800440BE
:1009B000034B1A68002A02D01A68013A1A6070477D
:1009C000A0000010024B18601A68002AFCD1704782
:1009D000A0000010F0B58DB000F07AF9FFF7BCFF71
:1009E000FA21A94B89001868FFF786FD802301389A
:1009F0005B0498420DD2C021A44A09065060A44865
:100A0000036A1B021B0A0B43036200239360073334
:100A100013608024A02005AD0021640000062C8016
:100A200000F022FAA0202B0009220021000600F08D
:100A300027FAA0202B0008220021000600F020FA4F
:100A4000A0202B0000210722000600F019FA914B8C
:100A5000914FDA6F09A81443DC67904B3E003B606E
:100A600000F0C4FD09A98E4800F04EFD82238D4F91
:100A700002AA5B0013823B6806A993748A4B012289
:100A800001930293336886480093884B00F086FEFA
:100A90000623874D02AAFF3393822B6807A993751B
:100AA000844B01220193039333687D4800937F4B6D
:100AB00000F074FE0423804C02AAFF3313832368E2
:100AC00008A993767D4B0122019333687448009303
:100AD000764B00F063FE042271494B6893434B60F0
:100AE000A0231B065B7A764E012B3DD1754A3378E5
:100AF0001278134338D1744E3378002B10D1322042
:100B0000FFF760FFA0231B065B7A012B06D16F491C
:100B10000B785A1CD2B2022A23D80A7001233370F0
:100B20006A4B1E78012E00D18FE0022E00D198E092
:100B3000002ED5D13A68029BD2B21B6804215848D6
:100B400000F060FD3200039B1B680521544800F053
:100B500059FD0022594B1B680321514800F052FDFA
:100B6000BEE7023B0B70D9E7A0231B061B7A012BC3
:100B700030D1554B534A1B78127813432AD133781E
:100B8000002BCDD13220FFF71DFFA0231B061B7ABF
:100B9000012BC3D14D4B1B78012B0BD0022B11D055
:100BA000002BBBD13B6805333B2B01DC3B60B5E739
:100BB0003C23FBE72B6805333B2B01DC2B60ADE7C7
:100BC0003C23FBE7236805333B2B01DC2360A5E7CF
:100BD0003C23FBE7A0231B06DB793B4A012B2ED1EC
:100BE000137831780B432AD13220FFF7EBFEA02394
:100BF0001B06DB79012B0CD1344B1B78012B0ED05B
:100C0000022B14D0002B04D13B68053B052B04DDDF
:100C10003B6001222B4B1A7082E70523F8E72B6813
:100C2000053B052B01DD2B60F3E70523FBE723687C
:100C3000053B052B01DD2360EBE70523FBE70023E4
:100C40001370204A337013706AE7029B00221B68FE
:100C50000421134800F0D6FC2A68039BD2B21B681B
:100C600073E7029B002204211B680D4800F0CAFCB8
:100C7000039B00221B680521094800F0C3FC0F4BB1
:100C800022681B68D2B267E71800001010E000E08D
:100C900000ED00E0048004409400001080C3C9010E
:100CA000004000500C00001098000010C05D0000D3
:100CB00008000010140000100400001010000010C4
:100CC0009E0000109D0000109F0000109C0000106E
:100CD000F8B58023114CDB02E26F302713438022EA
:100CE000E367E36F0E4E0F4D1343E3672800376051
:100CF00023216F3A00F0C6FB2800B7671222242197
:100D000000F0C0FB776728001322222100F0BAFB15
:100D10008022E36F9343E367F8BDC046048004403C
:100D20000040044000C0004010B51E4C0020636A23
:100D3000DB051B0F013B0E2B02D81B4A9B0098586A
:100D40000322616A236F1340022B11D0934216D005
:100D5000012B24D1206C10400338431E9841134BC3
:100D600040421840A16FFFF7C7FB114C206010BD37
:100D70001F23194001314900FFF7BEFBF2E7A268CB
:100D8000206C1F211840033843425841094B404210
:100D90001840064B0A40C01801325043E2E70348AE
:100DA000E0E7C04600800440D4270000001BB700E5
:100DB0001800001000E548FF7047000010B5044B14
:100DC000044A9360044B054A1A60FFF7F5FF10BD13
:100DD0000000000000ED00E018000010001BB7004C
:100DE000431E70B55B184D420C002B40984201D950
:100DF000002070BD05225242521A9A42F8D3081DB3
:100E0000C01801F055F80028F2D0033423181D4013
:100E1000034A2B1F281A58801A802800E9E7C04689
:100E200039300000031F054A198810B5914203D1DB
:100E30005B88C01A01F046F810BDC046393000008A
:100E40000A0010B500280BD00023190000F0EEFDB9
:100E50000023044AFFF7EAFC001C01380028FCD1FB
:100E600010BDC04600093D004023044A10B5D16FB3
:100E70000A200B43D36700F0F9FA10BD0480044048
:100E800070B54024104DEE6F3443EC67012494405C
:100E9000220080241E788D00A401002E04D1451963
:100EA0002B5993432B5170BD5B78002B09D18A23BA
:100EB0001B01C91889000A504019035913430351F3
:100EC000F1E78823F4E7C04604800440EFF3108183
:100ED00072B60720064A136883431360054A033835
:100EE00013698343136130BF81F310887047C04694
:100EF0000000024000ED00E010B5EFF3108172B683
:100F000007230C4C22689A43063B13438C22236030
:100F1000094C9200A35883430420A350074B1A693D
:100F200002431A6130BF1A6982431A6181F3108843
:100F300010BDC046000002400080044000ED00E00B
:100F400010B5EFF3108172B607230C4C22689A4358
:100F5000053B13438C222360094C9200A358834322
:100F60000420A350074B1A6902431A6130BF1A6963
:100F700082431A6181F3108810BDC0460000024010
:100F80000080044000ED00E0EFF3108172B60F2303
:100F9000084802689A430C3B134303600420064B45
:100FA0001A6902431A6130BF1A6982431A6181F3D8
:100FB000108870470000024000ED00E030B50E4A96
:100FC000172811D9050001238121183DAB40890064
:100FD000545823435350002805DB1F2318401E3B61
:100FE0008340064A136030BD012385218340890078
:100FF000545823435350F0E70080044000E100E0E0
:1010000010B5002809DB1F220123024093400B4A40
:10101000D367BFF34F8FBFF36F8F094B172808D9E2
:101020008124A4001A591838012181408A431A5199
:1010300010BD8524A4001A59F6E7C04604E100E07B
:101040000080044003688B43036003680B43036024
:1010500003681942FCD0704700487047001BB70076
:101060008E23044A9B00D35800209B0601D4024BD8
:101070001868704700800440AC0000100A4B10B59F
:10108000186C03231840012807D0984208D0434227
:101090005841064B4042184010BDFFF7E1FFFBE707
:1010A000034B1868F8E7C04600800440001BB700F7
:1010B000AC00001010B50D4C0020236F032B06D898
:1010C0001800FFF70FFA10020508FFF7D7FF10BD51
:1010D000074B1868FBE7FFF7D1FF1F22A3681340F7
:1010E00001335843F3E70348F1E7C046008004406A
:1010F000A8000010001BB7000F4B10B51C680F4B69
:1011000000201B68E4B2032B06D81800FFF7EAF9A9
:1011100012020C0FFFF7A4FF002C03D02100FFF7F1
:10112000EBF90400200010BD054B1868F4E7FFF749
:10113000C1FFF1E70348EFE7E8800440E0800440A6
:10114000A8000010001BB70010B5FFF7B3FF0A4B53
:10115000FF241A681300234022420BD0074A010ED5
:101160001268000222400132FF325A430023FFF787
:101170005DFB0300180010BD94800440F48004401F
:1011800010B5FFF7E1FF10BD10B5FFF7DDFF10BD93
:1011900010B5FFF7D9FF10BD10B5072820D8FFF70D
:1011A000A1F9060E1F0411161F140E4810BDFFF7FB
:1011B00081FF0D4B996FC9B2FFF79EF9F6E7FFF774
:1011C00079FFF3E7094B1868F0E7094BFBE7FFF7F6
:1011D00055FF1F22044B9B68134001335843E5E73A
:1011E0000020E3E7001BB70000800440AC000010C3
:1011F000A80000108E22802370B51F4C9200A158C9
:1012000006000B430321A350236C226C8B43134332
:1012100002791A4813432364FFF714FFFFF72EFFE8
:101220003668010005003000FFF766F9144A002314
:10123000964208D8134A0133964204D80023124A32
:10124000B2425B4102331F26A168421E3240603623
:10125000B1430A435B0113438E228021A3609200B5
:10126000A3588B43A3500123E2681A42FCD0684381
:10127000064B186070BDC0460080044044800440A6
:10128000802FA604C0175302E08B2901A400001090
:101290001821074A10B5D36A064C8B43D362E0226B
:1012A000054952008B5823408B50044B186010BDE9
:1012B00000400440FFFDFFFF00C00040AC000010F4
:1012C0001821104A10B5936B04008B439363E022FE
:1012D00040200D4952008B5883438B500B4BC03A32
:1012E000196AFF3A0A438E211A6289005A58203837
:1012F0008243DA305A5040000549FFF7A1FD054B03
:101300001C6010BD0040044000C00040008004404C
:1013100080C3C901AC0000101821154B10B55A6BE1
:1013200004008A435A639A6BC0208A439A63E0227E
:10133000104952008B5883438B500F49BD380B6ABC
:101340000A6A834313430D4A1D30A242924152421E
:10135000520013438E220B6292008B588343DA3083
:101360008B5040000649FFF76BFD064B1C6010BD1B
:101370000040044000C0004000800440C0E1E400A0
:1013800080C3C901AC00001070B5F0250D4CC20C33
:10139000636A6D005B0A2A405B021A43C23D4B0838
:1013A000FF3D013B2B4013438E2263629200A35802
:1013B0002135AB430002A350000AFFF79DF8024B12
:1013C000186070BD00800440A800001010B5032410
:1013D0000949020A0B6F23409A420BD0C0B2002881
:1013E00008D10B6F2240A34313430B67034801212D
:1013F000FFF728FE10BDC046008004407480044002
:10140000F8B50400FFF756FE114B06001B685C435D
:10141000211E1BD00021A04218D32100FFF76CF839
:101420000021012812D80B0022000D003400FF27F4
:10143000A41A9D41074829020760200E014320029B
:10144000FFF7F4F90121044B384018600800F8BD9B
:1014500094800440F0800440F480044010B50121E1
:101460000148FFF7EFFD10BDE480044001228240F7
:10147000034B59689143596059680A435A60704751
:1014800000800440032310B5FF240B40DB009C4088
:101490009A408908890040180168A1430A43026004
:1014A00010BD002A07D0002904DBE0225200835837
:1014B0008B43835070470029FCDBE0235B00C2585C
:1014C0001143C150F6E70000F7B5002501270B4E88
:1014D0000B4B34681B68234001933C4205D0094AFA
:1014E000AB00D358002B00D09847640802D00135D8
:1014F000082DF2D1019B3360F7BDC046F440005087
:10150000F0400050C40000108023284A70B50D0040
:10151000D16F5B000B430400D3670820FFF7A6FFE1
:1015200078210620AB782A78DB000B4069784900E7
:101530000140F0200B43297A400149020140134346
:101540000B432360EB7869791B0149010B430421AC
:101550000B436360082361680B436360002A0FD16B
:101560002B79AA791B055205134380226168D202A8
:101570000B4313436360802362681B031343636060
:10158000EB79202223650024094B21001C60094BC4
:1015900009481C60094B1C60094B1C6000F00EFFE1
:1015A000084B094A20001A6070BDC0460480044000
:1015B000C0000010BC000010C4000010B8000010F3
:1015C000B4000010B0000010C91400004268044BC1
:1015D00004491343044A4360D36F0B40D3677047F9
:1015E00004000400FFFEFFFF0480044010B5082241
:1015F00004000021013000F0E1FE012323700E33CE
:10160000237210BDF7B504000800A030C0002018F8
:1016100040680F270190C120C326DD0065198000B6
:101620002858B60038404030AD59800000596668EF
:101630003D400B3F37436760632A1AD90127019E5B
:10164000DB193A00DE408A40236D3E420FD013433F
:1016500023650230AD0065192B00FC3358608023F0
:1016600004229B00E850636893436360F7BD934393
:10167000EEE70023190000F0D9F964220023FFF7F8
:10168000D5F8E7E7F7B5040040481500066808AA52
:10169000012012780193072E1DD88B040F009B0F99
:1016A000022B19D1F022019B92009B0113403200C2
:1016B0006032D2000B43A21853600122344B002049
:1016C0001B689A4033006033DB001A51099B2F4A94
:1016D0001E6001361660FEBD0921D940014205D0C9
:1016E000019B9901F0239B0019400F4301239A426B
:1016F00019D1236810001342EDD126490A68072A40
:10170000E9D89300E3181800ADB2FE304580802080
:10171000800017431D5233006033DB00E3180132B1
:101720005F600A60C9E7022A1FD1226818001A42C6
:10173000D1D119490A68072ACDD83B001027134395
:101740001F439300E3181800FE3040882D042843FF
:10175000AC461D00FC356860802080001D5A604644
:101760000543802080001D50D5E71800042AB2D11F
:1017700022681A42AFD007490A68072AABD89300FB
:10178000E3181800FC3017434560EAE7C00000107A
:10179000BC000010B8000010B4000010F0B51D002F
:1017A000002387B004930593544B0E001B6804007C
:1017B000023341680292082B02D9012007B0F0BD24
:1017C0004909C9B20C980131FEF796FE029B012B24
:1017D00008D162680F33134363606900FEF78CFE23
:1017E000050006E0029B002BF7D12900FEF784FEDE
:1017F000451EB278632A43D9AB1C0393042780218A
:1018000004AB2A0001934901002320000097FFF751
:1018100039FF802105AB0500019320000023039AC6
:1018200000974901FFF72EFF2843C6D1012211007E
:10183000049D6B46A94003911100A7681B7B3B43A5
:10184000A3600D9B17001D60059D3378A9400D0016
:1018500071789F408C46DE0091422ED10299284A31
:10186000002918D1236DA619BB432365A024E400E9
:10187000335903990B433351B3582B43B3509DE76E
:1018800000232800190000F0D1F864220023FEF79D
:10189000CDFF0390B2E7216DA61939432165B158F8
:1018A0005B002943B15003219940626D8A43614630
:1018B00099400B001343636580E7029900290BD11F
:1018C000236DA6193B4323650D4B0399F258114331
:1018D000A022F150D200CFE7216DA619B943A0276D
:1018E0002165FF00F1595B00294303259D409A4083
:1018F000F151616DA9430A4362655FE7C0000010C2
:1019000004050000064B10B51C680123C022A3404B
:10191000C9004018920081580B43835010BDC04647
:10192000BC000010044A01201368072B02D81B18C2
:10193000002013607047C046BC000010014B1868BF
:101940007047C046BC00001070B501249440094E99
:10195000CB00C3189D5922002543A0249D51E400CB
:101960001D5949002A431A5103238B40826D1343AA
:10197000836570BD04050000F7B5040000920129DD
:1019800001D004291DD11E4D01202968072917D82F
:1019900080278E00A619BF00F25B4C3494460200EB
:1019A0009A4013006246884013439BB2F353238846
:1019B00003439BB22380009B196001312960002002
:1019C000FEBD104E012031680729F9D880278D000F
:1019D0006519BF00EA5B019202009A4013040A4AAB
:1019E00088401340019A00041343EB5123004C3309
:1019F0001B881843009BE064196001313160DEE709
:101A0000B8000010B400001000F0FF0F014B92006E
:101A100099507047C400001010B5024B02481B6873
:101A2000984710BDB000001000400050F0B5CE4601
:101A30009946030C9C46130447461B0C1D000E00E0
:101A400061460404240C80B50700100C4B43654329
:101A5000414360432C0CC01824188C46A34203D980
:101A600080235B029846C444494679435643230C7D
:101A70002D042D0C8919634424046019C918C0BCB5
:101A8000B946B046F0BDC046F0B557464E4645464D
:101A9000DE46E0B504000D009246994683B08B42C5
:101AA00030D82DD049465046FEF7E0FE290006000A
:101AB0002000FEF7DBFE331A9846203B34D49B46C9
:101AC00053465A46934042461F00534693401E00D9
:101AD000AF423BD8AF4200D179E05B46A41BBD4189
:101AE000002B00DA76E0002200230092019301230C
:101AF0005A4693400193012342469340009329E0C4
:101B00008242CFD900220023009201930C9B002B2C
:101B100001D01C605D600098019903B0F0BCBB4629
:101B2000B246A946A046F0BD42469B4620239B1ADA
:101B30005246DA40414613004A468A401700424660
:101B40001F43534693401E00AF42C3D900220023D7
:101B5000009201934346002BD8D0FB0772081A432A
:101B600046467B080EE0AB4201D1A2420CD8A41A33
:101B70009D41012024196D410021013E24184D4151
:101B8000002E06D0AB42EED9013E24196D41002E45
:101B9000F8D1009801995B4600196941002B24DBBC
:101BA0002B005A464446D3402A00E2401C005B46C4
:101BB0001500002B2ADB26009E40330026004746F6
:101BC000BE403200801A9941009001919EE7A342E5
:101BD000BCD882E74246202300219B1A00220091B4
:101BE00001920122DA40019285E7424620239B1AA6
:101BF0002A0046469A402300F340444613432A00F5
:101C0000E2401C005B461500002BD4DA42462F0050
:101C10002023260097409B1ADE403B003343CDE74C
:101C2000F8B5CE46474680B59146984604000D006B
:101C300000F014F807000E0002000B004846414671
:101C4000FFF7F4FE241A8D41089B380031001C6018
:101C50005D60C0BCB946B046F8BDC046F0B5D646DA
:101C60004F464646C0B504000D001000190082B072
:101C7000002D00DA87E0002B0BDB16001F00AB42C3
:101C800019D90020002102B0E0BCBA46B146A846EE
:101C9000F0BD002746428F41AF4204D800D082E019
:101CA000A64200D87FE0002000218FE000274642B6
:101CB0008F419F42E5D8AF4200D198E0002399467A
:101CC00039003000FEF7D2FD804629002000FEF7E3
:101CD000CDFD43461B1A9846203B00D57CE03100E1
:101CE00099409A460B003100404681400A00AB42C1
:101CF0005FD85CD05146A41A9D41002900DA93E0D8
:101D00000021002001260090019151468E4001964D
:101D1000414601268E4041460096002950D0D90701
:101D200056080E435F084146012200230CE0AF42F3
:101D300001D1A6420AD8A41BBD4124196D41013925
:101D4000A4185D41002906D0AF42F0D90139241909
:101D50006D410029F8D10098019953460019694155
:101D6000002B48DB2E002C00DE404346DC4053466F
:101D7000002B50DB34009C4023004446A640320038
:101D8000801A99411EE000236242AB4114001D00FD
:101D900000298BDB06000F00994200D971E702D1C0
:101DA000904200D96DE701235B42994688E7A14242
:101DB000A0D9002100200090019141460029AED118
:101DC000009801994B46002B00D15CE703000C0002
:101DD00000215842A14156E7424638009A46202346
:101DE000310090409B1AD94003000B437BE7A64289
:101DF00000D863E745E7424620239B1A2A009A4011
:101E0000260013004246D6402C001E434346DC40C9
:101E10005346002BAEDA42462023350094409B1AED
:101E2000DD4023002B43A8E7414620260127761AF0
:101E300000200021F74000900191019768E7C0461B
:101E4000074B10B50400002B02D0002100E000BFBA
:101E5000044B1B68002B00D09847200000F0A6FC24
:101E6000000000002402001070B500260C4C0D4D3F
:101E7000641BA410A64209D1002600F0DDFC0A4C28
:101E80000A4D641BA410A64205D170BDB300EB58E7
:101E900098470136EEE7B300EB5898470136F2E772
:101EA00058280000582800005C280000582800002E
:101EB00010B5034B0100186800F030F810BDC046A3
:101EC0002800001010B5034B0100186800F07EFADE
:101ED00010BDC0462800001070B50F4E0D003168CF
:101EE0000400002902D100F027FA30602900200008
:101EF00000F022FA431C03D101256D42280070BD79
:101F00000323C51C9D43A842F8D0291A200000F0E5
:101F100013FA0130F2D1EFE7E4000010F7B5032225
:101F2000CB1C9343083305001F000C2B34D20C2725
:101F3000B94233D8280000F0EFF9374E33681C005F
:101F4000002C2FD139002800FFF7C6FF0400431CE6
:101F50005FD134680094009B002B4AD1002C52D0F2
:101F600023682800E3180099019300F0E5F9019B2C
:101F7000834248D123682800FF1A3900FFF7ACFFDD
:101F8000013040D02368DB19236033685A68002A87
:101F900033D1009B336019E0002BC9DA0C232B608E
:101FA0000020FEBD2168C91B20D40B290AD9E219E3
:101FB0002760A34204D1326063681160536005E07A
:101FC0005A60F9E76268A3420ED13260280000F03F
:101FD000ABF9200007220B30231D9043C21A984210
:101FE000DFD01B1AA350DCE75A60EFE723006468D8
:101FF000A6E7009C63680093ADE71A005B68A34204
:10200000FBD10023DAE70C2328002B6000F08CF9C9
:10201000C6E70760DAE7C046E8000010002310B505
:10202000040003604360836081814366C281036171
:1020300043618361190008225C3000F0BFF90B4B4B
:10204000246263620A4BA3620A4BE3620A4B236376
:102050000A4B9C4205D00A4B9C4202D0094B9C4241
:1020600003D12000583000F0FCF910BD7D220000A3
:10207000A9220000E12200000D230000EC00001066
:1020800054010010BC01001010B5034A0349044874
:1020900000F078F910BDC0461C0000107926000041
:1020A0002C00001041680B4B10B50400994201D080
:1020B00000F0E2FAA168084B994202D0200000F03B
:1020C000DBFAE168054B994202D0200000F0D4FA17
:1020D00010BDC046EC00001054010010BC010010FF
:1020E0004B6E10B5DB0705D48B899B0502D4886D38
:1020F00000F0BBF9002010BD4B6E10B5DB0705D416
:102100008B899B0502D4886D00F0B5F9002010BDC5
:1021100010B5094B094A04211A6009480022FFF74B
:102120007DFF012209210748FFF778FF02221221D3
:102130000548FFF773FF10BD24020010892000003E
:10214000EC00001054010010BC01001010B5024852
:1021500000F08BF910BDC0462F02001010B50248E8
:1021600000F089F910BDC0462F020010F8B5070035
:10217000FFF7ECFF244B1B68002B01D1FFF7C8FFD2
:10218000224EB4687368013B0FD53568002D38D1F5
:10219000D62138004900FFF7C1FE041E26D1306069
:1021A000FFF7DCFF0C233B601CE00C22A55E002D3A
:1021B0001AD12000164B5830E360656600F051F9E3
:1021C000FFF7CCFF2000082229002560A56065608C
:1021D00025616561A5615C3000F0F0F86563A56379
:1021E000A564E5642000F8BD6834CCE70423D02260
:1021F000056043600C302900A060520000F0DEF85A
:1022000034603668BDE7C046240200101C00001090
:102210000100FFFF10B50400FFF798FF236A002BB1
:1022200002D0FFF79BFF10BD044B2362044B1B68D9
:10223000002BF6D1FFF76CFFF3E7C046A5200000A6
:102240002402001010B5FFF781FF0020024A034965
:1022500000F098F810BDC0461C000010E1200000FE
:1022600010B5044A0449002000F08CF8FFF776FF0F
:1022700010BDC0461C000010F920000070B50C0015
:102280000E25495F00F050FA002803DB636D1B1830
:10229000636570BDA389024A1340A381F9E7C04674
:1022A000FFEFFFFF00207047F8B51F008B89050086
:1022B0000C001600DB0505D50E23C95E00220223A3
:1022C00000F01EFAA389054A28001340A3813200BA
:1022D0000E23E15E3B0000F041F8F8BDFFEFFFFF89
:1022E00070B50C000E25495F00F00AFAA389421C64
:1022F00003D1054A1340A38170BD802252011343CC
:10230000A3816065F8E7C046FFEFFFFF10B50E231D
:10231000C95E00F0B1F810BD10B5024800F0A5F894
:1023200010BDC0462C02001010B5024800F0A3F802
:1023300010BDC0462C020010002370B5064D0400ED
:1023400008002B6000F01CFA431C03D12B68002B03
:1023500000D0236070BDC0463002001070B504008C
:10236000080011001A000023054D2B6000F016FA3A
:10237000431C03D12B68002B00D0236070BDC046E6
:1023800030020010F7B51400002600900191A568F6
:102390006768013F04D52468002CF8D13000FEBDE9
:1023A000AB89012B08D90E22AB5E013304D0290082
:1023B0000098019B984706436835EAE703008218B6
:1023C000934200D1704719700133F9E770B50500E9
:1023D0000C1E10D0043C2368002B00DAE4182800FF
:1023E000FFF79AFF1D4A1368002B05D16360146044
:1023F0002800FFF799FF70BDA34208D92068211873
:102400008B42F3D119685B6809182160EEE71A0066
:102410005B68002B01D0A342F9D911685018A04283
:102420000BD120680918501811608342E0D1186858
:102430005B68411811605360DAE7A04202D90C23AF
:102440002B60D5E7206821188B4203D119685B689F
:102450000918216063605460CAE7C046E8000010B4
:10246000704770477047704770477047012070474A
:102470000120704770477047002370B5064D040077
:1024800008002B6000F064F9431C03D12B68002B7B
:1024900000D0236070BDC046300200102E4B70B5D6
:1024A0001B68040083424FD0C369002B17D0DB6840
:1024B000002B0DD00025E369DB685959002944D170
:1024C0000435802DF7D1E3692000D968FFF77EFF3E
:1024D000E3691968002902D02000FFF777FF6169DE
:1024E000002902D02000FFF771FFE169002902D026
:1024F0002000FFF76BFF216B002902D02000FFF7BF
:1025000065FF616B002902D02000FFF75FFFA16B20
:10251000002902D02000FFF759FFA16C002902D04A
:102520002000FFF753FF616C002902D02000FFF765
:102530004DFFE16A002902D02000FFF747FF236A20
:10254000002B01D02000984770BD0E682000FFF7D7
:102550003DFF3100B2E7C04628000010F7B50C225D
:102560008B5E05000C001A0761D44A68002A02DC61
:102570000A6C002A42DDE76A002F3FD0002280204B
:102580002E682A601A004001216A0240034227D0C7
:10259000626DA3895B0706D56368D21A636B002B53
:1025A00001D0236CD21A00232800E76A216AB847B9
:1025B000431C25D00023636023692360A389DB04C7
:1025C00000D56065616B2E60002917D0230044336D
:1025D000994202D02800FFF7F9FE002363630DE063
:1025E00001232800B8470200431CD2D12B68002BDE
:1025F000CFD01D2B01D0162B31D12E60002035E01D
:102600002B680C21625E002B08D01D2B01D0162BED
:102610000AD10023636023692360D3E763602369E1
:102620002360D204CDD4CDE7402313431BE00E69D1
:10263000002EE3D00F680E60BA1B019200229B07A8
:1026400000D14A69A260019B002BD7DDA36A32004A
:102650001F002800019B216AB847002807DC40239F
:10266000A28913431BB20120A3814042FEBD019BFE
:1026700036181B1A0193E6E70B6970B505000C00CC
:10268000002B02D10025280070BD002804D0036A69
:10269000002B01D1FFF7BEFD0C22A35E002BF1D071
:1026A000626ED20704D49B0502D4A06DFFF7DDFE55
:1026B00028002100FFF752FF636E0500DB07E2D41C
:1026C000A3899B05DFD4A06DFFF7D5FEDBE70000F3
:1026D000010010B5002805D1054A06490648FFF754
:1026E00051FE10BD054B1868FFF7C6FFF9E7C0465D
:1026F0001C000010792600002C000010280000109B
:1027000070B50400080011001A000023054D2B606D
:1027100000F026F8431C03D12B68002B00D0236067
:1027200070BDC0463002001070B5040008001100F2
:102730001A000023054D2B6000F01AF8431C03D14A
:102740002B68002B00D0236070BDC0463002001003
:1027500058220120014B40421A607047300200109D
:1027600058220120014B40421A607047300200108D
:1027700058220120014B40421A607047300200107D
:10278000044A03001068002802D0C3181360704781
:102790000148FAE7340200103802001058220120E4
:1027A000014B40421A60704730020010FEE7C046FD
:1027B0003D400B4010402640354003400640144049
:1027C0000E400D402540124028400240184009406C
:1027D0000A400000C027090090051000C05C1500E9
:1027E000F0B31A00200B2000009F2400E0322900E3
:1027F000C0C62D0050973100E067350070383900B1
:1028000000093D004016400080234300C0304600D0
:102810003D400B40104026403540034006401440E8
:102820000E400D402540124028400240184009400B
:102830000A40000000000000F8B5C046F8BC08BC23
:102840009E467047F8B5C046F8BC08BC9E46704727
:08285000B0DAFF7F0100000077
:04285800350900003E
:04285C000909000066
:10286000000000000F0000000F0000000F0000003B
:102870000200000001000000001BB7000000000083
:1028800003000000EC0000102C000010000000000D
:10289000EC00001054010010BC010010000000000A
:1028A0000000000000000000000000000000000028
:1028B0000000000000000000000000000000000018
:1028C0000000000000000000000000000000000008
:0828D000000000000000000000
:040000030000038175
:00000001FF
