:10000000E01F00101D1A0000551A0000591A0000C8
:1000100000000000000000000000000000000000E0
:100020000000000000000000000000005D1A000059
:100030000000000000000000611A0000651A0000C6
:10004000691A00006D1A0000711A0000751A00008C
:10005000791A00007D1A0000811A0000851A00003C
:10006000891A00008D1A0000911A0000951A0000EC
:10007000991A00009D1A0000A11A0000A51A00009C
:10008000D9030000AD1A0000B11A0000B51A000033
:10009000B91A0000BD1A0000C11A0000C51A0000FC
:1000A000C91A0000CD1A0000D11A0000D51A0000AC
:1000B000D91A0000DD1A0000E11A0000E51A00005C
:0402FC00FFFFFFFF02
:1003000010B5064C2378002B07D1054B002B02D0EB
:10031000044800E000BF0123237010BD70000010EE
:10032000000000007832000008B5084B002B03D015
:100330000748084900E000BF07480368002B00D1C8
:1003400008BD064B002BFBD09847F9E700000000E2
:1003500078320000740000106C00001000000000F3
:10036000164B002B00D1144B9D46402292029A1A44
:10037000924600218B460F461348144A121A02F087
:100380006BFD0F4B002B00D098470E4B002B00D07D
:1003900098470020002104000D000D48002802D0DD
:1003A0000C4800E000BF02F01DFD2000290002F013
:1003B00071FC02F001FDC04600000800E01F0010C3
:1003C000000000000000000070000010F0000010AD
:1003D0000000000000000000F7B58026324C7605D2
:1003E000A36E33425FD0314D01212A68201C00F0FA
:1003F000E7FFA6662B6880270020185E2C4BFF05C0
:10040000C01802F031FA2B4901F05EFF80222A4C1D
:1004100012066368E0600093236900990193A36961
:10042000061C981801F050FFA168051CE06901F056
:100430004BFF011C281C02F079F8216A051C019869
:1004400001F042FF011C281C01F008FD6169051C38
:10045000606A01F039FF011C281C01F0FFFC391C07
:10046000051C01F04FFC002809D1C0273F06281CBD
:10047000391C01F033FC002801D1256000E0276021
:10048000009B2068A360019B0C496361606026614A
:1004900001F01AFF01F094FC963080B200F078F879
:1004A0000122074B1A70F7BD00C00140B8000010D0
:1004B00001F8FFFF0000483CC00000100000964219
:1004C000BC00001070B50025164C86B001A9061CB2
:1004D000201C0D714D71019500F0AAFE022303A9A5
:1004E000039301334B60201C023B0B72CB728D7265
:1004F0004D7200F0FBFE8022A36812061343802297
:10050000A360A368D2041343A36006480121321CF0
:1005100000F056FF0028F8D0311C024800F02CFFF4
:1005200006B070BD00C00140F921154B49019A8801
:1005300008200A439A808222F021920099520932BF
:100540000F31FF3299500F49043299507821093AFE
:10055000FF3A99520D327939FF3299500A490432E3
:1005600099500422198911431981084958500439B6
:100570005A50998891439980D9889143D98070477E
:100580000040005002100000031000001C05000095
:100590002C23FF3310B5041C984200D91C1C0421E5
:1005A000044BDA880A43DA80034A9C52DA888A4389
:1005B000DA8010BD00400050060200008021164B7A
:1005C000C9021A6815480A4320211A60DA880A43CA
:1005D0002C21DA80124AFF319952124A3B39995242
:1005E000C021083AFF3A89005A500431585004316A
:1005F0005A50C3220C4992009950A2220121D200E4
:1006000099500A4A49189950DA8802318A43DA80A7
:100610009A888A439A80704700400050101000006A
:100620000202000006020000111000001405000084
:100630008E23F7B50125022100261A4C9B00E258B3
:100640006846AA43E250E258174F8A43E250174BDC
:100650001E606B461E71164B009300F071FCC020AB
:10066000800000F05DFD0323FF223B60A36F9343F6
:100670002B43A36700F0F6F903233B60231CC82239
:10068000E4331E6004341D605A60E36F7F352B43F2
:10069000E36708482E21AE3A00F0A0FDE36FAB43BC
:1006A000E367F7BD00800440E080044040800440E0
:1006B0000087930300C00040024B9A685207FBD5A5
:1006C000D8617047004006408021074AC901D36FB6
:1006D0000B43D3670822054B1A60054B053A1A6293
:1006E00002321A607047C04604800440948004407F
:1006F00000400640704708B5031E02D0081C98470A
:1007000006E0044A1368002B02D0581C10601970D0
:1007100008BDC0468C00001008B5034B011C1868CA
:10072000FFF7E9FF08BDC046E8000010F0B50D1C5A
:10073000161C91B001902978002900D10CE12529DF
:1007400002D001350198A8E06C78302C03D1EB1C65
:10075000AC78302203E02D2C04D02022AB1C059273
:10076000002204E02022AC780592EB1C1E3A009295
:100770002A2C02D0002202920BE03468321D002C99
:1007800002DA02216442009102945D1C1C78161C5E
:100790000DE0221C303A1D1C092A08D80A220299B1
:1007A0004A431419303C02941C780133F1E72E2C93
:1007B00016D12C782A2C02D06A1C002704E0376856
:1007C0006C78043602350DE0231C303B151C092BD8
:1007D00008D80A235F433F19303F14780132F3E70A
:1007E00001277F426C2C05D10423009A2C781A43F0
:1007F00000920135002C00D1AEE0642C53D005D816
:10080000622C4ED010D8582C0CD044E0732C14D04D
:1008100004D8082304936F2C47D03CE0752C42D0B9
:10082000782C38D110233FE03168331DC9B20198CC
:100830000393FFF760FF039E7DE73468331D039346
:10084000002C00D1454C0026B7420DDB7B427B419A
:100850003E1C5B421E4007E0029B9E4207D201986D
:100860000599FFF748FF0136009B9B07F4D5E71970
:1008700005E0BC4206D001980134FFF73CFF217827
:100880000029F6D1029B9E42D5D201982021FFF784
:1008900032FF0136F6E7211C0198FFF72CFF039683
:1008A000C9E7022300E00A230493331D039337684A
:1008B000642C06D1002F04DA0123009A7F421A43E8
:1008C000009200230693381C049901F0E9F9381CC2
:1008D000CBB20E1C0499079301F05CF9071C092E9A
:1008E00007D92723782C00D0203B079A9B18DBB22E
:1008F0000793069B06995E1C079B08AA3033535446
:10090000002F03D0202E01D00696DCE7009BDB07EA
:1009100003D52D2308AA93550136341C009B9B0751
:1009200008D4029B9C4205D201980599FFF7E3FE8B
:100930000134F3E7013E08AB995D0198FFF7DBFE58
:10094000002EF7D1029B9C4200D374E7019820212E
:10095000FFF7D1FE0134F5E711B0F0BD6E320000B3
:1009600038B5051C0C1C2178002904D0281C013442
:10097000FFF7C1FEF7E738BD08B5034B011C186847
:10098000FFF7EEFF08BDC046E80000100FB407B542
:10099000054B04AA02CA18680192FFF7C7FE03B00C
:1009A00008BC04B01847C046E80000100EB403B5F8
:1009B00003AA02CA0192FFF7B9FE02B008BC03B055
:1009C00018470EB417B5084C05AA02CA20600020CB
:1009D0000192FFF7ABFE002322681370236017BC5F
:1009E00008BC03B01847C0468C0000108022F8B540
:1009F000194CD202E36F102713438022E367E36FA1
:100A0000164E174D1343E367281C7764012100221B
:100A100000F0E4FB3761281C0021042200F0DEFB1B
:100A2000002380213364281CC901012200F0E6FB69
:100A30003023281C736521211B2200F0CFFB3023BB
:100A40003A1C7362281C222100F0C8FB8022E36F4D
:100A50009343E367F8BDC04604800440004004406F
:100A600000C0004070B51F4D00206B6ADB051B0FF6
:100A7000013B0E2B02D81C4A9B0098580322696A3E
:100A80002B6F184E1340194C022B0FD0934215D0E8
:100A9000012B09D1336C1340012B05D0002B03D05F
:100AA000032B01D1002315E0114B13E01F23194044
:100AB0000131490001F06EF820600CE0B068326C42
:100AC00000211340032B00D009491F22031C1340AF
:100AD00001334B432360A96F206801F05BF820606D
:100AE00070BDC04600800440D030000004000010FB
:100AF000001BB700704708B5044A054B9A60054AC9
:100B0000054B1A60FFF7F6FF08BDC0460000000065
:100B100000ED00E0001BB7000400001038B54B1ECC
:100B20004D421B182B40834201D2002014E00522C5
:100B30005242521A9342F8D8081DC0180C1C02F0F9
:100B400077F9031EF1D003342418281C03492040F0
:100B5000021FC31A1180538038BDC04639300000CF
:100B600008B5031F1988044A914203D15B88C01A53
:100B700002F068F908BDC0463930000008B5002809
:100B80000FD00A1C00210B1C01F0F0F8054A0023CD
:100B900001F0CCF8890780080843001C01380028C0
:100BA000FCD108BD40420F004021044A08B5D36F74
:100BB0000A200B43D36700F003FB08BD0480044008
:100BC00070B54026134DEC6F3443EC671D788C00F4
:100BD000002D08D10121802591400019AD01435914
:100BE0008B43435114E05D7801239340002D01D1E4
:100BF0008A2500E088252D01491989000B50012123
:100C00009140001980240A1CA40103591A4302517F
:100C100070BDC04604800440EFF3108372B6072015
:100C200006490A6882430A60054903380A69824313
:100C30000A6130BF83F310887047C046000002404D
:100C400000ED00E010B5EFF3108272B607240C49F6
:100C50000B68A343063C23430B608C21094C89009D
:100C60006358834304206350074B1969014319619A
:100C700030BF19698143196182F3108810BDC046E5
:100C8000000002400080044000ED00E010B5EFF3EA
:100C9000108272B607240C490B68A343053C23431A
:100CA0000B608C21094C89006358834304206350F6
:100CB000074B19690143196130BF196981431961F3
:100CC00082F3108810BDC04600000240008004403E
:100CD00000ED00E0EFF3108272B60F2008490B68B8
:100CE00083430C3803430B60064B01301969014301
:100CF000196130BF19698143196182F31088704707
:100D00000000024000ED00E030B50E4B172807D977
:100D10008124051C0122A400183D1959AA4004E0B1
:100D2000012285248240A40019590A431A5100283F
:100D300006DB1F2318401E3B8340181C024B186023
:100D400030BDC0460080044000E100E010B500283E
:100D50000ADB1F23012203409A40131C0A4AD3676F
:100D6000BFF34F8FBFF36F8F084B172804D981242F
:100D7000A4001A59183802E08524A4001A59012148
:100D800081408A431A5110BD04E100E00080044014
:100D900003688B43036003680B43036003681942D5
:100DA000FCD0704700487047001BB7008E23044AF0
:100DB0009B00D35800209B0601D4024B1868704753
:100DC000008004409000001008B50A4B1A6C032301
:100DD0001340012B08D0002B04D0032B07D1064B66
:100DE000186805E0054803E0FFF7E0FF00E0002099
:100DF00008BDC0460080044090000010001BB700F2
:100E00000D4B10B51A6F1C1C0020032A13D8101CA0
:100E100000F0B6FE0204070A08480CE0FFF7D4FF12
:100E200009E0074B586806E0FFF7CEFF1F23A268D2
:100E300013400133584310BD00800440001BB7002D
:100E4000900000100F4B10B51C680F4BE4B21868EF
:100E5000002303280ED800F093FE0204070A0B4B70
:100E600008E0FFF7A3FF04E0094B5B6802E0FFF72F
:100E7000C7FF031C0020844203D0181C211C00F073
:100E800089FE10BDE8800440E0800440001BB700EC
:100E90009000001038B5FFF7B3FF0A4BFF251C6820
:100EA00000232C409C420AD0074A010E126800021F
:100EB00015406A1CFF32624300F038FF031C181C07
:100EC00038BDC04694800440F480044008B5FFF764
:100ED000E1FF08BD08B5FFF7DDFF08BD08B5FFF766
:100EE000D9FF08BD08B5072805D800F049FE060E51
:100EF00004201117041400201AE0FFF781FF0D4BA6
:100F0000996FC9B200F046FE12E0FFF779FF0FE0DB
:100F1000094B18680CE0084B586809E0FFF754FFCC
:100F2000044B9A681F2313400133584300E00348E1
:100F300008BDC0460080044090000010001BB700B0
:100F40008E228021F8B503271F4C9200A358061C5F
:100F50000B43A350236C0179226CBB430B43134317
:100F60002364391C1948FFF713FFFFF72DFF051CF9
:100F70003668291C301C00F00DFE154A00239642ED
:100F800008D8144A0133964204D8134BB3429B410C
:100F90005B42FB1A1F21461E31407F26A2685B017F
:100FA000B2431143602213400B438021D932A36026
:100FB000FF32A3588B43A350E368DB07FCD568439B
:100FC000064B9860F8BDC046008004404480044051
:100FD000802FA604C0175302E08B29019000001057
:100FE0001821074A10B5D36A8B43D362E022054922
:100FF00052008C58044B23408B50044B186010BD9A
:101000000040044000C00040FFFDFFFF90000010C2
:101010001821104A10B5936B041C8B439363E02294
:1010200040200D4952008B5883438B5001210B4BBC
:1010300020381A6A0A438E211A6289005A5882435C
:10104000D5305A50FF300649FFF798FD054B1C601C
:1010500010BDC0460040044000C000400080044075
:1010600080C3C901900000101821164B10B55A6BAF
:10107000041C8A435A639A6BC0208A439A63E02215
:10108000114952008B5883438B501049BE3A0B6A6A
:10109000FF3A93430E4A086AA242924152425200DA
:1010A000034313438E2220200B6292008B5883430C
:1010B000D5308B50FF300749FFF760FD064B1C60B1
:1010C00010BDC0460040044000C000400080044005
:1010D000C0E1E40080C3C9019000001038B5F023DE
:1010E000C50C5B002B401F250B4C0002626A000AF6
:1010F000520A520213434A08013A2A4013438E22ED
:1011000063629200A3582135AB43A35000F042FD27
:10111000024B586038BDC04600800440900000106B
:1011200003210A4A10B5136FC4B20B40000A834270
:101130000AD0002C08D1136F08408B431843106766
:1011400002390348FFF724FE10BDC046008004406A
:101150007480044070B5041C0025FFF751FE114B4C
:10116000061C1B685C43AC4219D0844217D8211C72
:1011700000F010FD012812D8221CFF240A492B1C64
:101180000C60301C291C801A9941050E0902294364
:10119000000200F0CBFD0125044B04401C60281C1C
:1011A00070BDC04694800440F0800440F480044048
:1011B00008B502480121FFF7EBFD08BDE4800440BB
:1011C00001238340181C044B5A6882435A605A68B2
:1011D000104358607047C046008004408B089B0055
:1011E000C018032319409940FC338B4010B50468A4
:1011F0008A409C43231C1343036010BD002A07D080
:1012000000290CDBE022520083588B43835006E018
:10121000002904DBE02252008358194381507047B3
:10122000890093B24018120D8218136070470000B5
:1012300010B580240C4A6404D36F2343D367002382
:1012400043660A790B78002A02D08022D200134329
:1012500003602023C26E9A43C2664979C26E490177
:101260000B401343C36610BD0480044010B5002139
:101270000822041C01F0F0FD00232371637110BDEE
:10128000024A034BD16F0B40D36770470480044080
:10129000FFFFFFFEF8B5FF2507680368041CAB439A
:1012A00003600668081C0E4900F074FC0138054014
:1012B000354325608025962022680A4BED051340B2
:1012C0002360236840002B4323600749FFF756FC47
:1012D0002368002027602B4200D10120F8BDC046C2
:1012E00020A10700FFFBFFFF80C3C9014B681A0361
:1012F000E023DB0113400A681205120D13430A7A3A
:10130000012A02D18022D20213434A7A002A02D053
:10131000802212031343CA7A012A02D18022D20505
:1013200013438A7A002A02D0802252051343836035
:1013300070474B681A03E023DB0113400A6812056B
:10134000120D13430A7A012A02D18022D2021343DA
:101350004A7A002A02D0802212031343CA7A012A51
:1013600002D18022D20513438A7A002A02D0802239
:1013700052051343C3607047006903041B0D0B60E3
:1013800083039B0F0B7103039B0F4B7183001B0F98
:101390008B604300DB0FC00F0B7370474069030481
:1013A0001B0D0B6083039B0F0B7103039B0F4B7192
:1013B00083001B0F8B604300DB0FC00F0B73704764
:1013C00008318900085803041B0D136083039B0F29
:1013D000137103039B0F537183001B0F9360430032
:1013E000DB0FC00F13737047074A031C00209342A2
:1013F00009D0064A0130934205D0054A02309B18B5
:101400005A425A41801A7047004006400080064008
:101410000040F9BF10B5418C038C89B29CB2631AAD
:10142000A14202D9C269A3185B1A181C10BD0B692E
:10143000F7B5051C0C1C0126002B02D18E69731E0A
:101440009E4180226368AF6800936B6952000193EC
:1014500017420BD0AB681343AB60636A9C46002B0A
:1014600004D0281C211C3E4AA36AE047002E52D01B
:10147000FB0750D56B461E792369002B1DD0E3680E
:101480001E702369013B2361E3680133E360236934
:10149000002B40D1A369002B02D10223FF332B6123
:1014A000231C0222666A2D331A70002E33D0281CAA
:1014B000211C2C4AA36AB0472DE0A369002B2AD037
:1014C000201CFFF7A7FFE369013B984208D1636A3C
:1014D0009C46002B04D0281C211C234AA36AE04709
:1014E000201CFFF797FFE269531E984205D1638CD9
:1014F000013393422ED100236384238CA269D654F6
:10150000238CE2690133934201D1002302E0238C52
:1015100001339BB22384009B002B1FD0042217426F
:101520001CD023681B78EB616368013B6360236810
:10153000013323606368002B10D12A61221C666A84
:101540002C321370002E09D0281C211C074AA36AD4
:10155000B04703E0638C01339BB2CDE7F7BDC046D3
:1015600049160000471600004A1600004616000003
:10157000CB6100230B844B840223FF338A61C36059
:1015800070470B1C2D331B78022B02D10223FF3333
:10159000036100230B848B61CB614B84704710B5D2
:1015A00083681B07FCD501240368A3430360FFF78E
:1015B0001BFF0449044A095CD36F8C40A343D367E3
:1015C00010BDC0460C3100000480044010B500215D
:1015D0001022041C01F040FC96239B012360012291
:1015E0000023E2726372A372A37123716371237388
:1015F000E3716373237210BDF0B5036889B0061CF4
:101600000C1C04921B0536D40A235A430B01039386
:101610000F2301271D1C7F420692029305976B1C26
:1016200003990698079300F0B5FA0A21053800F0EF
:10163000B1FA164B0190984210D8079B411C4B43BE
:101640000498191C00F0A6FA231A844200D2031B46
:10165000059A934202D2019F02950593039B013D97
:101660001B1B0393072DDAD1084B9F420AD8029B1C
:10167000B362376204E0049800F08CFA01383062FB
:10168000002000E0024809B0F0BDC046FFFF0000A6
:101690004F160000F8B50D1C041C161C0127FFF79F
:1016A000A3FE3C4BD96F9C463B4B1A5C3B1C9340C2
:1016B0001A1C63460A43DA67374B0333185CFFF79B
:1016C0007FFDAB793021DB031F433B1C687A2A7B0B
:1016D000000108400343A87A1031800101400B4308
:1016E000181C0C21EB7A80279B001940031C0B432C
:1016F00080219003C90101400B43181C6B7B7F01C3
:101700001B033B40191C031C287A802740020B4313
:10171000011CBF0039400B438021920209010A409D
:10172000296813432360002907D0201C321CFFF7CF
:1017300063FF002801D019482AE0EB79002B04D080
:10174000802263685200134302E06268144B134026
:1017500063606B79002B07D0012223681343236059
:1017600063683F32934302E040226368134363603F
:101770002879002805D00122236800201343236024
:1017800006E063685B0603D5012223689343236068
:10179000F8BDC046048004400C3100004F16000024
:1017A000FFFEFFFF8A18914206D083685B07FCD5D5
:1017B0000B780131C361F6E783681B07FCD5002075
:1017C000704730B5041C8A18914219D0A368DB0712
:1017D000FCD5A568A3682B43A36080235B002B4046
:1017E00010D1181C6B0400D50848AB0400D508487C
:1017F0002B0409D4002808D163690B700131E3E799
:10180000002002E0034800E0034830BD4D16000010
:101810004C1600004E1600004B160000F8B50C1CCC
:101820001E1C171CFFF7E0FD3022051C0021201CA8
:1018300001F012FB231C02222D331A700022013BFF
:101840001A700B4BAA00D4500A4A6762DA600A4B3E
:10185000A66206335A5D53B2002B06DB1F231340EA
:1018600001229A40131C054A13600020F8BDC046AF
:101870009C0000102F1400000C31000000E100E07B
:101880000B1C10B52C331C78012C0ED01468526838
:101890000C608A604A6001221A700423C3604368A6
:1018A0003F3293434360002000E0014810BDC04632
:1018B000441600000423402203614368134343603D
:1018C00000234B602C310B7070470B1C2C331B78A2
:1018D0000620002B04D048688B681B1A0020136078
:1018E0007047F7B5161C0A1C2D321478032C53D000
:1018F00001938B690C1C00907568002B3BD0012371
:101900000361081CFFF786FD0027B84219D0071EA7
:10191000AF4200D92F1C0022ED1BBA4211D0638CBC
:10192000A169CB5C31688B54638CE16901338B42D4
:1019300001D1002302E0638C01339BB26384013246
:10194000EBE7002D09D033680322DB19E3607368ED
:1019500025616361231C2D331A700123009AD36023
:10196000002D13D1656A002D10D0101C211C0B4ACC
:10197000A36AA8470AE031686561E1600321256137
:10198000117002221F1C0099FF32CA6001980028C2
:1019900003D00760002000E00148FEBD47160000AC
:1019A000451600008B69002B02D10223FF3303612F
:1019B00000230B612D3102330B7070470B1C2D334C
:1019C0001B780620022B04D008694B691B1A0020E3
:1019D0001360704708B5034B0348DA6819689047ED
:1019E00008BDC0469C0000100040064008B5034BEF
:1019F0000348DA685968904708BDC0469C0000104B
:101A00000080064008B5034B0348DA6899689047A0
:101A100008BDC0469C00001000C0064072B60748D2
:101A200080470749074A084B9B1A03DD043BC85807
:101A3000D050FBDC62B6054880470000F70A000082
:101A4000A4320000000000107000001061030000CC
:101A500025480047254800472548004725480047B6
:101A600025480047254800472548004725480047A6
:101A70002548004725480047254800472548004796
:101A80002548004725480047254800472548004786
:101A90002548004725480047254800472548004776
:101AA0002548004725480047254800472548004766
:101AB0002548004725480047254800472548004756
:101AC0002548004725480047254800472548004746
:101AD0002548004725480047254800472548004736
:101AE0002548004725480047511A0000551A0000B4
:101AF000591A00005D1A0000611A0000651A000002
:101B0000511A0000511A0000511A0000D5190000A6
:101B1000ED190000051A0000511A0000511A0000CA
:101B2000511A0000511A0000511A0000511A000009
:101B3000511A0000511A0000511A0000511A0000F9
:101B4000511A0000511A0000511A0000511A0000E9
:101B5000511A0000511A0000511A0000511A0000D9
:101B6000511A0000511A0000511A0000511A0000C9
:101B7000511A0000511A0000511A0000511A0000B9
:101B800002B4714649084900095C49008E4402BC10
:101B90007047C046002243088B4274D303098B422E
:101BA0005FD3030A8B4244D3030B8B4228D3030C2D
:101BB0008B420DD3FF22090212BA030C8B4202D3CF
:101BC0001212090265D0030B8B4219D300E0090AF7
:101BD000C30B8B4201D3CB03C01A5241830B8B4200
:101BE00001D38B03C01A5241430B8B4201D34B03E9
:101BF000C01A5241030B8B4201D30B03C01A52414E
:101C0000C30A8B4201D3CB02C01A5241830A8B42D2
:101C100001D38B02C01A5241430A8B4201D34B02BB
:101C2000C01A5241030A8B4201D30B02C01A52411F
:101C3000CDD2C3098B4201D3CB01C01A52418309D3
:101C40008B4201D38B01C01A524143098B4201D30D
:101C50004B01C01A524103098B4201D30B01C01A38
:101C60005241C3088B4201D3CB00C01A52418308B2
:101C70008B4201D38B00C01A524143088B4201D3DF
:101C80004B00C01A5241411A00D20146524110463F
:101C90007047FFE701B5002000F00CF802BDC04618
:101CA0000029F7D003B5FFF775FF0EBC4243891A30
:101CB0001847C0467047C0468446081C6146FFE787
:101CC0001FB500F0BBFA002801D40021C8421FBD97
:101CD00010B500F03FFA4042013010BD10B500F0E1
:101CE000ADFA002801DB002010BD012010BDC04668
:101CF00010B500F0A3FA002801DD002010BD01207E
:101D000010BDC04610B500F04FFA002801DC0020DD
:101D100010BD012010BDC04610B500F045FA0028E6
:101D200001DA002010BD012010BDC046002B11D1EA
:101D3000002A0FD1002900D1002802D00021C94378
:101D4000081C07B4024802A14018029003BDC04617
:101D500065FFFFFF03B4684601B5029800F064F820
:101D6000019B9E4602B00CBC7047C046F0B54F4682
:101D7000464605042D0C2C1CC0B41704160C3F0C51
:101D80009946030C7C4375435F4373437D19260CCE
:101D9000AD199C46AF4203D980235B029846C444E8
:101DA0004B465143434324042E0C240C2D0466441B
:101DB0002C1959188919201C0CBC90469946F0BD65
:101DC0009E2110B5C905041CFFF7A6FF002803D10A
:101DD000201C00F029FD10BD9E21201CC90500F02B
:101DE000A5FB00F021FD80231B069C466044F2E722
:101DF000F0B583B0161C1F1C0090019100F09AFDF5
:101E0000041C0D1C221C2B1C301C391CFFF7AEFFC0
:101E1000009A019B121A8B410899201C0A604B60A2
:101E2000291C03B0F0BDC046F0B5141C83B01D1CC6
:101E30000090019100F076FE221C2B1C061C0F1C4A
:101E4000FFF794FF009A019B121A8B410899301CEE
:101E50000A604B60391C03B0F0BDC046F8B54A00BB
:101E6000430244004E02C50F240E281C9B09120E8B
:101E7000C90FB7098D4240D0A01A002800DC84E0C9
:101E8000002A1CD1002F5CD15A0704D00F221A401F
:101E9000042A00D004338022D2041A40281C002ACD
:101EA00024D00134FF2C00D17BE09B015B0AE4B21B
:101EB0005B02E4055B0A2343C0071843F8BDFF2C0F
:101EC000E2D08022D204174301261B2808DC391CEB
:101ED00020223E1CC140101A8640771EBE410E4390
:101EE0009B1B5A0133D4281C5A07CFD1DB08FF2C87
:101EF0001ED05B025B0AE4B2DAE7A11A002957DDC3
:101F0000002A3AD0FF2CBFD08022D20417430126EA
:101F10001B2972DD9B195A01E5D50134FF2C00D134
:101F200087E001218A4A194013405B080B43ABE765
:101F3000002B36D08022D20313435B025B0AFF24BE
:101F4000B6E7013800283FD1DB1B5A01CBD59B01F6
:101F50009E09301C00F0D0FC05388640844223DC0A
:101F6000001B1F24321C431C201ADA408640131C1D
:101F7000741EA6410024334386E7002F00D183E777
:101F80000139002950D1DB19C5E7002820D1621C96
:101F9000D2B2012A5EDDDE1B720128D5FE1A0D1CAD
:101FA000D7E7FF24002383E7694B241A33406BE70C
:101FB000002958D1621CD1B201293CDDFF2A37D05B
:101FC000FB185B08141C5FE7FF2C00D07CE75BE785
:101FD000002C1ED0FF2A23D08024E4044042234357
:101FE0001B285BDD0123FB1A141C0D1CADE7002E22
:101FF000AFD100230020002478E73A1CCA40944661
:1020000020223E1C511A8E406246771EBE41164366
:1020100080E7002B3ED0C0430028E4D0FF2ADFD168
:102020003B1CFF240D1C2FE7FF2C00D06FE72BE794
:10203000FF2400235AE7002C5AD1002B7FD0002F19
:1020400000D121E7DB195A0100D44CE7404A0134A2
:10205000134019E7002C15D1002B2FD1002F5DD094
:102060003B1C0D1C10E7002C21D1002B53D0C94381
:10207000002904D0FF2A4BD01B2957DD0123DB198F
:10208000141C48E7002B22D1002F4AD03B1C0D1C0A
:10209000FF24F9E63B1C141C0D1CF5E61D1C202436
:1020A000C540201A8340581E83412B439BE7FF2ADB
:1020B0002ED08024E40449422343DDE7002F00D1E1
:1020C000E2E6DA1B50013CD5FB1A0D1CDCE6FF24CE
:1020D000002F00D1D8E68022DB08D203134204D0BF
:1020E000FE08164201D1331C0D1CDB00FF24CBE699
:1020F000002B0DD0FF24002F00D1C5E68022DB0885
:10210000D2031342F1D0FE081642EED1331CECE7A5
:102110003B1CFF24B8E63B1C141CB5E6231C002026
:10212000E4E6802300209B04FF24DFE61E1C20241D
:10213000CE40611A8B40591E8B4133439FE73B1CB5
:10214000A2E6131E00D0CEE600230020CEE6C04655
:10215000FFFFFFFB430270B542004C005D0AC30F56
:102160004802120E460A240EC90FFF2A05D0FF2C82
:1021700008D00120A2420BD070BD0120002DFBD160
:10218000FF2CF6D10120002EF6D10120A242F3D17E
:10219000B542F1D18B4205D0002AEDD1281C431E57
:1021A0009841E9E70020E7E7F0B543024D024A0015
:1021B00044005E0A240EC30F6D0A120EC90FFF2CD5
:1021C0000DD0FF2A31D0002C0DD177427741002A63
:1021D00023D1002D21D10020002F0BD107E0002EAC
:1021E00028D1FF2A21D0002A05D08B4207D058429F
:1021F00001231843F0BD002DF9D08B42F7D1944252
:10220000F5DC04DBAE42F2D80020AE42F2D25842F6
:10221000434101205B421843ECE7002FE5D04842E0
:102220004141012049420843E4E7002D02D1002C3E
:10223000CBD0DAE702204042DCE7C0464302F0B5EB
:1022400042004C005E0AC30F4802120E450A240EDB
:10225000C90FFF2A0FD0FF2C1AD0002A10D17742C5
:102260007741002C29D0002F17D04842414101204E
:10227000494208430BE00220002E08D1FF2C07D072
:10228000002C0AD1002D08D1584201231843F0BD7B
:102290000220002DFBD1002AE1D08B42F4D1A242D2
:1022A000F2DC04DBAE42EFD80020AE42EFD258425F
:1022B000434101205B421843E9E7002DD3D10020C0
:1022C000002FE4D1E0E7C046F0B55F4656464D46E4
:1022D0004446F0B445024600C40F83B00F1C6D0A9B
:1022E000360EA34645D0FF2E25D080231B041D4368
:1022F00000239A46ED007F3E01937B025B0A9846DD
:102300007800FB0F000E994640D0FF2838D080237C
:1023100042461B041343DB00984600237F384A469D
:10232000019F30186240411C1F430F2F69D87D4E1A
:10233000BF00F659B746002D45D108230193063B4F
:102340009A46DAE793465346022B2FD15B46012487
:1023500000251C40FF236D02DB056D0AE4071D43C9
:102360002543281C03B03CBC90469946A246AB4688
:10237000F0BD002D2CD104230193033B9A46BCE70A
:1023800043465A4253410322D31AC8E74246012327
:10239000002AC4D0404600F0AFFA4246431F9A409C
:1023A00076235B42181A90460023B8E7032B00D12E
:1023B000ADE0012B00D08CE05B4654461C40E4B2FB
:1023C00000230025C7E70C230193093B9A4694E7B5
:1023D000281C00F091FA7626431F9D400023764288
:1023E000361A01939A4688E780250024ED03FF23DF
:1023F000B1E74546CB469A46A5E7454693469A46F9
:10240000A1E743462C041B0C9C46230C444626049F
:102410001C1C360C2F0C7443351C66467D437343DD
:102420007743EB18260C9E19B54203D980235B0233
:102430009C46674424043304240C1B199D016C1E24
:10244000A5419B0E360C2B43BD19AD011D432B013D
:1024500004D5012368081D400543081C031C7F3375
:10246000002B2CDD690704D00F212940042900D05E
:102470000435290103D52C4B1D40031C8033FE2B52
:1024800017DD0124FF231440002564E78020C003EA
:10249000054209D04346034206D1454605436D0235
:1024A0006D0A4C46FF2356E705436D026D0AFF2374
:1024B00051E70124AD016D0ADBB214404BE77E23E6
:1024C0005B421B1A1B2B07DD01240023144000254F
:1024D00041E7081C5A46C1E79E30291C8540D94077
:1024E000681E85410D436B0704D00F232B40042B3E
:1024F00000D004356B0104D50124012314400025CC
:1025000029E70124AD016D0A1440002323E780234D
:10251000DB031D4301245B466D0223401C1C6D0A36
:10252000FF2318E718310000FFFFFFF7F8B54A0056
:10253000430244004D02C00F240E061C9B09120EDC
:10254000C90FAD09FF2A00D175E001277940884203
:1025500050D0A01A002800DC8FE0002A1ED1002DE8
:1025600000D075E05A0704D00F221A40042A00D088
:10257000043380220120D2041A403040002A32D095
:102580000134FF2C00D184E09B015B0AE4B25B02C2
:10259000E4055B0A2343C0071843F8BDFF2CE1D0D4
:1025A0008022D20415431B287ADD01255B1B5A01CA
:1025B0005DD59B019F09381C00F09EF905388740C6
:1025C000844269DC001B1F243A1C431C201ADA4099
:1025D0008740131C7C1EA74100243B43C2E7131E07
:1025E00045D100230020DB08FF2C28D05B025B0ACA
:1025F000E4B2CCE7A11A00295BDD002A2ED0FF2C23
:10260000B0D08022D20415431B2974DC2F1C202259
:10261000CF40511A8D40691E8D413D435B195A01CF
:1026200025D50134FF2C74D001217E4A1940134076
:102630005B080B4396E7002D00D088E785E7002B69
:1026400027D08022D20313435B025B0AFF249EE75C
:1026500001380028AAD0FF2CA5D183E7002D00D196
:1026600080E701390029D9D0FF2CCDD17AE75A076C
:1026700000D079E701203040B5E7002825D1621C61
:10268000D2B2012A55DD5F1B7A012DD5EF1A0E1C3F
:1026900091E7FF2400237AE7624B241A3B4061E76D
:1026A000291C2022C140101A8540681E85410D4317
:1026B0007CE7002946D1621CD1B201292BDDFF2A1B
:1026C00026D0EB185B08141C4CE7002C15D0FF2A11
:1026D0001AD08024E404404223431B284DDD01230B
:1026E000EB1A141C0E1C62E7002F00D063E70023D6
:1026F0000020002477E7012590E7002B39D0C04364
:102700000028EDD0FF2AE8D12B1CFF240E1C29E75E
:10271000FF24002367E7002C5AD1002B7FD0002D27
:1027200000D11FE75B195A01A1D53E4A013413407D
:1027300018E7002C15D1002B2FD1002D5ED02B1CBB
:102740000E1C0FE7002C21D1002B54D0C9430029C7
:1027500004D0FF2A4CD01B2958DD01235B19141C1F
:102760005DE7002B23D1002D4BD02B1C0E1CFF242A
:10277000F8E62B1C141C0E1CF4E61E1C2024C6407C
:10278000201A8340581E83413343A9E7FF2A2FD0E4
:102790008024E40449422343DDE7002D00D1E1E633
:1027A0005A1B500100D41AE7EB1A0E1CDAE6FF247C
:1027B000002D00D1D6E68022DB08D203134204D0DC
:1027C000ED08154201D12B1C0E1CDB00FF24C9E6CD
:1027D000002B0DD0FF24002D00D1C3E68022DB08A2
:1027E000D2031342F1D0ED081542EED12B1CECE7D9
:1027F0002B1CFF24B6E62B1C141CB3E6231C002064
:10280000F1E6802300209B04FF24ECE61F1C20241B
:10281000CF40611A8B40591E8B413B439EE72B1CD6
:10282000A0E6C046FFFFFFFB4202510A4200C30F71
:10283000120E00207E2A0DDD9D2A0CDC8020000473
:102840000143952A0ADC9620821AD1400A1C58427C
:102850004240D0187047034A9818FBE7963A9140D7
:102860000A1CF4E7FFFFFF7F70B5041E39D0C50FC7
:1028700000D04442201C00F03FF89E23261C1B1A67
:10288000962B07DC082801DD083884406402640ABE
:10289000D8B21EE0992B0ADD0522211C121AD14064
:1028A0000A1C011C1B318E40711E8E4116430528E7
:1028B00001DD421F96400F4C3440720704D00F22B6
:1028C0001640042E00D0043462010ED4A401640A20
:1028D000D8B26402C005640AED0704432C43201CEF
:1028E00070BD002500200024F3E7024B1C409F230D
:1028F0001B1AEBE7FFFFFFFB1C2101231B0498427F
:1029000001D3000C10391B0A984201D3000A083980
:102910001B09984201D30009043902A2105C401837
:102920007047C046040302020101010100000000DB
:1029300000000000F0B544465F4656464D46F0B4F0
:102940001C1C85B0002900DAA9E00F1C0021061C20
:102950008846101C191C002C00DA97E0341C3D1C22
:1029600082468946B94273D870D04946504600F035
:1029700085F98346391C301C00F080F95B46181A33
:10298000031C8346203B9C4600D59CE0002300228C
:10299000514600920193634699400191514681400E
:1029A000019B0091BB4200D983E000D17EE0009AF8
:1029B000019B341C3D1CA41A9D416346002B00DA88
:1029C0009AE0002600270296039701369E40039660
:1029D000012686400296002800D171E00099019AF4
:1029E000D30799464B464E081E4357080023012241
:1029F0000CE0AF4201D1A6420AD8A41BBD41241964
:102A00006D410138A4185D41002806D0AF42F0D9CD
:102A1000013824196D410028F8D12022029E039F1D
:102A20005B46524236196F4199185AD4281CC84047
:102A30002C1C5B46DC40002968DB041C8C40231CFA
:102A400059468840021CB61A9F4103E0B0428CD917
:102A50000026002741464B1E994100230091019317
:102A6000009A019B002554429D41331C6340181C71
:102A70003B1C6B40191C009B019CC018614105B0B8
:102A80003CBC90469946A246AB46F0BD4346DB436C
:102A90000C1C9846131C00215842A1415EE70027F8
:102AA00046428F4101214942884652E7B14200D84F
:102AB0007DE70026002702960397002800D08DE7C7
:102AC000029E039FC6E720215346091ACB400022ED
:102AD000191C0023009201934B4683400B43019342
:102AE0005CE75A4620239B1A2A1C9A40201C131C80
:102AF0005A46D04018439BE720260027331A002669
:102B0000029603970127DF40039761E75B46202188
:102B10005D46C91A031CAC40CB40191C231C0B4357
:102B20008EE7C046F0B545464E465746E0B4041C15
:102B300082B00D1C914698468B4262D85FD04146C8
:102B4000484600F09BF8291C061C201C00F096F853
:102B50002023311A5B428A46C81865D44B4683400D
:102B60001F1C4B468B401E1CAF4258D855D0A41B8F
:102B7000BD41002800DA77E0002200230092019393
:102B800001328240019201238B40009300293CD006
:102B9000FB079846404672087B080243012600273F
:102BA0000CE0AB4201D1A2420AD8A41A9D412419DB
:102BB0006D410139A4197D41002906D0AB42F0D9FD
:102BC000013924196D410029F8D12022009801997A
:102BD00053465242001969419E183AD42F1CF740BF
:102BE0005346DD40002E29DB3C1CB440231C5446D8
:102BF000A7403A1C801A99410090019105E0824259
:102C00009DD900230024009301940098019902B0FB
:102C10001CBC90469946A246F0BDA342A7D900220B
:102C2000002300920193B1E720224B46521AD34071
:102C30001A1C43468B401F1C174392E7534620241F
:102C40005646E41A3B1CB540E3401C1C2B1C234396
:102C5000CDE7524620239B1A2A1C9A40271C131C9E
:102C60005246D7401F43BBE720230022581A0023B7
:102C7000009201930132C240019284E710B500290D
:102C800003D1FFF739FE203002E0081CFFF734FEC5
:102C900010BDC046324B334A30B59A61324A85B0D6
:102CA000DA61324A324C1A62324A334D5A62002299
:102CB0001A605A609A601A615A616A462F4B1A600C
:102CC000FDF794FEFDF7B4FCFDF7FEFC2C4A2D4BFE
:102CD0002D481A60FDF75AFE2C48FDF757FE2C4888
:102CE000FDF754FE2B48FDF751FE2B48FDF74EFE35
:102CF0002A48FDF74BFE2A48FDF748FE8022E36F85
:102D000052001343E367FDF70FFCFDF757FC8022E9
:102D1000E36F520413438E221021E3679200AB58F5
:102D200003208B43AB50FEF7DDF8011C1D48FEF776
:102D3000B1FA002801D01C4800E01C48FDF726FE2F
:102D40006846FDF7BFFB0121164A536E0B435366DD
:102D50008022174B52021A601648FDF717FEFEE755
:102D6000C000001077BEFFBFEE7C7F3F6F12833A3A
:102D70000480044053CF82BA00800440B8000010A1
:102D8000B9060000E8000010583100005D31000075
:102D90008231000095310000B7310000DC310000C5
:102DA0000132000000C00140263200003E32000027
:102DB00000E100E058320000084B10B5041C002B65
:102DC00002D0002100E000BF054B1868836A002B89
:102DD00000D09847201C00F079F9C04600000000A0
:102DE000743200000E4B70B500251E1C0D4CE41A09
:102DF000A410A54204D0AB00F35898470135F8E77A
:102E000000F03CFA084B00251E1C084CE41AA410E4
:102E1000A54204D0AB00F35898470135F8E770BDE0
:102E20009C3200009C3200009C320000A032000066
:102E300008B5034B011C186800F05CF808BDC046DB
:102E40006800001008B5034B011C186800F00CF86E
:102E500008BDC04668000010031C8218934202D0CF
:102E600019700133FAE7704730B500293ED00439B4
:102E70000B68002B00DAC9181D4A1368141C002BBC
:102E800002D14B60116031E099420DD208680A18F6
:102E90009A4203D11368C3180B6053684B602160DA
:102EA00024E08A4203D8131C5A68002AF9D11D680D
:102EB0005C198C420BD10968691858181960904246
:102EC00014D110685268091819605A600EE08C42DB
:102ED00002D90C23036009E008680C18944203D15E
:102EE00014685268001908604A60596030BDC046D5
:102EF000B0000010032370B5CC1C9C430834051CA3
:102F00000C2C01D20C2405E0002C03DA0C23002049
:102F10002B6042E08C42F9D3204A1368101C191C24
:102F2000002913D00A68121B0DD40B2A02D90A609B
:102F30008B181FE08B4202D15A6802601BE04A687E
:102F40005A600B1C17E00B1C4968E9E7144E336804
:102F5000002B03D1281C00F025F83060281C211C10
:102F600000F020F8031C421CD0D00322C61C96435C
:102F700086420AD11C60181C07210B301A1D884399
:102F8000821A0AD05142995007E0311A281C00F0E9
:102F900009F8431CBAD0331CECE770BDB000001038
:102FA000AC00001038B50023064C051C081C23603B
:102FB00000F07EF8431C03D12368002B00D02B6067
:102FC00038BDC046EC00001038B50C1C0968051C63
:102FD000002901D0FFF7F8FF281C211CFFF744FF50
:102FE00038BD0000314B70B51B6898425DD0436A14
:102FF000041C002B1DD0DB68002B13D00025636A56
:10300000DB685959002905D00E68201CFFF72CFFFA
:10301000311CF7E70435802DF1D1636A201CD96893
:10302000FFF722FF636A1968002902D0201CFFF70E
:103030001BFF6169002902D0201CFFF715FF616AA0
:10304000002902D0201CFFF70FFFA16B002902D03E
:10305000201CFFF709FFE16B002902D0201CFFF7BD
:1030600003FF216C002902D0201CFFF7FDFEE16D5B
:10307000002902D0201CFFF7F7FEA16D002902D025
:10308000201CFFF7F1FE616B002902D0201CFFF726
:10309000EBFEA369002B08D0201CA36A9847A16C03
:1030A000002902D0201CFFF78FFF70BD68000010C0
:1030B000044A1368002B03D018181060181C7047BE
:1030C000014BF9E7B4000010F0000010FEE7C04625
:1030D000C027090090051000C05C1500F0B31A006D
:1030E000200B2000009F2400E0322900C0C62D00E4
:1030F00050973100E06735007038390000093D0015
:103100004016400080234300C03046000E0F1003DD
:10311000040503040500000002240000FA23000057
:10312000FA230000F223000044230000442300009F
:10313000E8230000F223000044230000E8230000FD
:1031400044230000F2230000462300004623000031
:10315000462300008C2400000A0A0A0D002A2A2AAD
:103160002A2A2A2A2A2A2A2A2A2A2A2A2A2A2A2ABF
:103170002A2A2A2A2A2A2A2A2A2A2A2A2A2A2A0ACF
:103180000D0048494C20506C616E74206D6F646571
:103190006C2E0D0A0054686520706C616E7420748A
:1031A00072616E736665722066756E6374696F6EA8
:1031B0002069733A0D0A002059287A2920202020FE
:1031C0002020202062312A7A5E282D3129202B20D0
:1031D00062322A7A282D3229200D0A002D2D2D2D1C
:1031E0002D203D202D2D2D2D2D2D2D2D2D2D2D2D19
:1031F0002D2D2D2D2D2D2D2D2D2D2D2D2D2D0D0A42
:10320000002055287A292020202020312B206131D0
:103210002A7A5E282D3129202B2061322A7A282D06
:103220003229200D0A004144432043616C696272D7
:103230006174696F6E20446F6E652E0D0A00414403
:10324000432043616C6962726174696F6E204661EC
:10325000696C65642E0D0A00436F6E66696775724E
:103260006174696F6E20446F6E652E0D0A0A00430B
:10327000000000000800001000000000F8B5C04683
:10328000F8BC08BC9E467047F8B5C046F8BC08BC00
:043290009E4670479F
:08329400CCD0FF7F0100000017
:04329C002903000002
:0432A0000103000026
:1032A40000000000001BB700000000000000000048
:1032B400000000000000000000000000000000000A
:1032C40000000000000000006F3200000000000059
:1032D40000000000000000000000000000000000EA
:1032E40000000000000000000000000000000000DA
:1032F40000000000000000000000000000000000CA
:1033040000000000000000000800001000000000A1
:0400000300001A1DC2
:00000001FF
