:10000000E01F0010691F0000A11F0000A51F0000D5
:1000100000000000000000000000000000000000E0
:10002000000000000000000000000000A91F000008
:100030000000000000000000AD1F0000B11F000024
:10004000B51F0000B91F0000BD1F0000C11F000048
:10005000C51F0000C91F0000CD1F0000D11F0000F8
:10006000D51F0000D91F0000DD1F0000E11F0000A8
:10007000E51F0000E91F0000ED1F0000F11F000058
:1000800081030000F91F0000FD1F00000120000097
:1000900005200000092000000D20000011200000B4
:1000A00015200000192000001D2000002120000064
:1000B00025200000292000002D2000003120000014
:0402FC00FFFFFFFF02
:10030000402292029A1A92467047C046174B002B21
:1003100000D1134B9D46FFF7F3FF00218B460F469C
:100320001348144A121A03F05DFC0E4B002B00D048
:1003300098470D4B002B00D0984700200021040067
:100340000D000D48002802D00C4800E000BF03F06B
:100350009FF92000290002F037F903F085F9C04623
:10036000000008000000000000000000E01F001076
:10037000640000105C02001000000000000000009B
:10038000F7B58026314D7605AB6E334256D0304CF2
:100390000121A26A280001F005F8AE66A36A25696A
:1003A0000020185EE6682B4B6561C018266103F0DB
:1003B0001DF8294902F018FD802367682168E06074
:1003C000A0691B06C018A760616002F00DFDE1691D
:1003D0000190381C02F008FD011C019802F042FE59
:1003E000216A071C301C02F0FFFC011C381C02F0C3
:1003F000ABFA616A061C281C02F0F6FC011C301CDA
:1004000002F0A2FA8021C905051C02F00FF80028AD
:1004100015D1C021281C090601F0F4FF002811D1D4
:100420000E492560281C02F0DFFC02F08BF99630A3
:1004300080B200F079F801232C342370F7BD8025B9
:10044000ED05EDE7C0252D06EAE7C04600C00140F6
:100450006400001001F8FFFF0000483C00009642D5
:10046000002330B5144C87B001A9050020008B8013
:10047000019300F0CFFE02230393013304930F4B4B
:10048000200003A9059300F021FF8023A2681B062A
:100490001343A3608023A268DB041343A3602A00F4
:1004A0000121054800F07EFF0028F8D0290002480D
:1004B00000F052FF07B030BD00C001400100000154
:1004C000F922154B5201998808200A439A8082220A
:1004D000F021920099520932FF320F3199500F49A1
:1004E000043299507821093AFF3A99520D32FF327D
:1004F000793999500A4904329950042219891143D3
:1005000019810849585004395A5099889143998063
:10051000D9889143D98070470040005002100000F4
:10052000031000001C050000962310B55B00041C9E
:10053000984201D3064B1C880421064BDA880A43F3
:10054000DA80054A9C52DA888A43DA8010BDC046B8
:100550005C41000000400050060200008022164B63
:10056000D202196815480A431A602022D9880A4322
:100570002C21DA80124AFF319952124A3B399952A2
:10058000C021083AFF3A89005A50043158500431CA
:100590005A50C3220C4992009950A2220121D20044
:1005A00099500A4A49189950DA8802318A43DA8008
:1005B0009A888A439A8070470040005010100000CB
:1005C00002020000060200001110000014050000E5
:1005D0008E23F7B50125022100261A4C9B00E25814
:1005E0006846AA43E250E258174F8A43E250174B3D
:1005F0001E606B461E71164B009300F09BFCC020E2
:10060000800000F083FD0323FF223B60A36F934330
:100610002B43A36700F028FA03233B602300C82282
:10062000E4331E6004341D605A60E36F7F352B4352
:10063000E3672E210748AE3A00F0C4FDE36FAB43F9
:10064000E367F7BD00800440E08004404080044040
:100650000087930300C000400422034B99681142B5
:10066000FCD0D8617047C046004006408023074A4E
:10067000DB01D16F0B43D3670822054B1A60054B92
:10068000053A1A6202321A607047C046048004407C
:1006900094800440004006407047030010B50800F5
:1006A000002B01D0984710BD034A1368002BFAD0E5
:1006B000591C11601870F6E79400001010B5034B38
:1006C00001005868FFF7E9FF10BDC0469400001014
:1006D000F0B50F00160091B001903978002900D1D3
:1006E0003BE1252905D001370198FFF7D6FF3400FB
:1006F000CBE07978302916D10591B978FB1C00221E
:1007000000922A291BD000220A2002920A00303AC5
:100710001F00092A1CD8029A42435218303A19780D
:1007200002920133F2E72D2903D02022BB1C05924F
:10073000E5E72022B9780592FB1C1E3AE0E704CEDB
:10074000002A02DA022152420091197802925F1CBB
:100750002E2972D139782A290DD000250A207B1C38
:100760000A00303A1F00092A08D845436D18303D69
:1007700019780133F4E720CE797802376C2905D156
:100780000423009A39781A4300920137002900D1D6
:10079000E3E07829A8D86E2952D863296FD060D8B1
:1007A000582900D1AFE062299ED1009B5B0700D49D
:1007B000BEE03400022508CC06930723782900D137
:1007C0002723DBB20793002303930698290001F047
:1007D00017FD069ACBB20690092902D90799CB18C2
:1007E000DBB2039903984E1C303308A94354AA4244
:1007F00004D3202E00D0A5E01F2303930122009BE9
:10080000134204D02D2308AA9355039E0236009B61
:1008100035009B0700D49CE0013E08ABF15C0198D9
:10082000FFF73BFF002EF7D1029BAB422DD92021D1
:100830000198FFF732FF0135F6E701256D429DE78C
:1008400008006F38092800D94EE701F049FC630021
:100850004DFF4DFF4DFF20004DFF6A004DFF4DFF46
:100860005C00642900D03FE7340008CC0A25002B47
:10087000A2DA012200985B42104300909CE734000A
:1008800002CC0198C9B2FFF708FF260025E7340023
:1008900008CC0393002B01D1314B0393002D03DBD4
:1008A000049BAB4200D904950226009B33401E00F6
:1008B000049B01330093002E13D0039B5E19039B0E
:1008C0001978002901D0B34216D1029B049A9342B1
:1008D000DBD920210198FFF7E0FE049B013304934C
:1008E000F3E7049B029A9342E7D205990198FFF738
:1008F000D4FE009B0493DBE7039B01980133039331
:10090000FFF7CBFEDBE7009B5B0715D53400102516
:1009100008CC51E7009B5B0710D53400082508CCB4
:100920004AE7009B341D5B070AD50A25336843E775
:100930000225340008CC3FE71025FAE70825F8E740
:100940000A25F6E7039640E705990198FFF7A5FE0B
:100950000135029BAB42F7D85EE711B0F0BDC0464F
:100960005A41000070B505000C002178002900D123
:1009700070BD28000134FFF790FEF6E710B5034B79
:1009800001005868FFF7EEFF10BDC046940000104C
:100990000FB407B5054B04AA02CA58680192FFF7C5
:1009A00097FE03B008BC04B01847C046940000107E
:1009B0000EB403B503AA02CA0192FFF789FE02B082
:1009C00008BC03B018470EB417B5084C05AA02CAF4
:1009D000206000200192FFF77BFE00232268236045
:1009E000137017BC08BC03B01847C0469400001031
:1009F000F8B58023194CDB02E26F102713438022E5
:100A0000E367E36F164E174D1343E36728007764DF
:100A10000022012100F0D6FB2800376104220021CA
:100A200000F0D0FB00238021280033640122C9019B
:100A300000F0D7FB3023280073651B22212100F032
:100A4000C1FB30233A0073622800222100F0BAFB78
:100A50008022E36F9343E367F8BDC04604800440FF
:100A60000040044000C0004010B51E4C0020636AE6
:100A7000DB051B0F013B0E2B02D81B4A9B0098582D
:100A80000322616A236F1340022B11D0934216D0C8
:100A9000012B24D1206C10400338431E9841134B86
:100AA00040421840A16F01F025FB114C206010BDA1
:100AB0001F2319400131490001F01CFBF2E7A26835
:100AC000206C1F211840033843425841094B4042D3
:100AD0001840064B0A40C01801325043E2E7034871
:100AE000E0E7C04600800440D83F0000001BB7008C
:100AF0000000001000E548FF704710B5044B054AA0
:100B00009360054B054A1A60FFF7F6FF10BDC0461B
:100B10000000000000ED00E000000010001BB70026
:100B2000431E70B55B184D420C002B40984201D912
:100B3000002070BD05225242521A9A42F8D3081D75
:100B4000C01802F0C9FD0028F2D0033423181D405C
:100B5000034A2B1F281A58801A802800E9E7C0464C
:100B600039300000031F054A198810B5914203D19E
:100B70005B88C01A02F0BAFD10BDC04639300000D3
:100B80000A0010B500280BD00023190001F0ACFDBD
:100B90000023044A01F082FC001C01380028FCD12B
:100BA00010BDC04600093D004023044A10B5D16F76
:100BB0000A200B43D36700F0F9FA10BD048004400B
:100BC00070B54024104DEE6F3443EC67012494401F
:100BD000220080241E788D00A401002E04D1451926
:100BE0002B5993432B5170BD5B78002B09D18A237D
:100BF0001B01C91889000A504019035913430351B6
:100C0000F1E78823F4E7C04604800440EFF3108145
:100C100072B60720064A136883431360054A0338F7
:100C200013698343136130BF81F310887047C04656
:100C30000000024000ED00E010B5EFF3108172B645
:100C400007230C4C22689A43063B13438C222360F3
:100C5000094C9200A35883430420A350074B1A6900
:100C600002431A6130BF1A6982431A6181F3108806
:100C700010BDC046000002400080044000ED00E0CE
:100C800010B5EFF3108172B607230C4C22689A431B
:100C9000053B13438C222360094C9200A3588343E5
:100CA0000420A350074B1A6902431A6130BF1A6926
:100CB00082431A6181F3108810BDC04600000240D3
:100CC0000080044000ED00E0EFF3108172B60F23C6
:100CD000084802689A430C3B134303600420064B08
:100CE0001A6902431A6130BF1A6982431A6181F39B
:100CF000108870470000024000ED00E030B50E4A59
:100D0000172811D9050001238121183DAB40890026
:100D1000545823435350002805DB1F2318401E3B23
:100D20008340064A136030BD01238521834089003A
:100D3000545823435350F0E70080044000E100E0A2
:100D400010B5002809DB1F220123024093400B4A03
:100D5000D367BFF34F8FBFF36F8F094B172808D9A5
:100D60008124A4001A591838012181408A431A515C
:100D700010BD8524A4001A59F6E7C04604E100E03E
:100D80000080044003688B43036003680B430360E7
:100D900003681942FCD0704700487047001BB70039
:100DA0008E23044A9B00D35800209B0601D4024B9B
:100DB00018687047008004409C0000100A4B10B572
:100DC000186C03231840012807D0984208D04342EA
:100DD0005841064B4042184010BDFFF7E1FFFBE7CA
:100DE000034B1868F8E7C04600800440001BB700BA
:100DF0009C00001010B50D4C0020236F032B06D86B
:100E0000180001F063F910020508FFF7D7FF10BDC5
:100E1000074B5868FBE7FFF7D1FF1F22A368134079
:100E200001335843F3E70348F1E7C046008004402C
:100E30009C000010001BB7000F4B10B51C680F4B37
:100E400000201B68E4B2032B06D8180001F03EF91D
:100E500012020C0FFFF7A4FF002C03D0210001F0B9
:100E600049F90400200010BD054B5868F4E7FFF76E
:100E7000C1FFF1E70348EFE7E8800440E080044069
:100E80009C000010001BB70010B5FFF7B3FF0A4B22
:100E9000FF241A681300234022420BD0074A010E98
:100EA0001268000222400132FF325A43002301F04F
:100EB000F5FA0300180010BD94800440F48004404B
:100EC00010B5FFF7E1FF10BD10B5FFF7DDFF10BD56
:100ED00010B5FFF7D9FF10BD10B5072821D801F0D4
:100EE000F5F8060E2004111720140F4810BDFFF767
:100EF00081FF0E4B996FC9B201F0FCF8F6E7FFF7DE
:100F000079FFF3E70A4B1868F0E7094B5868EDE7FB
:100F1000FFF754FF1F22054B9B68134001335843D2
:100F2000E4E70020E2E7C046001BB7000080044071
:100F30009C0000108E22802370B51F4C9200A15897
:100F400006000B430321A350236C226C8B431343F5
:100F500002791A4813432364FFF714FFFFF72EFFAB
:100F6000366801000500300001F0C4F8144A00237F
:100F7000964208D8134A0133964204D80023124AF5
:100F8000B2425B4102331F26A168421E32406036E6
:100F9000B1430A435B0113438E228021A360920078
:100FA000A3588B43A3500123E2681A42FCD0684344
:100FB000064B986070BDC0460080044044800440E9
:100FC000802FA604C0175302E08B29019C0000105B
:100FD0001821074A10B5D36A064C8B43D362E0222E
:100FE000054952008B5823408B50044B186010BDAC
:100FF00000400440FFFDFFFF00C000409C000010C7
:101000001821104A10B5936B04008B439363E022C0
:1010100040200D4952008B5883438B500B4BC03AF4
:10102000196AFF3A0A438E211A6289005A582038F9
:101030008243DA305A5040000549FFF7A1FD054BC5
:101040001C6010BD0040044000C00040008004400F
:1010500080C3C9019C0000101821154B10B55A6BB4
:1010600004008A435A639A6BC0208A439A63E02241
:10107000104952008B5883438B500F49BD380B6A7F
:101080000A6A834313430D4A1D30A24292415242E1
:10109000520013438E220B6292008B588343DA3046
:1010A0008B5040000649FFF76BFD064B1C6010BDDE
:1010B0000040044000C0004000800440C0E1E40063
:1010C00080C3C9019C00001070B5F0250D4CC20C06
:1010D000636A6D005B0A2A405B021A43C23D4B08FB
:1010E000FF3D013B2B4013438E2263629200A358C5
:1010F0002135AB430002A350000A00F0FBFF024B76
:10110000586070BD008004409C00001010B503249E
:101110000949020A0B6F23409A420BD0C0B2002843
:1011200008D10B6F2240A34313430B6703480121EF
:10113000FFF728FE10BDC0460080044074800440C4
:10114000F8B50400FFF756FE114B06001B685C4320
:10115000211E1BD00021A04218D3210000F0CAFF9D
:101160000021012812D80B0022000D003400FF27B7
:10117000A41A9D41074829020760200E014320025E
:1011800001F08CF90121044B384018600800F8BDCB
:1011900094800440F0800440F480044010B50121A4
:1011A0000148FFF7EFFD10BDE480044001228240BA
:1011B000034B59689143596059680A435A60704714
:1011C00000800440032310B5FF240B40DB009C404B
:1011D0009A408908890040180168A1430A430260C7
:1011E00010BD002A07D0002904DBE02252008358FA
:1011F0008B43835070470029FCDBE0235B00C2581F
:101200001143C150F6E7890093B24018120D8018BF
:101210000360704780230E4A10B5D46F5B042343EC
:10122000D367002343660A790B68DBB2002A02D039
:101230008022D200134320220360C36E9343C3660F
:101240004B79C46E5B0113402343C36610BDC04697
:101250000480044010B50822002102F0C3FC10BD38
:10126000024A0349D36F0B40D367704704800440A0
:10127000FFFFFFFEF8B50400FF272568236808007C
:10128000BB4323600E4900F035FF26680138384023
:10129000304380262060962023680A4AF6051340D2
:1012A000236023684000334323600749FFF768FC4D
:1012B000236800202560334200D10120F8BDC046DC
:1012C00020A10700FFFBFFFF80C3C901E0224B689C
:1012D000D2011B0313400A681205120D13430A7A48
:1012E000012A02D18022D20213434A7A002A02D074
:1012F000802212031343CA7A012A02D18022D20526
:1013000013438A7A002A02D0802252051343836055
:101310007047E0224B68D2011B0313400A68120594
:10132000120D13430A7A012A02D18022D2021343FA
:101330004A7A002A02D0802212031343CA7A012A71
:1013400002D18022D20513438A7A002A02D0802259
:1013500052051343C36070470322006903041B0D49
:101360000B60030C13400B71830C13404B71830013
:101370001B0F8B604300DB0FC00F0B737047032202
:10138000406903041B0D0B60030C13400B71830CAD
:1013900013404B7183001B0F8B604300DB0FC00FAA
:1013A0000B737047083189000858032103041B0D93
:1013B0001360030C0B401371830C0B4053718300BB
:1013C0001B0F93604300DB0FC00F13737047C046C1
:1013D000F7B5002501270B4E0B4B34681B682340E3
:1013E00001933C4205D0094BAA00D358002B00D0F2
:1013F0009847640802D00135082DF2D1019B336073
:10140000F7BDC046F4400050F0400050A800001066
:101410008023264A70B50D00D16F5B000B4304009A
:10142000D3670820FFF7C2FE78210620AB782A7820
:10143000DB000B40697849000140F0200B43297A1A
:1014400040014902014013430B432360EB78697963
:101450001B0149010B4304210B43636008236168AE
:101460000B436360002A0FD12B79AA791B05520523
:10147000134380226168D2020B43134363608023CD
:1014800062681B0313436360EB7900252365084CF6
:1014900029002022200025626562A562E56202F033
:1014A000A1FB044B2800236370BDC04604800440A8
:1014B000A8000010D11300004268044B04491343F4
:1014C000044A4360D36F0B40D367704704000400A5
:1014D000FFFEFFFF0480044010B508220400002135
:1014E000013002F07FFB012323700E33237210BD05
:1014F000F7B504000800A030C000201840680F278E
:101500000190C120C326DD00651980002858B6006F
:1015100038404030AD598000005966683D400B3F6F
:1015200037436760632A1AD90127019EDB193A0005
:10153000DE408A40236D3E420FD0134323650230C4
:10154000AD0065192B00FC335860802304229B00FA
:10155000E850636893436360F7BD9343EEE700236D
:10156000190001F0C1F86422002300F097FFE7E7BB
:10157000F7B5040045481500066A08AA012012784C
:101580000193072E1CD88B040F009B0F022B18D140
:10159000F022019B92009B01134032006032D20086
:1015A0000B43A21853600122384900204B6A9A402D
:1015B00033006033DB001A51099B1E6001360E6256
:1015C000FEBD0921D940014205D0019B9901F023BC
:1015D0009B0019400F4301239A4219D12368100040
:1015E0001342EDD129498A6A072AE9D89300E31802
:1015F0001800ADB2FE3045808020800017431D5298
:1016000033006033DB00E31801325F608A62CAE7AF
:10161000022A26D1226818001A42D1D11B49CA6A6F
:10162000072ACDD83B00102713431F439300E3182C
:101630001800FE3040882D042843AC461D00FC35C0
:101640006860802080001D5A60460543802080002D
:101650001D5033006033DB00E31801325F60CA6263
:10166000A1E71800042AABD122681A42A8D0074982
:101670008A6A072AA4D89300E3181800FC30456052
:101680008020800017431D50BAE7C046A800001014
:10169000F0B51D00002387B004930593544B0E0052
:1016A0001B6A0400023341680292082B02D9012010
:1016B00007B0F0BD4909C9B20C98013100F01AFD1C
:1016C000029B012B08D162680F33134363606900EA
:1016D00000F010FD050006E0029B002BF7D1290069
:1016E00000F008FD451EB278632A43D9AB1C039372
:1016F0000427802104AB2A00019349010023200024
:101700000097FFF735FF802105AB0500019320000E
:101710000023039A00974901FFF72AFF2843C6D107
:1017200001221100049D6B46A94003911100A76896
:101730001B7B3B43A3600D9B17001D60059D337809
:10174000A9400D0071789F408C46DE0091422ED159
:101750000299284A002918D1236DA619BB43236595
:10176000A024E400335903990B433351B3582B435E
:10177000B3509DE700232800190000F0B5FF642254
:10178000002300F08BFE0390B2E7216DA6193943C8
:101790002165B1585B002943B15003219940626D26
:1017A0008A43614699400B001343636580E70299C1
:1017B00000290BD1236DA6193B4323650D4B0399DB
:1017C000F2581143A022F150D200CFE7216DA619A3
:1017D000B943A0272165FF00F1595B002943032588
:1017E0009D409A40F151616DA9430A4362655FE7EC
:1017F000A800001004050000064B10B55C6A012328
:10180000C022A340C9004018920081580B43835066
:1018100010BDC046A8000010044A0120536A072BDF
:1018200002D81B18002053627047C046A800001061
:10183000014B586A7047C046A800001070B50124DB
:101840009440094ECB00C3189D5922002543A02483
:101850009D51E4001D5949002A431A5103238B402E
:10186000826D1343836570BD04050000F7B5040065
:10187000204D0092012901D004291CD1A96A012020
:10188000072917D880278E00A619BF00F25B4C34B9
:10189000944602009A4013006246884013439BB26C
:1018A000F353238803439BB22380009B19600131CB
:1018B000A9620020FEBDE96A01200729FAD8802725
:1018C0008E00A619BF00F25B019202009A40130439
:1018D000094A88401340019A00041343F35123003E
:1018E0004C331B881843009BE06419600131E962A6
:1018F000DFE7C046A800001000F0FF0F014B920088
:1019000099507047A800001010B5024B02481B6B9D
:10191000984710BDA800001000400050074A03007F
:101920000020934208D0064A0130934204D0054A71
:101930009818431E984102307047C0460040064048
:10194000008006400040F9BF30B5448C018C030094
:10195000A5B28AB2081B8C4202D9DB69D218501B8F
:1019600030BD8022F0B50B6905000C0085B0520037
:10197000002B02D18B69002B2BD06368AE680293D9
:101980006B69DBB2019316425CD1F3073AD5236948
:10199000002B59D0E368019A1A702369013B236137
:1019A000E3680133E3602369002B2BD1A369002B8B
:1019B00002D10223FF332B61230002222D331A7040
:1019C000676A002F1ED021002800A36A384AB84752
:1019D00018E04968866802914169164212D0CAB27D
:1019E000019203938023AA685B00676A1343AB608C
:1019F000002F04D021002800A36A2E4AB847039B79
:101A0000002BC2D1029B002B1AD00422164217D001
:101A100023681B78EB616368013B636023680133D3
:101A200023606368002B0BD12A6122002C321370D3
:101A3000666A002E04D021002800A36A1E4AB0471F
:101A400005B0F0BD0123CCE7A369002BDAD020005C
:101A5000FFF77AFFE369013B984207D1676A002FDD
:101A600004D021002800A36A144AB8472000FFF7D9
:101A70006BFFE269531E984205D1638C0133934298
:101A80000DD100236384238CA2690199D154238C46
:101A9000E2690133934206D100232384B2E7638CC9
:101AA00001339BB2EEE7238C01339BB2F5E7C046CE
:101AB0004716000049160000461600004A160000AE
:101AC000CB6100230B844B840223FF338A61C36004
:101AD00070470B002D331B78022B02D10223FF33FA
:101AE000036100230B848B61CB614B847047082317
:101AF00010B582681A42FCD001240368A343036036
:101B0000FFF70CFF0349044A095CD36F8C40A343E1
:101B1000D36710BD144000000480044010B50C22AF
:101B200004000021043002F05DF896239B0123603D
:101B30000123E37210BDF0B5036887B005000C0007
:101B400001921B0507D5100000F0D4FA0138286275
:101B5000002007B0F0BD0A2301270F26019A7F421B
:101B6000534305930B010093039602970099059840
:101B700000F0C0FAA02305381B03984213D20A21B3
:101B800000F0B8FA731C411C59430490019800F00E
:101B9000B1FA231A844200D2031B029A934202D262
:101BA000049F03960293009B013E1B1B0093072E8C
:101BB000DCD180235B029F4203D2039BAB622F6286
:101BC000C6E70148C5E7C0464F160000F8B5012634
:101BD0000D0004001700FFF7A1FE3749CB6F31005D
:101BE0009C46364B1A5C033391400A0061460A4317
:101BF0003149185CCA67FFF7D9FA8020AB79297A96
:101C00002A7B4902DB030B43000191020140302093
:101C10000B43697A9203090101400B43A97A103002
:101C2000890101400B43E97A3438890001400B43B4
:101C30008021C9010A4013436A7B80218240490107
:101C40000A40134329681E432660002906D1EB7918
:101C5000002B0BD163681A4A13400BE03A002000B6
:101C6000FFF769FF0028F2D016481FE08023626862
:101C70005B00134363606B79002B0FD00123226854
:101C80001343402223606368934363602B79002BE6
:101C900008D0012322681343236006E040236268D2
:101CA0001343F2E763685B0601D40020F8BD01220C
:101CB00023689343F0E7C0460480044014400000CA
:101CC000FFFEFFFF4F160000042310B58A18914253
:101CD00005D1082382681A42FCD0002010BD846818
:101CE0001C42FCD00C780131C461F0E7F7B58B18C9
:101CF00001938023802680271B0201259C467600C5
:101D0000BF01019B994201D100201BE083682B4257
:101D1000FCD0826883681343836032421CD1140074
:101D200063463C401340520405D4002C0BD1002BD9
:101D30000ED00A4806E0002C05D15A425341580003
:101D4000064BC018FEBD5A425341044A9818F9E7A1
:101D500043690B700131D4E70148F3E74B160000EB
:101D60004E160000F8B50C001E001700FFF7D6FD58
:101D7000302205000021200001F034FF2300022260
:101D80002D331A700022013B1A700A4BAA00D4505E
:101D9000094A6762DA60094BA6625B57002B06DBD3
:101DA0001F2213401E3A9A401300054A1360002078
:101DB000F8BDC046DC000010631900001A400000A6
:101DC00000E100E00B0010B52C331C78012C0ED084
:101DD000146852680C608A604A6001221A700423F9
:101DE000C36043683F3293434360002010BD014805
:101DF000FCE7C046441600000423036142683C33FC
:101E00001343436000234B602C310B7070470B0071
:101E10002C331B780620002B04D048688B681B1AD3
:101E2000002013607047F7B517000A0001932D32A8
:101E3000137806000C00032B53D08B697D68002BB0
:101E400044D0012303610800FFF77EFD00900028C5
:101E500008D0A84200D90095009BED1A0023009AF3
:101E600093420DD1002D1ED10123656AF360002D30
:101E700026D1019B002B01D0009A1A600020FEBDE4
:101E8000608CA269591C125C3868C254638CE0698A
:101E90000133834203D1002363840B00DFE7638CAB
:101EA00001339BB2F8E73B68009A9B18E3607B68BC
:101EB0002561636103232D342370023BF360D8E76F
:101EC00021003000A36A084AA847D2E73968656153
:101ED000E1600321256111700222FF32C26000938C
:101EE000C7E70248CBE7C04647160000451600008A
:101EF0008B69002B02D10223FF33036100230B61A6
:101F00002D3102330B7070470B002D331B780620E8
:101F1000022B04D008694B691B1A0020136070471C
:101F200010B5034B0348DA681968904710BDC046E6
:101F3000DC0000100040064010B5034B0348DA688F
:101F40005968904710BDC046DC0000100080064074
:101F500010B5034B0348DA689968904710BDC04636
:101F6000DC00001000C0064072B6074880470749F1
:101F7000074A084B9B1A03DD043BC858D050FBDCD2
:101F800062B6054880470000FB0A0000B04100002F
:101F900000000010640000100D03000025480047F9
:101FA0002548004725480047254800472548004761
:101FB0002548004725480047254800472548004751
:101FC0002548004725480047254800472548004741
:101FD0002548004725480047254800472548004731
:101FE0002548004725480047254800472548004721
:101FF0002548004725480047254800472548004711
:102000002548004725480047254800472548004700
:1020100025480047254800472548004725480047F0
:1020200025480047254800472548004725480047E0
:10203000254800479D1F0000A11F0000A51F0000AC
:10204000A91F0000AD1F0000B11F00009D1F000070
:102050009D1F00009D1F0000211F0000391F000070
:10206000511F00009D1F00009D1F00009D1F0000CC
:10207000091900009D1F00009D1F00009D1F00000A
:102080009D1F00009D1F00009D1F00009D1F000060
:102090009D1F00009D1F00009D1F00009D1F000050
:1020A0009D1F00009D1F00009D1F00009D1F000040
:1020B0009D1F00009D1F00009D1F00009D1F000030
:1020C0009D1F00009D1F00009D1F000002B471466F
:1020D00049084900095C49008E4402BC7047C0466B
:1020E00003B47146490840004900095E49008E4426
:1020F00003BC7047002243088B4274D303098B4210
:102100005FD3030A8B4244D3030B8B4228D3030CC7
:102110008B420DD3FF22090212BA030C8B4202D369
:102120001212090265D0030B8B4219D300E0090A91
:10213000C30B8B4201D3CB03C01A5241830B8B429A
:1021400001D38B03C01A5241430B8B4201D34B0383
:10215000C01A5241030B8B4201D30B03C01A5241E8
:10216000C30A8B4201D3CB02C01A5241830A8B426D
:1021700001D38B02C01A5241430A8B4201D34B0256
:10218000C01A5241030A8B4201D30B02C01A5241BA
:10219000CDD2C3098B4201D3CB01C01A524183096E
:1021A0008B4201D38B01C01A524143098B4201D3A8
:1021B0004B01C01A524103098B4201D30B01C01AD3
:1021C0005241C3088B4201D3CB00C01A524183084D
:1021D0008B4201D38B00C01A524143088B4201D37A
:1021E0004B00C01A5241411A00D2014652411046DA
:1021F0007047FFE701B5002000F0F0F802BDC046CF
:102200000029F7D076E7704703460B437FD40022BE
:1022100043088B4274D303098B425FD3030A8B427A
:1022200044D3030B8B4228D3030C8B420DD3FF22E4
:10223000090212BA030C8B4202D31212090265D0B2
:10224000030B8B4219D300E0090AC30B8B4201D365
:10225000CB03C01A5241830B8B4201D38B03C01AAC
:102260005241430B8B4201D34B03C01A5241030B23
:102270008B4201D30B03C01A5241C30A8B4201D3D4
:10228000CB02C01A5241830A8B4201D38B02C01A7F
:102290005241430A8B4201D34B02C01A5241030AF6
:1022A0008B4201D30B02C01A5241CDD2C3098B42DB
:1022B00001D3CB01C01A524183098B4201D38B0158
:1022C000C01A524143098B4201D34B01C01A5241FB
:1022D00003098B4201D30B01C01A5241C3088B4240
:1022E00001D3CB00C01A524183088B4201D38B002B
:1022F000C01A524143088B4201D34B00C01A5241CD
:10230000411A00D201465241104670475DE0CA0FA3
:1023100000D04942031000D34042534000229C4663
:1023200003098B422DD3030A8B4212D3FC2289016D
:1023300012BA030A8B420CD3890192118B4208D343
:10234000890192118B4204D389013AD0921100E0A5
:102350008909C3098B4201D3CB01C01A52418309B9
:102360008B4201D38B01C01A524143098B4201D3E6
:102370004B01C01A524103098B4201D30B01C01A11
:102380005241C3088B4201D3CB00C01A524183088B
:102390008B4201D38B00C01A5241D9D243088B42E1
:1023A00001D34B00C01A5241411A00D20146634684
:1023B00052415B10104601D34042002B00D54942E8
:1023C000704763465B1000D3404201B5002000F027
:1023D00005F802BD0029F8D016E770477047C046DF
:1023E000844608006146FFE71FB500F0AFFC0028F7
:1023F00001D40021C8421FBD10B500F02FFC40429F
:10240000013010BD10B500F0A1FC002801DB002058
:1024100010BD012010BDC04610B500F097FC00288B
:1024200001DD002010BD012010BDC04610B500F038
:102430003DFC002801DC002010BD012010BDC0467D
:1024400010B500F033FC002801DA002010BD012097
:1024500010BDC046002B15D1002A13D1002906DB80
:1024600001DC002806D00020C043410802E08021A2
:102470000906002007B4024801A14018029003BDDC
:102480005DFFFFFF03B4684601B5029800F03EFA15
:10249000019B9E4602B00CBC7047C046002B11D178
:1024A000002A0FD1002900D1002802D00021C94301
:1024B000080007B4024802A14018029003BDC046BC
:1024C0001DFFFFFF03B4684601B5029800F052F902
:1024D000019B9E4602B00CBC7047C0461C210123E4
:1024E0001B04984201D3000C10391B0A984201D3F7
:1024F000000A08391B09984201D30009043902A2D5
:10250000105C40187047C04604030202010101013B
:10251000000000000000000010B5002903D1FFF703
:10252000DDFF203002E00800FFF7D8FF10BDC046F5
:102530000448054B10B5834203D0044B002B00D058
:10254000984710BD640000106400001000000000F7
:1025500006480749091A8B10C90FC91810B5491048
:1025600003D0044B002B00D0984710BD640000102E
:10257000640000100000000010B5074C2378002B09
:1025800009D1FFF7D5FF054B002B02D0044800E02E
:1025900000BF0123237010BDEC00001000000000FC
:1025A00084410000054B10B5002B03D004490548B9
:1025B00000E000BFFFF7CCFF10BDC04600000000E8
:1025C000F000001084410000324B334A30B59A616C
:1025D000324A85B0DA61324A324C1A62324A334D9D
:1025E0005A6200221A605A609A601A615A616A46F9
:1025F0009A62FEF7FDF9FDF7EBFFFEF737F82C4B7B
:102600002C4A2D481A60FEF7C3F92C48FEF7C0F992
:102610002B48FEF7BDF92B48FEF7BAF92A48FEF71A
:10262000B7F92A48FEF7B4F92948FEF7B1F9802333
:10263000E26F5B001343E367FDF742FFFDF78EFF98
:102640008023E26F5B0413438E221021E367920024
:10265000AB5803208B43AB50FEF73EFC01001D48F6
:10266000FEF708FE002812D01B48FEF791F96846D5
:10267000FDF7F6FE0123174A516E0B435366802285
:10268000164B52021A601648FEF782F9FEE715480B
:10269000EBE7C0466400001077BEFFBFEE7C7F3FD3
:1026A0006F12833A0480044053CF82BA0080044002
:1026B0009800001059060000444000004940000006
:1026C0006E40000081400000A3400000C8400000B0
:1026D000ED40000000C001401241000000E100E0B8
:1026E000444100002A410000F0B5CE469946030C53
:1026F0009C46130447461B0C1D000E006146040453
:10270000240C80B50700100C4B43654341436043E4
:102710002C0CC01824188C46A34203D980235B02DA
:102720009846C444494679435643230C2D042D0C46
:102730008919634424046019C918C0BCB946B0465D
:10274000F0BDC0469E2110B5C905041CFFF778FEF8
:10275000002803D1201C00F029FE10BD9E21201C62
:10276000C90500F07FFC00F021FE80231B069C467B
:102770006044F2E7F0B557464E464546DE46E0B5C2
:1027800004000D009246994683B08B4230D82DD07C
:1027900049465046FFF7C0FE290006002000FFF71B
:1027A000BBFE331A9846203B34D49B4653465A46C8
:1027B000934042461F00534693401E00AF423BD811
:1027C000AF4200D179E05B46A41BBD41002B00DA8B
:1027D00076E0002200230092019301235A469340A1
:1027E0000193012342469340009329E08242CFD9CE
:1027F00000220023009201930C9B002B01D01C604F
:102800005D600098019903B0F0BCBB46B246A94692
:10281000A046F0BD42469B4620239B1A5246DA4012
:10282000414613004A468A40170042461F4353461A
:1028300093401E00AF42C3D90022002300920193AF
:102840004346002BD8D0FB0772081A4346467B0844
:102850000EE0AB4201D1A2420CD8A41A9D41012046
:1028600024196D410021013E24184D41002E06D04F
:10287000AB42EED9013E24196D41002EF8D10098EB
:1028800001995B4600196941002B24DB2B005A4655
:102890004446D3402A00E2401C005B461500002B52
:1028A0002ADB26009E40330026004746BE40320009
:1028B000801A9941009001919EE7A342BCD882E71B
:1028C0004246202300219B1A0022009101920122FE
:1028D000DA40019285E7424620239B1A2A004646A9
:1028E0009A402300F340444613432A00E2401C0070
:1028F0005B461500002BD4DA42462F002023260029
:1029000097409B1ADE403B003343CDE7F8B5CE46F7
:10291000474680B59146984604000D0000F0B2FD90
:1029200007000E0002000B0048464146FFF7DCFEA0
:10293000241A8D41089B380031001C605D60C0BCCA
:10294000B946B046F8BDC046F8B5CE464746430244
:102950005A0A4E024500C40F480091462D0E720AD5
:10296000000E944680B59B09C90FB6092A1A8C42FD
:1029700021D0002A0DDD00282DD1002E00D18DE0C0
:10298000511E012A00D11DE1FF2A00D1ABE00A004F
:1029900027E0002A4DD0421B002D00D0CCE0002BB8
:1029A00000D179E0541E012A00D128E1FF2A00D18C
:1029B00097E02200C5E0002A00DC96E000284FD016
:1029C000FF2D00D18FE08021C9040E431B2A51DD69
:1029D0002A00013318E0FF2D00D184E08021C904D2
:1029E0000E4301211B2A08DC31002020D140821A2D
:1029F00096403200501E824111435B1A5A0159D44D
:102A000007212A00194049D00F211940042900D07C
:102A10000433590142D5501CFE2A3AD09B01C0B262
:102A20005B0AC0051843E4072043C0BCB946B04662
:102A3000F8BDFE2080466F1C38004746074200D094
:102A40008EE0002D00D0B4E0002B00D1DBE0002EA2
:102A50006CD0981B450100D4F7E00C00F31A3DE060
:102A6000002E1BD0511E012A00D182E0FF2A3AD04D
:102A70000A00ABE731002020D140821A9640320094
:102A8000501E82410A439B185A01B9D56A1CFE2D7B
:102A900075D1FF200023C4E70C003300DB08FF2AB8
:102AA00046D1002BF5D08022D20313435B02FF20D6
:102AB0005B0AB6E79F01BF093800FFF70FFD053835
:102AC0008740854224DC3B002021421B0132D34059
:102AD0008A1A97407A1E974100223B43590793D1A7
:102AE00097E70C003300DB08DBE7002A14D0421B19
:102AF000002D4BD1002BD0D0511E012A00D19EE0D9
:102B0000FF2AEFD00A001B2A5FDD0200731C7BE75F
:102B1000504B2A1A3B40E1E7FE216A1C11423BD18F
:102B2000002D5DD1002B7FD0002E7FD10022DB084D
:102B30005B025B0AD0B274E7FF28D2D08024E404A1
:102B4000234301241B2A07DC1C002025D440AA1A99
:102B500093405A1E93411C43331B05000C004DE764
:102B60009F1B7A0122D4002FA6D10024002000232D
:102B700057E79B1901250132590100D440E7012193
:102B8000354819405B0803400B43A7E7FF28A9D04D
:102B90008021C9040B43B6E7FF2A00D179E79B19CE
:102BA0005B08590700D02FE7DB08C1E70C00F71AD4
:102BB00082E7002B2CD1002E93D180230024FF200C
:102BC000DB032EE701259B1B18E719002025D140C8
:102BD000AA1A93405A1E93410B4305009B1953E7D1
:102BE000002B00D17EE7002E00D17CE78022D203AB
:102BF000914502D3944500D23300DB0853E70C0023
:102C0000F31A0135FAE6002EAFD00C0033008DE741
:102C1000002E00D167E78022D2039145EDD3944581
:102C2000EBD20C003300E8E733007FE79B1900226A
:102C30005901B9D5074A1340DB08012278E79B19EF
:102C40000132013559019AD4DAE6031E8DD0DB0832
:102C50006EE7C046FFFFFFFBFFFFFF7D70B5420040
:102C60004E024C0045026D0A120EC30F760A240E66
:102C7000C90FFF2A10D0FF2C0CD00120A2420AD18C
:102C8000B54208D18B420FD0002A04D12800431E40
:102C9000984100E0012070BD0120FF2CFBD135439D
:102CA000F9D14B401800F6E70020F4E730B54200B8
:102CB00044024D02C30F4800640A120E6D0A000E52
:102CC000C90FFF2A19D0FF280BD0002A1ED10028D7
:102CD0000BD1002D27D0002C34D100292FD0080093
:102CE00030BD002D28D1002A01D1002CF5D08B4217
:102CF00007D1002B23D01800F2E7002C1CD1FF28AD
:102D000014D0581E022318400138E9E70028F8D0F3
:102D10008B42F6D18242F4DCEBDBAC42F1D80020EE
:102D2000AC42DDD2E5E7002CDAD0EAE7002D03D192
:102D30008B42E6D10020D3E702204042D0E70120B9
:102D40004042CDE78B42E8D0DBE7C04630B54200D9
:102D500044024D02C30F4800640A120E6D0A000EB1
:102D6000C90FFF2A1AD0FF280ED0002A1ED1002832
:102D70000ED1002D2AD0002C0CD08B421DD0581E15
:102D800002231840013810E0002D0DD1002A20D177
:102D9000002C1ED1002923D0080006E0002C03D10E
:102DA000FF28ECD1002D17D0022030BD0028E6D03E
:102DB0008B42E4D18242E2DC04DBAC42DFD800206B
:102DC000AC42F2D2002B0BD01800EEE7002CECD076
:102DD000D5E78B42D3D1F5E700208B42E5D0CEE793
:102DE00001204042E1E7C046F0B54F464646D64690
:102DF00043025B0A4500C0B599460F1C2D0EC60F55
:102E0000002D00D188E0FF2D00D18DE08022DB0075
:102E1000D2041A430023914698469A467F3D7C028D
:102E20007B00640A1B0EFF0F002B68D0FF2B21D004
:102E30008022E400D204144342467F3B5B19002108
:102E40005D1C0A2A2EDC7E404246022A23DC013A1F
:102E5000012A00D9BDE002296ED001292CD1002021
:102E60000022C005F60710433043E0BCBA46B14625
:102E7000A846F0BD2B00FF33002C65D0032241464D
:102E800011433200013588467A40FF350A2900DDBA
:102E9000D8E016000321404601228240A620C0004F
:102EA000024220D05346022B46D0032B00D1BBE078
:102EB00051464C460129D2D02B007F33002B70DDC8
:102EC000620704D00F222240042A00D004342201D9
:102ED00003D5634B1C402B008033FE2B2CDCA2015E
:102EE000520AD8B2BDE790208000024227D1B938FB
:102EF000FF3810426DD03E00A1468A46D2E7002C32
:102F000041D1012342461A4390462B0042460121FB
:102F10005D1C0A2A97DDC5E7002B26D104239846BD
:102F2000033B00259A467AE7002B18D108239846E0
:102F3000063BFF259A4672E7FF20002291E7802298
:102F40000026FF20D2038CE74146022201351143BF
:102F50008846FF350A29A5DC02217E4074E70C2350
:102F60009846093BFF259A4659E71800FFF7B6FA3D
:102F70004A46431F76259A4000236D429146984663
:102F80009A462D1A4BE72000FFF7A8FA4246431F46
:102F90009C402B1A763B00215D1C0A2A00DC52E77C
:102FA00080E70122D31A1B2B00DD58E79E35220053
:102FB000AC40DA40631E9C412243530704D00F23E8
:102FC0001340042B00D00432530137D501200022D6
:102FD00047E7210C4A462404240C2700100C120455
:102FE000120C44435743484351433A0C09195218B1
:102FF000944203D9802149028C4660443F04110465
:103000003F0CC9198C01671EBC41120C890E1218A5
:103010000C439201144312010ED5012362081C4097
:10302000144349E73E00A14680224B46D2031A438F
:103030005202FF20520A14E71D003DE792010020D2
:10304000520A0EE70F29EDD180224B46D2031342DC
:10305000EAD01442E8D13E00FF20224301E7C046F7
:10306000FFFFFFF7F8B54746CE464E024302450044
:10307000720AC40F480080B594465F0A2D0E9B0962
:10308000000EC90FB609FF2824D0012251402A1A88
:103090008C420FD0002A00DC6AE1002835D1002ED6
:1030A00000D1A2E0511E012A00D124E1FF2A21D043
:1030B0000A002FE0002A00DC67E100285ED0FF2D27
:1030C00018D08021C9040E431B2A00DC76E02A00B8
:1030D000013332E02A00FF3A9146002E42D08C4262
:1030E00055D04A46002A00D19CE0002D00D177E05F
:1030F0000C003300DB08002B00D16EE08022D203ED
:1031000013435B02FF205B0A24E0FF2DF2D08021F5
:10311000C9040E4301211B2A08DC31002020D140C4
:10312000821A96403200501E824111435B1A5A01A6
:1031300060D407212A00194057D00F2119400429D3
:1031400000D00433590150D5501CFE2A45D09B01B4
:10315000C0B25B0AC0051843E4072043C0BCB946AF
:10316000B046F8BD012251408C42BAD14A46002AED
:1031700010D0002D00D198E00023BBE7002E34D002
:10318000511E012A6ED0FF2AB4D00A009CE7002A03
:1031900000D088E0FE206A1C104200D092E0002D92
:1031A00000D0A4E0002B00D1CBE0002E00D0CAE07C
:1031B0000022DB085B025B0AD0B2CBE731002020A3
:1031C000D140821A96403200501E82410A439B1819
:1031D0005A01AED56A1CFE2D4AD1FF200023B9E763
:1031E000FF22002B4BD10C003300DB08FF2A00D15B
:1031F00081E7DFE79F01BF093800FFF76FF9053866
:103200008740854221DC3B002021421B0132D34014
:103210008A1A97407A1E974100223B43590700D0F3
:103220008BE78FE7FE206A1C104212D1002D52D18D
:10323000002B7CD0002EBBD09A1B500100D48BE019
:1032400001240022F31A0C40E8E7564B2A1A3B40AF
:10325000E4E79F1B7A0146D4002FCDD10024002043
:10326000002377E79B1901250132590100D460E75B
:1032700001214D4819405B0803400B43CEE7571E20
:10328000012A5AD00C00FF2A33D001221B2F07DC61
:103290002021C91B1A008B40FA40591E8B411A434A
:1032A0000500B31A43E7002D23D1FF22002B9BD04A
:1032B000511E012AD6D0FF2A1BD01B292CDD02006B
:1032C000731C3AE7FF2A88D09B195B08590700D086
:1032D00033E7DB086EE7002B10D1002E43D001242A
:1032E00033000C4006E70124F71A0C4084E7002B5A
:1032F00004D13300FEE601259B1B18E7002E00D108
:10330000F8E68022D203974204D3944502D20124E6
:1033100033000C40DB08F1E61A002025CA40691A88
:103320008B40591E8B41134305009B1950E7002E1B
:1033300094D0012433000C403AE70C000125F31A25
:10334000F5E6330034E79B1900225901C1D5154A2F
:103350001340DB0801222DE7002A00D17EE713008D
:103360000022DB0826E780230024FF20DB03F1E6B0
:10337000002A00D156E7471B3A00002D00D130E764
:103380008022D2040C0013437FE7002A00D101E71A
:10339000411B002D01D10A0088E78022D20413438B
:1033A0008BE7C046FFFFFFFBFFFFFF7D41024200AE
:1033B000C30F490A0020120E7E2A03DD9D2A02DD7A
:1033C000094A98187047802000040143952A07DCB9
:1033D0009620821AD1404842002BF3D10800F1E731
:1033E000963A9140F7E7C046FFFFFF7F70B500288F
:1033F00013D0C317C5185D40C40F2800FFF76EF83F
:103400009E2301001B1A962B0FDC082834D00839A4
:103410008D406D026D0AD8B202E000240020002524
:10342000C0052843E407204370BD992B16DC421FDA
:10343000052800D095402A00114802406E0709D0A7
:103440000F263540042D05D00432550102D59F23A7
:1034500002405B1A9201550AD8B2E1E70522121A1E
:103460002800D040020008001B3085402800451E7F
:10347000A84102431500DEE76D0296206D0ACFE7F2
:10348000FFFFFFFBF0B5D6464F464646C0B50400E9
:103490000D001000190082B0002D00DA87E0002B2B
:1034A0000BDB16001F00AB4219D90020002102B02F
:1034B000E0BCBA46B146A846F0BD002746428F415F
:1034C000AF4204D800D082E0A64200D87FE00020BE
:1034D00000218FE0002746428F419F42E5D8AF424E
:1034E00000D198E00023994639003000FFF714F826
:1034F000804629002000FFF70FF843461B1A984624
:10350000203B00D57CE0310099409A460B00310009
:10351000404681400A00AB425FD85CD05146A41AB5
:103520009D41002900DA93E000210020012600904F
:10353000019151468E400196414601268E404146FA
:103540000096002950D0D90756080E435F0841461F
:10355000012200230CE0AF4201D1A6420AD8A41BED
:10356000BD4124196D410139A4185D41002906D0DF
:10357000AF42F0D9013924196D410029F8D10098E2
:103580000199534600196941002B48DB2E002C009D
:10359000DE404346DC405346002B50DB34009C4069
:1035A00023004446A6403200801A99411EE00023C1
:1035B0006242AB4114001D0000298BDB06000F00A6
:1035C000994200D971E702D1904200D96DE70123F9
:1035D0005B42994688E7A142A0D9002100200090D3
:1035E000019141460029AED1009801994B46002B2C
:1035F00000D15CE703000C0000215842A14156E7CE
:10360000424638009A462023310090409B1AD94008
:1036100003000B437BE7A64200D863E745E7424639
:1036200020239B1A2A009A40260013004246D640C7
:103630002C001E434346DC405346002BAEDA424684
:103640002023350094409B1ADD4023002B43A8E73C
:10365000414620260127761A00200021F7400090DD
:103660000191019768E7C046074B10B50400002B95
:1036700002D0002100E000BF044B1B68002B00D0EB
:103680009847200000F0A6FC00000000480200104F
:1036900070B500260C4C0D4D641BA410A64209D138
:1036A000002600F071FD0A4C0A4D641BA410A642CE
:1036B00005D170BDB300EB5898470136EEE7B30073
:1036C000EB5898470136F2E7A8410000A8410000F6
:1036D000AC410000A841000010B5034B0100186880
:1036E00000F030F810BDC0461400001010B5034BB8
:1036F0000100186800F07EFA10BDC04614000010EA
:1037000070B50F4E0D0031680400002902D100F0A1
:1037100027FA30602900200000F022FA431C03D170
:1037200001256D42280070BD0323C51C9D43A8429E
:10373000F8D0291A200000F013FA0130F2D1EFE797
:1037400008010010F7B50322CB1C93430833050092
:103750001F000C2B34D20C27B94233D8280000F0BC
:10376000EFF9374E33681C00002C2FD139002800A8
:10377000FFF7C6FF0400431C5FD134680094009B30
:10378000002B4AD1002C52D023682800E31800995E
:10379000019300F0E5F9019B834248D1236828009A
:1037A000FF1A3900FFF7ACFF013040D02368DB1966
:1037B000236033685A68002A33D1009B336019E0D4
:1037C000002BC9DA0C232B600020FEBD2168C91B29
:1037D00020D40B290AD9E2192760A34204D1326010
:1037E00063681160536005E05A60F9E76268A342BC
:1037F0000ED13260280000F0ABF9200007220B3018
:10380000231D9043C21A9842DFD01B1AA350DCE755
:103810005A60EFE723006468A6E7009C63680093A2
:10382000ADE71A005B68A342FBD10023DAE70C2363
:1038300028002B6000F08CF9C6E70760DAE7C04685
:103840000C010010002310B5040003604360836086
:1038500081814366C281036143618361190008224B
:103860005C3000F0BFF90B4B246263620A4BA36229
:103870000A4BE3620A4B23630A4B9C4205D00A4B76
:103880009C4202D0094B9C4203D12000583000F0EA
:10389000FCF910BDA53A0000D13A0000093B000038
:1038A000353B00001001001078010010E00100100D
:1038B00010B5034A0349044800F078F910BDC0462A
:1038C00008000010A13E00001800001041680B4BDA
:1038D00010B50400994201D000F0E2FAA168084B4B
:1038E000994202D0200000F0DBFAE168054B9942D2
:1038F00002D0200000F0D4FA10BDC0461001001024
:1039000078010010E00100104B6E10B5DB0705D404
:103910008B899B0502D4886D00F0BBF9002010BD97
:103920004B6E10B5DB0705D48B899B0502D4886DDF
:1039300000F0B5F9002010BD10B5094B094A04216B
:103940001A6009480022FFF77DFF0122092107487C
:10395000FFF778FF022212210548FFF773FF10BD21
:1039600048020010B138000010010010780100106A
:10397000E001001010B5024800F08BF910BDC04600
:103980005302001010B5024800F089F910BDC0467E
:1039900053020010F8B50700FFF7ECFF244B1B683B
:1039A000002B01D1FFF7C8FF224EB4687368013BBA
:1039B0000FD53568002D38D1D62138004900FFF7E2
:1039C000C1FE041E26D13060FFF7DCFF0C233B60F4
:1039D0001CE00C22A55E002D1AD12000164B583099
:1039E000E360656600F051F9FFF7CCFF2000082284
:1039F00029002560A560656025616561A5615C3071
:103A000000F0F0F86563A563A564E5642000F8BDE7
:103A10006834CCE70423D022056043600C302900D1
:103A2000A060520000F0DEF834603668BDE7C046A2
:103A300048020010080000100100FFFF10B504004C
:103A4000FFF798FF236A002B02D0FFF79BFF10BD02
:103A5000044B2362044B1B68002BF6D1FFF76CFF6D
:103A6000F3E7C046CD3800004802001010B5FFF75C
:103A700081FF0020024A034900F098F810BDC046BB
:103A8000080000100939000010B5044A044900205C
:103A900000F08CF8FFF776FF10BDC046080000105C
:103AA0002139000070B50C000E25495F00F050FA76
:103AB000002803DB636D1B18636570BDA389024A90
:103AC0001340A381F9E7C046FFEFFFFF00207047D6
:103AD000F8B51F008B8905000C001600DB0505D525
:103AE0000E23C95E0022022300F01EFAA389054AB4
:103AF00028001340A38132000E23E15E3B0000F05A
:103B000041F8F8BDFFEFFFFF70B50C000E25495FCF
:103B100000F00AFAA389421C03D1054A1340A3818D
:103B200070BD802252011343A3816065F8E7C0464F
:103B3000FFEFFFFF10B50E23C95E00F0B1F810BD16
:103B400010B5024800F0A5F810BDC04650020010A4
:103B500010B5024800F0A3F810BDC0465002001096
:103B6000002370B5064D040008002B6000F01CFA1D
:103B7000431C03D12B68002B00D0236070BDC046CE
:103B80005402001070B50400080011001A00002350
:103B9000054D2B6000F016FA431C03D12B68002B57
:103BA00000D0236070BDC04654020010F7B5140069
:103BB000002600900191A5686768013F04D524683C
:103BC000002CF8D13000FEBDAB89012B08D90E22A4
:103BD000AB5E013304D029000098019B984706434F
:103BE0006835EAE703008218934200D170471970E4
:103BF0000133F9E770B505000C1E10D0043C2368B2
:103C0000002B00DAE4182800FFF79AFF1D4A13681A
:103C1000002B05D1636014602800FFF799FF70BD89
:103C2000A34208D9206821188B42F3D119685B6838
:103C300009182160EEE71A005B68002B01D0A3424F
:103C4000F9D911685018A0420BD1206809185018F2
:103C500011608342E0D118685B68411811605360BD
:103C6000DAE7A04202D90C232B60D5E7206821189F
:103C70008B4203D119685B68091821606360546046
:103C8000CAE7C0460C010010704770477047704784
:103C90007047704701207047012070477047704798
:103CA000002370B5064D040008002B6000F064F995
:103CB000431C03D12B68002B00D0236070BDC0468D
:103CC000540200102E4B70B51B68040083424FD085
:103CD000C369002B17D0DB68002B0DD00025E369EA
:103CE000DB685959002944D10435802DF7D1E369A7
:103CF0002000D968FFF77EFFE3691968002902D028
:103D00002000FFF777FF6169002902D02000FFF74C
:103D100071FFE169002902D02000FFF76BFF216BE2
:103D2000002902D02000FFF765FF616B002902D057
:103D30002000FFF75FFFA16B002902D02000FFF7F2
:103D400059FFA16C002902D02000FFF753FF616CDE
:103D5000002902D02000FFF74DFFE16A002902D0C0
:103D60002000FFF747FF236A002B01D0200098476F
:103D700070BD0E682000FFF73DFF3100B2E7C0467E
:103D800014000010F7B50C228B5E05000C001A071A
:103D900061D44A68002A02DC0A6C002A42DDE76A24
:103DA000002F3FD0002280202E682A601A00400198
:103DB000216A0240034227D0626DA3895B0706D5C2
:103DC0006368D21A636B002B01D0236CD21A0023D4
:103DD0002800E76A216AB847431C25D000236360A6
:103DE00023692360A389DB0400D56065616B2E60C5
:103DF000002917D023004433994202D02800FFF74E
:103E0000F9FE002363630DE001232800B847020098
:103E1000431CD2D12B68002BCFD01D2B01D0162BE9
:103E200031D12E60002035E02B680C21625E002B22
:103E300008D01D2B01D0162B0AD100236360236903
:103E40002360D3E7636023692360D204CDD4CDE738
:103E5000402313431BE00E69002EE3D00F680E6071
:103E6000BA1B019200229B0700D14A69A260019B04
:103E7000002BD7DDA36A32001F002800019B216AB6
:103E8000B847002807DC4023A28913431BB2012056
:103E9000A3814042FEBD019B36181B1A0193E6E741
:103EA0000B6970B505000C00002B02D1002528001D
:103EB00070BD002804D0036A002B01D1FFF7BEFDBE
:103EC0000C22A35E002BF1D0626ED20704D49B05B6
:103ED00002D4A06DFFF7DDFE28002100FFF752FF9E
:103EE000636E0500DB07E2D4A3899B05DFD4A06DD8
:103EF000FFF7D5FEDBE70000010010B5002805D173
:103F0000054A06490648FFF751FE10BD054B1868E3
:103F1000FFF7C6FFF9E7C04608000010A13E000009
:103F2000180000101400001070B504000800110003
:103F30001A000023054D2B6000F026F8431C03D126
:103F40002B68002B00D0236070BDC04654020010C7
:103F500070B50400080011001A000023054D2B6005
:103F600000F01AF8431C03D12B68002B00D023600B
:103F700070BDC0465402001058220120014B40423F
:103F80001A6070475402001058220120014B404231
:103F90001A6070475402001058220120014B404221
:103FA0001A60704754020010044A03001068002889
:103FB00002D0C318136070470148FAE75802001096
:103FC0006002001058220120014B40421A607047E5
:103FD00054020010FEE7C046C027090090051000FB
:103FE000C05C1500F0B31A00200B2000009F2400D5
:103FF000E0322900C0C62D0050973100E06735003F
:104000007038390000093D0040164000802343000D
:10401000C03046000E0F1003040503040500000025
:104020003D400B40104026403540034006401440C0
:104030000E400D40254012402840024018400940E3
:104040000A4000000A0A0A0D002A2A2A2A2A2A2AD5
:104050002A2A2A2A2A2A2A2A2A2A2A2A2A2A2A2AC0
:104060002A2A2A2A2A2A2A2A2A2A2A0A0D004849DA
:104070004C20506C616E74206D6F64656C2E0D0A5F
:104080000054686520706C616E74207472616E7388
:104090006665722066756E6374696F6E2069733A27
:1040A0000D0A002059287A292020202020202020B5
:1040B00062312A7A5E282D3129202B2062322A7A19
:1040C000282D3229200D0A002D2D2D2D2D203D20AB
:1040D0002D2D2D2D2D2D2D2D2D2D2D2D2D2D2D2D10
:1040E0002D2D2D2D2D2D2D2D2D2D0D0A002055285A
:1040F0007A292020202020312B2061312A7A5E2845
:104100002D3129202B2061322A7A282D3229200DA9
:104110000A004144432043616C6962726174696FB3
:104120006E20446F6E652E0D0A00414443204361AA
:104130006C6962726174696F6E204661696C656456
:104140002E0D0A00436F6E66696775726174696F40
:104150006E20446F6E652E0D0A0A00002B010000D0
:104160003D400B401040264035400340064014407F
:104170000E400D40254012402840024018400940A2
:104180000A40000000000000F8B5C046F8BC08BCBA
:104190009E467047F8B5C046F8BC08BC9E467047BE
:0841A00060C1FF7F0100000077
:0441A800A525000049
:0441AC007925000071
:1041B000001BB7000000000000000000030000002A
:1041C0001001001018000010000000001001001085
:1041D00078010010E0010010000000000000000065
:1041E00000000000000000000000000000000000CF
:1041F00000000000000000000000000000000000BF
:1042000000000000000000000000000000000000AE
:0442100000000000AA
:0400000300001F6971
:00000001FF
